{
  "contractName": "Router",
  "abi": [
    {
      "inputs": [
        {
          "internalType": "address",
          "name": "_curr",
          "type": "address"
        }
      ],
      "stateMutability": "nonpayable",
      "type": "constructor"
    },
    {
      "inputs": [
        {
          "internalType": "address",
          "name": "_event",
          "type": "address"
        },
        {
          "internalType": "uint256",
          "name": "_outcome",
          "type": "uint256"
        },
        {
          "internalType": "int128",
          "name": "_amount",
          "type": "int128"
        }
      ],
      "name": "buySingleEvent",
      "outputs": [],
      "stateMutability": "nonpayable",
      "type": "function"
    },
    {
      "inputs": [
        {
          "internalType": "address",
          "name": "operator",
          "type": "address"
        },
        {
          "internalType": "address",
          "name": "from",
          "type": "address"
        },
        {
          "internalType": "uint256",
          "name": "id",
          "type": "uint256"
        },
        {
          "internalType": "uint256",
          "name": "value",
          "type": "uint256"
        },
        {
          "internalType": "bytes",
          "name": "data",
          "type": "bytes"
        }
      ],
      "name": "onERC1155Received",
      "outputs": [
        {
          "internalType": "bytes4",
          "name": "",
          "type": "bytes4"
        }
      ],
      "stateMutability": "nonpayable",
      "type": "function"
    },
    {
      "inputs": [
        {
          "internalType": "address",
          "name": "operator",
          "type": "address"
        },
        {
          "internalType": "address",
          "name": "from",
          "type": "address"
        },
        {
          "internalType": "uint256[]",
          "name": "ids",
          "type": "uint256[]"
        },
        {
          "internalType": "uint256[]",
          "name": "values",
          "type": "uint256[]"
        },
        {
          "internalType": "bytes",
          "name": "data",
          "type": "bytes"
        }
      ],
      "name": "onERC1155BatchReceived",
      "outputs": [
        {
          "internalType": "bytes4",
          "name": "",
          "type": "bytes4"
        }
      ],
      "stateMutability": "nonpayable",
      "type": "function"
    },
    {
      "inputs": [
        {
          "internalType": "bytes4",
          "name": "interfaceId",
          "type": "bytes4"
        }
      ],
      "name": "supportsInterface",
      "outputs": [
        {
          "internalType": "bool",
          "name": "",
          "type": "bool"
        }
      ],
      "stateMutability": "view",
      "type": "function",
      "constant": true
    }
  ],
  "bytecode": "0x608060405234801561001057600080fd5b5060405161089f38038061089f8339818101604052602081101561003357600080fd5b8101908080519060200190929190505050806000806101000a81548173ffffffffffffffffffffffffffffffffffffffff021916908373ffffffffffffffffffffffffffffffffffffffff1602179055505061080b806100946000396000f3fe608060405234801561001057600080fd5b506004361061004c5760003560e01c806301ffc9a714610051578063bc197c81146100b6578063f23a6e611461026b578063ff58e2371461038a575b600080fd5b61009c6004803603602081101561006757600080fd5b8101908080357bffffffffffffffffffffffffffffffffffffffffffffffffffffffff191690602001909291905050506103e5565b604051808215151515815260200191505060405180910390f35b610217600480360360a08110156100cc57600080fd5b81019080803573ffffffffffffffffffffffffffffffffffffffff169060200190929190803573ffffffffffffffffffffffffffffffffffffffff1690602001909291908035906020019064010000000081111561012957600080fd5b82018360208201111561013b57600080fd5b8035906020019184602083028401116401000000008311171561015d57600080fd5b90919293919293908035906020019064010000000081111561017e57600080fd5b82018360208201111561019057600080fd5b803590602001918460208302840111640100000000831117156101b257600080fd5b9091929391929390803590602001906401000000008111156101d357600080fd5b8201836020820111156101e557600080fd5b8035906020019184600183028401116401000000008311171561020757600080fd5b90919293919293905050506103ec565b60405180827bffffffffffffffffffffffffffffffffffffffffffffffffffffffff19167bffffffffffffffffffffffffffffffffffffffffffffffffffffffff1916815260200191505060405180910390f35b610336600480360360a081101561028157600080fd5b81019080803573ffffffffffffffffffffffffffffffffffffffff169060200190929190803573ffffffffffffffffffffffffffffffffffffffff1690602001909291908035906020019092919080359060200190929190803590602001906401000000008111156102f257600080fd5b82018360208201111561030457600080fd5b8035906020019184600183028401116401000000008311171561032657600080fd5b9091929391929390505050610404565b60405180827bffffffffffffffffffffffffffffffffffffffffffffffffffffffff19167bffffffffffffffffffffffffffffffffffffffffffffffffffffffff1916815260200191505060405180910390f35b6103e3600480360360608110156103a057600080fd5b81019080803573ffffffffffffffffffffffffffffffffffffffff169060200190929190803590602001909291908035600f0b906020019092919050505061041a565b005b6000919050565b600063bc197c8160e01b905098975050505050505050565b600063f23a6e6160e01b90509695505050505050565b6000809054906101000a900473ffffffffffffffffffffffffffffffffffffffff1673ffffffffffffffffffffffffffffffffffffffff1663095ea7b38461046a84670de0b6b3a764000061071a565b6040518363ffffffff1660e01b8152600401808373ffffffffffffffffffffffffffffffffffffffff1673ffffffffffffffffffffffffffffffffffffffff16815260200182815260200192505050602060405180830381600087803b1580156104d357600080fd5b505af11580156104e7573d6000803e3d6000fd5b505050506040513d60208110156104fd57600080fd5b81019080805190602001909291905050505060008373ffffffffffffffffffffffffffffffffffffffff16637249f3e43385856040518463ffffffff1660e01b8152600401808473ffffffffffffffffffffffffffffffffffffffff1673ffffffffffffffffffffffffffffffffffffffff16815260200183815260200182600f0b600f0b81526020019350505050602060405180830381600087803b1580156105a657600080fd5b505af11580156105ba573d6000803e3d6000fd5b505050506040513d60208110156105d057600080fd5b810190808051906020019092919050505090506000809054906101000a900473ffffffffffffffffffffffffffffffffffffffff1673ffffffffffffffffffffffffffffffffffffffff166323b872dd333061063485670de0b6b3a764000061071a565b6040518463ffffffff1660e01b8152600401808473ffffffffffffffffffffffffffffffffffffffff1673ffffffffffffffffffffffffffffffffffffffff1681526020018373ffffffffffffffffffffffffffffffffffffffff1673ffffffffffffffffffffffffffffffffffffffff1681526020018281526020019350505050602060405180830381600087803b1580156106d057600080fd5b505af11580156106e4573d6000803e3d6000fd5b505050506040513d60208110156106fa57600080fd5b810190808051906020019092919050505061071457600080fd5b50505050565b60008082141561072d57600090506107cf565b600083600f0b121561073e57600080fd5b600060406fffffffffffffffffffffffffffffffff841685600f0b02901c90506000608084901c85600f0b02905077ffffffffffffffffffffffffffffffffffffffffffffffff81111561079157600080fd5b604081901b9050817fffffffffffffffffffffffffffffffffffffffffffffffffffffffffffffffff038111156107c757600080fd5b818101925050505b9291505056fea2646970667358221220a8ff351cdd7f80f1f91980f5497ac8e87ec011083244f0a58040cf038e8b102964736f6c63430006080033",
  "immutableReferences": {},
  "source": "pragma solidity ^0.6.0;\r\n\r\nimport \"./interfaces/ISCMMaker.sol\";\r\nimport { IERC20 } from \"@openzeppelin/contracts/token/ERC20/IERC20.sol\";\r\nimport {ABDKMath} from \"./ABDKMath64x64.sol\";\r\nimport \"@openzeppelin/contracts/token/ERC1155/IERC1155Receiver.sol\";\r\n\r\ncontract Router is IERC1155Receiver{\r\n\r\n  address private currency;\r\n\r\n  constructor(address _curr) public {\r\n    currency = _curr;\r\n  }\r\n\r\n  function buySingleEvent(address _event, uint _outcome, int128 _amount) public {\r\n    IERC20(currency).approve(_event,ABDKMath.mulu(_amount,10**18));\r\n    int128 transfer = ISCMMaker(_event).buyshares(msg.sender,_outcome,_amount);\r\n    require(IERC20(currency).transferFrom(msg.sender,address(this),ABDKMath.mulu(transfer,10**18)));\r\n  }\r\n\r\n  /* function buyComboEvent(address[] memory _events, uint[] memory _outcomes, int128 _amount) public {\r\n    require(_events.length == _outcomes.length,'mismatch length');\r\n    for(uint i=0;i<_events.length;i++) {\r\n      ISCMMaker(_events[i]).buyshares(address(this),_outcome,_amount)\r\n    }\r\n  } */\r\n\r\n  function onERC1155Received(\r\n    address operator,\r\n    address from,\r\n    uint256 id,\r\n    uint256 value,\r\n    bytes calldata data\r\n)\r\n    external\r\n    override\r\n    returns(bytes4) {\r\n        return this.onERC1155Received.selector;\r\n    }\r\n\r\nfunction onERC1155BatchReceived(\r\n    address operator,\r\n    address from,\r\n    uint256[] calldata ids,\r\n    uint256[] calldata values,\r\n    bytes calldata data\r\n)\r\n    external\r\n    override\r\n    returns(bytes4) {\r\n        return this.onERC1155BatchReceived.selector;\r\n    }\r\n\r\nfunction supportsInterface(bytes4 interfaceId) external override view returns (bool) {}\r\n}\r\n",
  "sourcePath": "C:/Users/Abdulla/apps/CTF/contracts/Router.sol",
  "compiler": {
    "name": "solc",
    "version": "0.6.8+commit.0bbfe453.Emscripten.clang"
  },
  "schemaVersion": "3.3.0",
  "updatedAt": "2020-12-14T20:52:03.712Z",
  "networkType": "ethereum",
  "devdoc": {
    "methods": {}
  },
  "userdoc": {
    "methods": {}
  }
}