{
  "contractName": "Router",
  "abi": [
    {
      "inputs": [
        {
          "internalType": "address",
          "name": "_curr",
          "type": "address"
        },
        {
          "internalType": "address",
          "name": "_ctf",
          "type": "address"
        }
      ],
      "stateMutability": "nonpayable",
      "type": "constructor"
    },
    {
      "anonymous": false,
      "inputs": [
        {
          "indexed": false,
          "internalType": "address[]",
          "name": "_events",
          "type": "address[]"
        },
        {
          "indexed": true,
          "internalType": "address",
          "name": "_user",
          "type": "address"
        },
        {
          "indexed": true,
          "internalType": "uint256",
          "name": "_id",
          "type": "uint256"
        },
        {
          "indexed": false,
          "internalType": "uint256[]",
          "name": "_outcomes",
          "type": "uint256[]"
        },
        {
          "indexed": false,
          "internalType": "int128",
          "name": "_amount",
          "type": "int128"
        }
      ],
      "name": "ComboBetCreated",
      "type": "event"
    },
    {
      "anonymous": false,
      "inputs": [
        {
          "indexed": false,
          "internalType": "address",
          "name": "_event",
          "type": "address"
        },
        {
          "indexed": true,
          "internalType": "address",
          "name": "_user",
          "type": "address"
        },
        {
          "indexed": false,
          "internalType": "uint256",
          "name": "_outcome",
          "type": "uint256"
        },
        {
          "indexed": false,
          "internalType": "int128",
          "name": "_amount",
          "type": "int128"
        }
      ],
      "name": "SingleBetCreated",
      "type": "event"
    },
    {
      "inputs": [
        {
          "internalType": "address",
          "name": "_event",
          "type": "address"
        },
        {
          "internalType": "uint256",
          "name": "_outcome",
          "type": "uint256"
        },
        {
          "internalType": "int128",
          "name": "_amount",
          "type": "int128"
        }
      ],
      "name": "buySingleEvent",
      "outputs": [],
      "stateMutability": "nonpayable",
      "type": "function"
    },
    {
      "inputs": [
        {
          "internalType": "uint256",
          "name": "index",
          "type": "uint256"
        },
        {
          "internalType": "uint256",
          "name": "len",
          "type": "uint256"
        }
      ],
      "name": "getInversePartition",
      "outputs": [
        {
          "internalType": "uint256[]",
          "name": "",
          "type": "uint256[]"
        }
      ],
      "stateMutability": "pure",
      "type": "function",
      "constant": true
    },
    {
      "inputs": [
        {
          "internalType": "address[]",
          "name": "_events",
          "type": "address[]"
        },
        {
          "internalType": "uint256[]",
          "name": "_outcomes",
          "type": "uint256[]"
        },
        {
          "internalType": "int128",
          "name": "_amount",
          "type": "int128"
        }
      ],
      "name": "buyComboEvent",
      "outputs": [],
      "stateMutability": "nonpayable",
      "type": "function"
    },
    {
      "inputs": [
        {
          "internalType": "address[]",
          "name": "_events",
          "type": "address[]"
        },
        {
          "internalType": "uint256[]",
          "name": "_outcomes",
          "type": "uint256[]"
        },
        {
          "internalType": "int128",
          "name": "_amount",
          "type": "int128"
        }
      ],
      "name": "getComboEventPrice",
      "outputs": [
        {
          "internalType": "int128",
          "name": "",
          "type": "int128"
        }
      ],
      "stateMutability": "view",
      "type": "function",
      "constant": true
    },
    {
      "inputs": [
        {
          "internalType": "address",
          "name": "operator",
          "type": "address"
        },
        {
          "internalType": "address",
          "name": "from",
          "type": "address"
        },
        {
          "internalType": "uint256",
          "name": "id",
          "type": "uint256"
        },
        {
          "internalType": "uint256",
          "name": "value",
          "type": "uint256"
        },
        {
          "internalType": "bytes",
          "name": "data",
          "type": "bytes"
        }
      ],
      "name": "onERC1155Received",
      "outputs": [
        {
          "internalType": "bytes4",
          "name": "",
          "type": "bytes4"
        }
      ],
      "stateMutability": "nonpayable",
      "type": "function"
    },
    {
      "inputs": [
        {
          "internalType": "address",
          "name": "operator",
          "type": "address"
        },
        {
          "internalType": "address",
          "name": "from",
          "type": "address"
        },
        {
          "internalType": "uint256[]",
          "name": "ids",
          "type": "uint256[]"
        },
        {
          "internalType": "uint256[]",
          "name": "values",
          "type": "uint256[]"
        },
        {
          "internalType": "bytes",
          "name": "data",
          "type": "bytes"
        }
      ],
      "name": "onERC1155BatchReceived",
      "outputs": [
        {
          "internalType": "bytes4",
          "name": "",
          "type": "bytes4"
        }
      ],
      "stateMutability": "nonpayable",
      "type": "function"
    },
    {
      "inputs": [
        {
          "internalType": "bytes4",
          "name": "interfaceId",
          "type": "bytes4"
        }
      ],
      "name": "supportsInterface",
      "outputs": [
        {
          "internalType": "bool",
          "name": "",
          "type": "bool"
        }
      ],
      "stateMutability": "view",
      "type": "function",
      "constant": true
    }
  ],
  "bytecode": "0x608060405234801561001057600080fd5b50604051611c55380380611c558339818101604052604081101561003357600080fd5b810190808051906020019092919080519060200190929190505050816000806101000a81548173ffffffffffffffffffffffffffffffffffffffff021916908373ffffffffffffffffffffffffffffffffffffffff16021790555080600160006101000a81548173ffffffffffffffffffffffffffffffffffffffff021916908373ffffffffffffffffffffffffffffffffffffffff1602179055505050611b75806100e06000396000f3fe608060405234801561001057600080fd5b506004361061007d5760003560e01c80638d5276481161005b5780638d527648146103b3578063bc197c8114610440578063f23a6e61146105f5578063ff58e237146107145761007d565b806301ffc9a7146100825780631c27920c146100e75780637f9402271461025a575b600080fd5b6100cd6004803603602081101561009857600080fd5b8101908080357bffffffffffffffffffffffffffffffffffffffffffffffffffffffff1916906020019092919050505061076f565b604051808215151515815260200191505060405180910390f35b61023e600480360360608110156100fd57600080fd5b810190808035906020019064010000000081111561011a57600080fd5b82018360208201111561012c57600080fd5b8035906020019184602083028401116401000000008311171561014e57600080fd5b919080806020026020016040519081016040528093929190818152602001838360200280828437600081840152601f19601f820116905080830192505050505050509192919290803590602001906401000000008111156101ae57600080fd5b8201836020820111156101c057600080fd5b803590602001918460208302840111640100000000831117156101e257600080fd5b919080806020026020016040519081016040528093929190818152602001838360200280828437600081840152601f19601f8201169050808301925050505050505091929192908035600f0b9060200190929190505050610776565b6040518082600f0b600f0b815260200191505060405180910390f35b6103b16004803603606081101561027057600080fd5b810190808035906020019064010000000081111561028d57600080fd5b82018360208201111561029f57600080fd5b803590602001918460208302840111640100000000831117156102c157600080fd5b919080806020026020016040519081016040528093929190818152602001838360200280828437600081840152601f19601f8201169050808301925050505050505091929192908035906020019064010000000081111561032157600080fd5b82018360208201111561033357600080fd5b8035906020019184602083028401116401000000008311171561035557600080fd5b919080806020026020016040519081016040528093929190818152602001838360200280828437600081840152601f19601f8201169050808301925050505050505091929192908035600f0b9060200190929190505050610989565b005b6103e9600480360360408110156103c957600080fd5b810190808035906020019092919080359060200190929190505050611521565b6040518080602001828103825283818151815260200191508051906020019060200280838360005b8381101561042c578082015181840152602081019050610411565b505050509050019250505060405180910390f35b6105a1600480360360a081101561045657600080fd5b81019080803573ffffffffffffffffffffffffffffffffffffffff169060200190929190803573ffffffffffffffffffffffffffffffffffffffff169060200190929190803590602001906401000000008111156104b357600080fd5b8201836020820111156104c557600080fd5b803590602001918460208302840111640100000000831117156104e757600080fd5b90919293919293908035906020019064010000000081111561050857600080fd5b82018360208201111561051a57600080fd5b8035906020019184602083028401116401000000008311171561053c57600080fd5b90919293919293908035906020019064010000000081111561055d57600080fd5b82018360208201111561056f57600080fd5b8035906020019184600183028401116401000000008311171561059157600080fd5b90919293919293905050506115b5565b60405180827bffffffffffffffffffffffffffffffffffffffffffffffffffffffff19167bffffffffffffffffffffffffffffffffffffffffffffffffffffffff1916815260200191505060405180910390f35b6106c0600480360360a081101561060b57600080fd5b81019080803573ffffffffffffffffffffffffffffffffffffffff169060200190929190803573ffffffffffffffffffffffffffffffffffffffff16906020019092919080359060200190929190803590602001909291908035906020019064010000000081111561067c57600080fd5b82018360208201111561068e57600080fd5b803590602001918460018302840111640100000000831117156106b057600080fd5b90919293919293905050506115cd565b60405180827bffffffffffffffffffffffffffffffffffffffffffffffffffffffff19167bffffffffffffffffffffffffffffffffffffffffffffffffffffffff1916815260200191505060405180910390f35b61076d6004803603606081101561072a57600080fd5b81019080803573ffffffffffffffffffffffffffffffffffffffff169060200190929190803590602001909291908035600f0b90602001909291905050506115e3565b005b6000919050565b600082518451146107ef576040517f08c379a000000000000000000000000000000000000000000000000000000000815260040180806020018281038252600f8152602001807f6d69736d61746368206c656e677468000000000000000000000000000000000081525060200191505060405180910390fd5b6060845167ffffffffffffffff8111801561080957600080fd5b506040519080825280602002602001820160405280156108385781602001602082028036833780820191505090505b50905060008390506000610855856108508951611973565b611996565b905060008090505b875181101561097b5787818151811061087257fe5b602002602001015173ffffffffffffffffffffffffffffffffffffffff1663297166bf8883815181106108a157fe5b6020026020010151846040518363ffffffff1660e01b81526004018083815260200182600f0b600f0b81526020019250505060206040518083038186803b1580156108eb57600080fd5b505afa1580156108ff573d6000803e3d6000fd5b505050506040513d602081101561091557600080fd5b810190808051906020019092919050505084828151811061093257fe5b6020026020010190600f0b9081600f0b8152505061096c8361096786848151811061095957fe5b602002602001015185611996565b611a19565b9250808060010191505061085d565b508193505050509392505050565b8151835114610a00576040517f08c379a000000000000000000000000000000000000000000000000000000000815260040180806020018281038252600f8152602001807f6d69736d61746368206c656e677468000000000000000000000000000000000081525060200191505060405180910390fd5b6060835167ffffffffffffffff81118015610a1a57600080fd5b50604051908082528060200260200182016040528015610a495781602001602082028036833780820191505090505b50905060008290506000610a6684610a618851611973565b611996565b905060008060001b905060008090505b87518110156110d557878181518110610a8b57fe5b602002602001015173ffffffffffffffffffffffffffffffffffffffff1663fcbc684730898481518110610abb57fe5b6020026020010151866040518463ffffffff1660e01b8152600401808473ffffffffffffffffffffffffffffffffffffffff1673ffffffffffffffffffffffffffffffffffffffff16815260200183815260200182600f0b600f0b81526020019350505050602060405180830381600087803b158015610b3a57600080fd5b505af1158015610b4e573d6000803e3d6000fd5b505050506040513d6020811015610b6457600080fd5b8101908080519060200190929190505050858281518110610b8157fe5b6020026020010190600f0b9081600f0b81525050610bbb84610bb6878481518110610ba857fe5b602002602001015186611996565b611a19565b93506000809054906101000a900473ffffffffffffffffffffffffffffffffffffffff1673ffffffffffffffffffffffffffffffffffffffff1663095ea7b3600160009054906101000a900473ffffffffffffffffffffffffffffffffffffffff16610c2f89670de0b6b3a7640000611a84565b6040518363ffffffff1660e01b8152600401808373ffffffffffffffffffffffffffffffffffffffff1673ffffffffffffffffffffffffffffffffffffffff16815260200182815260200192505050602060405180830381600087803b158015610c9857600080fd5b505af1158015610cac573d6000803e3d6000fd5b505050506040513d6020811015610cc257600080fd5b810190808051906020019092919050505050600160009054906101000a900473ffffffffffffffffffffffffffffffffffffffff1673ffffffffffffffffffffffffffffffffffffffff166372ce42756000809054906101000a900473ffffffffffffffffffffffffffffffffffffffff16848b8581518110610d4157fe5b602002602001015173ffffffffffffffffffffffffffffffffffffffff1663680baeb86040518163ffffffff1660e01b815260040160206040518083038186803b158015610d8e57600080fd5b505afa158015610da2573d6000803e3d6000fd5b505050506040513d6020811015610db857600080fd5b8101908080519060200190929190505050610e798c8781518110610dd857fe5b60200260200101518e8881518110610dec57fe5b602002602001015173ffffffffffffffffffffffffffffffffffffffff16630d76da986040518163ffffffff1660e01b815260040160206040518083038186803b158015610e3957600080fd5b505afa158015610e4d573d6000803e3d6000fd5b505050506040513d6020811015610e6357600080fd5b8101908080519060200190929190505050611521565b610e8b8c670de0b6b3a7640000611a84565b6040518663ffffffff1660e01b8152600401808673ffffffffffffffffffffffffffffffffffffffff1673ffffffffffffffffffffffffffffffffffffffff16815260200185815260200184815260200180602001838152602001828103825284818151815260200191508051906020019060200280838360005b83811015610f21578082015181840152602081019050610f06565b505050509050019650505050505050600060405180830381600087803b158015610f4a57600080fd5b505af1158015610f5e573d6000803e3d6000fd5b50505050600160009054906101000a900473ffffffffffffffffffffffffffffffffffffffff1673ffffffffffffffffffffffffffffffffffffffff1663856296f7838a8481518110610fad57fe5b602002602001015173ffffffffffffffffffffffffffffffffffffffff1663680baeb86040518163ffffffff1660e01b815260040160206040518083038186803b158015610ffa57600080fd5b505afa15801561100e573d6000803e3d6000fd5b505050506040513d602081101561102457600080fd5b81019080805190602001909291905050508a858151811061104157fe5b60200260200101516040518463ffffffff1660e01b815260040180848152602001838152602001828152602001935050505060206040518083038186803b15801561108b57600080fd5b505afa15801561109f573d6000803e3d6000fd5b505050506040513d60208110156110b557600080fd5b810190808051906020019092919050505091508080600101915050610a76565b506000809054906101000a900473ffffffffffffffffffffffffffffffffffffffff1673ffffffffffffffffffffffffffffffffffffffff166323b872dd333061112787670de0b6b3a7640000611a84565b6040518463ffffffff1660e01b8152600401808473ffffffffffffffffffffffffffffffffffffffff1673ffffffffffffffffffffffffffffffffffffffff1681526020018373ffffffffffffffffffffffffffffffffffffffff1673ffffffffffffffffffffffffffffffffffffffff1681526020018281526020019350505050602060405180830381600087803b1580156111c357600080fd5b505af11580156111d7573d6000803e3d6000fd5b505050506040513d60208110156111ed57600080fd5b810190808051906020019092919050505061120757600080fd5b6000600160009054906101000a900473ffffffffffffffffffffffffffffffffffffffff1673ffffffffffffffffffffffffffffffffffffffff166339dd75306000809054906101000a900473ffffffffffffffffffffffffffffffffffffffff16846040518363ffffffff1660e01b8152600401808373ffffffffffffffffffffffffffffffffffffffff1673ffffffffffffffffffffffffffffffffffffffff1681526020018281526020019250505060206040518083038186803b1580156112d157600080fd5b505afa1580156112e5573d6000803e3d6000fd5b505050506040513d60208110156112fb57600080fd5b81019080805190602001909291905050509050600160009054906101000a900473ffffffffffffffffffffffffffffffffffffffff1673ffffffffffffffffffffffffffffffffffffffff1663f242432a3033846113618b670de0b6b3a7640000611a84565b6040518563ffffffff1660e01b8152600401808573ffffffffffffffffffffffffffffffffffffffff1673ffffffffffffffffffffffffffffffffffffffff1681526020018473ffffffffffffffffffffffffffffffffffffffff1673ffffffffffffffffffffffffffffffffffffffff1681526020018381526020018281526020018060200182810382526000815260200160200195505050505050600060405180830381600087803b15801561141857600080fd5b505af115801561142c573d6000803e3d6000fd5b50505050803373ffffffffffffffffffffffffffffffffffffffff167fa582cbb36342839e31c357cbcedd1812c63c2e60c633aa5bacb018601107001a8a8a8a60405180806020018060200184600f0b600f0b8152602001838103835286818151815260200191508051906020019060200280838360005b838110156114bf5780820151818401526020810190506114a4565b50505050905001838103825285818151815260200191508051906020019060200280838360005b838110156115015780820151818401526020810190506114e6565b505050509050019550505050505060405180910390a35050505050505050565b606080600267ffffffffffffffff8111801561153c57600080fd5b5060405190808252806020026020018201604052801561156b5781602001602082028036833780820191505090505b509050838160008151811061157c57fe5b602002602001018181525050836001846001901b03038160018151811061159f57fe5b6020026020010181815250508091505092915050565b600063bc197c8160e01b905098975050505050505050565b600063f23a6e6160e01b90509695505050505050565b6000809054906101000a900473ffffffffffffffffffffffffffffffffffffffff1673ffffffffffffffffffffffffffffffffffffffff1663095ea7b38461163384670de0b6b3a7640000611a84565b6040518363ffffffff1660e01b8152600401808373ffffffffffffffffffffffffffffffffffffffff1673ffffffffffffffffffffffffffffffffffffffff16815260200182815260200192505050602060405180830381600087803b15801561169c57600080fd5b505af11580156116b0573d6000803e3d6000fd5b505050506040513d60208110156116c657600080fd5b81019080805190602001909291905050505060008373ffffffffffffffffffffffffffffffffffffffff16637249f3e43385856040518463ffffffff1660e01b8152600401808473ffffffffffffffffffffffffffffffffffffffff1673ffffffffffffffffffffffffffffffffffffffff16815260200183815260200182600f0b600f0b81526020019350505050602060405180830381600087803b15801561176f57600080fd5b505af1158015611783573d6000803e3d6000fd5b505050506040513d602081101561179957600080fd5b810190808051906020019092919050505090506000809054906101000a900473ffffffffffffffffffffffffffffffffffffffff1673ffffffffffffffffffffffffffffffffffffffff166323b872dd33306117fd85670de0b6b3a7640000611a84565b6040518463ffffffff1660e01b8152600401808473ffffffffffffffffffffffffffffffffffffffff1673ffffffffffffffffffffffffffffffffffffffff1681526020018373ffffffffffffffffffffffffffffffffffffffff1673ffffffffffffffffffffffffffffffffffffffff1681526020018281526020019350505050602060405180830381600087803b15801561189957600080fd5b505af11580156118ad573d6000803e3d6000fd5b505050506040513d60208110156118c357600080fd5b81019080805190602001909291905050506118dd57600080fd5b3373ffffffffffffffffffffffffffffffffffffffff167f25e972d4f6930f9a393582f5794a1b548404d2633870bc08dc529788bfc812ad858585604051808473ffffffffffffffffffffffffffffffffffffffff1673ffffffffffffffffffffffffffffffffffffffff16815260200183815260200182600f0b600f0b8152602001935050505060405180910390a250505050565b6000677fffffffffffffff82111561198a57600080fd5b604082901b9050919050565b60008082600f0b14156119a857600080fd5b600082600f0b604085600f0b901b816119bd57fe5b0590507fffffffffffffffffffffffffffffffff80000000000000000000000000000000600f0b8112158015611a0657506f7fffffffffffffffffffffffffffffff600f0b8113155b611a0f57600080fd5b8091505092915050565b600080604083600f0b85600f0b02901d90507fffffffffffffffffffffffffffffffff80000000000000000000000000000000600f0b8112158015611a7157506f7fffffffffffffffffffffffffffffff600f0b8113155b611a7a57600080fd5b8091505092915050565b600080821415611a975760009050611b39565b600083600f0b1215611aa857600080fd5b600060406fffffffffffffffffffffffffffffffff841685600f0b02901c90506000608084901c85600f0b02905077ffffffffffffffffffffffffffffffffffffffffffffffff811115611afb57600080fd5b604081901b9050817fffffffffffffffffffffffffffffffffffffffffffffffffffffffffffffffff03811115611b3157600080fd5b818101925050505b9291505056fea264697066735822122058bec2eb4f69d2180024a501dfedffb9f72b017fca27e76c5f2158da78616b8364736f6c63430006080033",
  "immutableReferences": {},
  "source": "pragma solidity ^0.6.0;\r\n\r\nimport \"./interfaces/ISCMMaker.sol\";\r\nimport { IERC20 } from \"@openzeppelin/contracts/token/ERC20/IERC20.sol\";\r\nimport {ABDKMath} from \"./ABDKMath64x64.sol\";\r\nimport \"@openzeppelin/contracts/token/ERC1155/IERC1155Receiver.sol\";\r\nimport \"./ConditionalTokens.sol\";\r\n\r\ncontract Router is IERC1155Receiver{\r\n\r\n  address private currency;\r\n  address private CT;\r\n\r\n  event SingleBetCreated(address _event, address indexed _user, uint _outcome, int128 _amount);\r\n  event ComboBetCreated(address[] _events, address indexed _user, uint256 indexed _id, uint[] _outcomes, int128 _amount);\r\n\r\n  constructor(address _curr, address _ctf) public {\r\n    currency = _curr;\r\n    CT = _ctf;\r\n  }\r\n\r\n  function buySingleEvent(address _event, uint _outcome, int128 _amount) public {\r\n    IERC20(currency).approve(_event,ABDKMath.mulu(_amount,10**18));\r\n    int128 transfer = ISCMMaker(_event).buyshares(msg.sender,_outcome,_amount);\r\n    require(IERC20(currency).transferFrom(msg.sender,address(this),ABDKMath.mulu(transfer,10**18)));\r\n    emit SingleBetCreated(_event, msg.sender, _outcome, _amount);\r\n  }\r\n\r\n  function getInversePartition(uint256 index, uint256 len) public pure returns (uint256[] memory) {\r\n    uint256[] memory partx = new uint256[](2);\r\n    partx[0] = index;\r\n    partx[1] = (1<<len)-1-index;\r\n    return partx;\r\n  }\r\n\r\n  function buyComboEvent(address[] memory _events, uint[] memory _outcomes, int128 _amount) public {\r\n    require(_events.length == _outcomes.length,'mismatch length');\r\n    int128[] memory prices = new int128[](_events.length);\r\n    int128 price = _amount;\r\n    int128 size = ABDKMath.div(_amount,ABDKMath.fromUInt(_events.length));\r\n    bytes32 prevCollection = bytes32(0);\r\n    for(uint i=0;i<_events.length;i++) {\r\n      prices[i] = ISCMMaker(_events[i]).buyvirtualshares(address(this),_outcomes[i],size);\r\n      price = ABDKMath.mul(price,ABDKMath.div(prices[i],size));\r\n      IERC20(currency).approve(CT,ABDKMath.mulu(_amount,10**18));\r\n      ConditionalTokens(CT).splitPosition(IERC20(currency),prevCollection,ISCMMaker(_events[i]).getCondition(),\r\n        getInversePartition(_outcomes[i],ISCMMaker(_events[i]).getNumberOutcomes()),ABDKMath.mulu(_amount,10**18));\r\n      prevCollection = ConditionalTokens(CT).getCollectionId(prevCollection,ISCMMaker(_events[i]).getCondition(),_outcomes[i]);\r\n    }\r\n    require(IERC20(currency).transferFrom(msg.sender,address(this),ABDKMath.mulu(price,10**18)));\r\n    uint pos = ConditionalTokens(CT).getPositionId(IERC20(currency),prevCollection);\r\n    ConditionalTokens(CT).safeTransferFrom(address(this),msg.sender,pos,ABDKMath.mulu(_amount,10**18),'');\r\n    emit ComboBetCreated(_events, msg.sender, pos, _outcomes, _amount);\r\n  }\r\n\r\n  function getComboEventPrice(address[] memory _events, uint[] memory _outcomes, int128 _amount) public view returns (int128){\r\n    require(_events.length == _outcomes.length,'mismatch length');\r\n    int128[] memory prices = new int128[](_events.length);\r\n    int128 price = _amount;\r\n    int128 size = ABDKMath.div(_amount,ABDKMath.fromUInt(_events.length));\r\n    for(uint i=0;i<_events.length;i++) {\r\n      prices[i] = ISCMMaker(_events[i]).priceI(_outcomes[i],size);\r\n      price = ABDKMath.mul(price,ABDKMath.div(prices[i],size));\r\n    }\r\n    return price;\r\n  }\r\n\r\n  function onERC1155Received(\r\n    address operator,\r\n    address from,\r\n    uint256 id,\r\n    uint256 value,\r\n    bytes calldata data\r\n)\r\n    external\r\n    override\r\n    returns(bytes4) {\r\n        return this.onERC1155Received.selector;\r\n    }\r\n\r\nfunction onERC1155BatchReceived(\r\n    address operator,\r\n    address from,\r\n    uint256[] calldata ids,\r\n    uint256[] calldata values,\r\n    bytes calldata data\r\n)\r\n    external\r\n    override\r\n    returns(bytes4) {\r\n        return this.onERC1155BatchReceived.selector;\r\n    }\r\n\r\nfunction supportsInterface(bytes4 interfaceId) external override view returns (bool) {}\r\n}\r\n",
  "sourcePath": "C:/Users/Abdulla/apps/CTF/contracts/Router.sol",
  "compiler": {
    "name": "solc",
    "version": "0.6.8+commit.0bbfe453.Emscripten.clang"
  },
  "schemaVersion": "3.3.0",
  "updatedAt": "2020-12-17T17:20:03.293Z",
  "networkType": "ethereum",
  "devdoc": {
    "methods": {}
  },
  "userdoc": {
    "methods": {}
  }
}