{
  "contractName": "SCFactory",
  "abi": [
    {
      "inputs": [
        {
          "internalType": "address",
          "name": "_curr",
          "type": "address"
        },
        {
          "internalType": "address",
          "name": "_ctf",
          "type": "address"
        }
      ],
      "stateMutability": "nonpayable",
      "type": "constructor"
    },
    {
      "anonymous": false,
      "inputs": [
        {
          "indexed": false,
          "internalType": "contract SCMMaker",
          "name": "_market",
          "type": "address"
        }
      ],
      "name": "MarketCreated",
      "type": "event"
    },
    {
      "inputs": [
        {
          "internalType": "uint256",
          "name": "",
          "type": "uint256"
        }
      ],
      "name": "market",
      "outputs": [
        {
          "internalType": "contract SCMMaker",
          "name": "",
          "type": "address"
        }
      ],
      "stateMutability": "view",
      "type": "function",
      "constant": true
    },
    {
      "inputs": [],
      "name": "markets",
      "outputs": [
        {
          "internalType": "uint256",
          "name": "",
          "type": "uint256"
        }
      ],
      "stateMutability": "view",
      "type": "function",
      "constant": true
    },
    {
      "inputs": [
        {
          "internalType": "uint256",
          "name": "_numOptions",
          "type": "uint256"
        },
        {
          "internalType": "uint256",
          "name": "endTime",
          "type": "uint256"
        },
        {
          "internalType": "uint256",
          "name": "resultTime",
          "type": "uint256"
        },
        {
          "internalType": "string",
          "name": "hash",
          "type": "string"
        }
      ],
      "name": "createMarket",
      "outputs": [],
      "stateMutability": "nonpayable",
      "type": "function"
    },
    {
      "inputs": [],
      "name": "getNumberOfMarkets",
      "outputs": [
        {
          "internalType": "uint256",
          "name": "",
          "type": "uint256"
        }
      ],
      "stateMutability": "view",
      "type": "function",
      "constant": true
    },
    {
      "inputs": [
        {
          "internalType": "uint256",
          "name": "_id",
          "type": "uint256"
        }
      ],
      "name": "getMarket",
      "outputs": [
        {
          "internalType": "contract SCMMaker",
          "name": "",
          "type": "address"
        }
      ],
      "stateMutability": "view",
      "type": "function",
      "constant": true
    }
  ],
  "bytecode": "0x608060405234801561001057600080fd5b506040516150ae3803806150ae8339818101604052604081101561003357600080fd5b81019080805190602001909291908051906020019092919050505081600260006101000a81548173ffffffffffffffffffffffffffffffffffffffff021916908373ffffffffffffffffffffffffffffffffffffffff16021790555080600360006101000a81548173ffffffffffffffffffffffffffffffffffffffff021916908373ffffffffffffffffffffffffffffffffffffffff1602179055505050614fcd806100e16000396000f3fe60806040523480156200001157600080fd5b50600436106200005e5760003560e01c806328861d2214620000635780633ac2a03214620000d4578063c03ccc2714620000f4578063e2c78e7014620001d3578063eb44fdd314620001f3575b600080fd5b62000092600480360360208110156200007b57600080fd5b810190808035906020019092919050505062000264565b604051808273ffffffffffffffffffffffffffffffffffffffff1673ffffffffffffffffffffffffffffffffffffffff16815260200191505060405180910390f35b620000de62000297565b6040518082815260200191505060405180910390f35b620001d1600480360360808110156200010c57600080fd5b81019080803590602001909291908035906020019092919080359060200190929190803590602001906401000000008111156200014857600080fd5b8201836020820111156200015b57600080fd5b803590602001918460018302840111640100000000831117156200017e57600080fd5b91908080601f016020809104026020016040519081016040528093929190818152602001838380828437600081840152601f19601f8201169050808301925050505050505091929192905050506200029d565b005b620001dd62000535565b6040518082815260200191505060405180910390f35b62000222600480360360208110156200020b57600080fd5b81019080803590602001909291905050506200053f565b604051808273ffffffffffffffffffffffffffffffffffffffff1673ffffffffffffffffffffffffffffffffffffffff16815260200191505060405180910390f35b60006020528060005260406000206000915054906101000a900473ffffffffffffffffffffffffffffffffffffffff1681565b60015481565b33600260009054906101000a900473ffffffffffffffffffffffffffffffffffffffff16600360009054906101000a900473ffffffffffffffffffffffffffffffffffffffff1686868686604051620002f6906200057b565b808873ffffffffffffffffffffffffffffffffffffffff1673ffffffffffffffffffffffffffffffffffffffff1681526020018773ffffffffffffffffffffffffffffffffffffffff1673ffffffffffffffffffffffffffffffffffffffff1681526020018673ffffffffffffffffffffffffffffffffffffffff1673ffffffffffffffffffffffffffffffffffffffff16815260200185815260200184815260200183815260200180602001828103825283818151815260200191508051906020019080838360005b83811015620003dd578082015181840152602081019050620003c0565b50505050905090810190601f1680156200040b5780820380516001836020036101000a031916815260200191505b5098505050505050505050604051809103906000f08015801562000433573d6000803e3d6000fd5b50600080600154815260200190815260200160002060006101000a81548173ffffffffffffffffffffffffffffffffffffffff021916908373ffffffffffffffffffffffffffffffffffffffff1602179055507fb27af04ab132a0b6bba5de2a84bbbadcc31c20c33932936a992ae6ff951259c3600080600154815260200190815260200160002060009054906101000a900473ffffffffffffffffffffffffffffffffffffffff16604051808273ffffffffffffffffffffffffffffffffffffffff1673ffffffffffffffffffffffffffffffffffffffff16815260200191505060405180910390a160016000815480929190600101919050555050505050565b6000600154905090565b600080600083815260200190815260200160002060009054906101000a900473ffffffffffffffffffffffffffffffffffffffff169050919050565b614a0e806200058a8339019056fe608060405273aededc9a349b19508cdaed4c6f8cf244413260e7600d60006101000a81548173ffffffffffffffffffffffffffffffffffffffff021916908373ffffffffffffffffffffffffffffffffffffffff160217905550604051806020016040528060008152506011908051906020019062000080929190620017eb565b503480156200008e57600080fd5b5060405162004a0e38038062004a0e833981810160405260e0811015620000b457600080fd5b81019080805190602001909291908051906020019092919080519060200190929190805190602001909291908051906020019092919080519060200190929190805160405193929190846401000000008211156200011157600080fd5b838201915060208201858111156200012857600080fd5b82518660018202830111640100000000821117156200014657600080fd5b8083526020830192505050908051906020019080838360005b838110156200017c5780820151818401526020810190506200015f565b50505050905090810190601f168015620001aa5780820380516001836020036101000a031916815260200191505b506040525050508360008190555085600c60006101000a81548173ffffffffffffffffffffffffffffffffffffffff021916908373ffffffffffffffffffffffffffffffffffffffff16021790555060006200021260646200082d60201b620020b91760201c565b905060006200022c866200082d60201b620020b91760201c565b905062000288600162000277600a620002668562000255876200085160201b620020dc1760201c565b6200089460201b620021161760201c565b6200089460201b620021161760201c565b6200090160201b620021811760201c565b600460106101000a8154816fffffffffffffffffffffffffffffffff0219169083600f0b6fffffffffffffffffffffffffffffffff160217905550620002ff620002de83836200089460201b620021161760201c565b600460109054906101000a9004600f0b6200089460201b620021161760201c565b600460006101000a8154816fffffffffffffffffffffffffffffffff0219169083600f0b6fffffffffffffffffffffffffffffffff160217905550600080620003786200036785600460009054906101000a9004600f0b6200090160201b620021811760201c565b6200098860201b620022041760201c565b90508a600a60006101000a81548173ffffffffffffffffffffffffffffffffffffffff021916908373ffffffffffffffffffffffffffffffffffffffff16021790555060008090505b600054811015620004bd5760028590806001815401808255809150506001900390600052602060002090600291828204019190066010029091909190916101000a8154816fffffffffffffffffffffffffffffffff0219169083600f0b6fffffffffffffffffffffffffffffffff1602179055506200044c838362000a0c60201b6200227d1760201c565b925062000474600560109054906101000a9004600f0b8662000a0c60201b6200227d1760201c565b600560106101000a8154816fffffffffffffffffffffffffffffffff0219169083600f0b6fffffffffffffffffffffffffffffffff1602179055508080600101915050620003c1565b50620004f9600460009054906101000a9004600f0b620004e8846200085160201b620020dc1760201c565b6200089460201b620021161760201c565b600560006101000a8154816fffffffffffffffffffffffffffffffff0219169083600f0b6fffffffffffffffffffffffffffffffff160217905550866007819055508560088190555060007f61606860eb6c87306811e2695215385101daab53bd6ab4e9f9049aead9363c7d866040518080602001828103825283818151815260200191508051906020019080838360005b83811015620005a85780820151818401526020810190506200058b565b50505050905090810190601f168015620005d65780820380516001836020036101000a031916815260200191505b509250505060405180910390a288600e60006101000a81548173ffffffffffffffffffffffffffffffffffffffff021916908373ffffffffffffffffffffffffffffffffffffffff160217905550600e60009054906101000a900473ffffffffffffffffffffffffffffffffffffffff1673ffffffffffffffffffffffffffffffffffffffff1663d96ee7548c60603073ffffffffffffffffffffffffffffffffffffffff16901b60001b8b6040518463ffffffff1660e01b8152600401808473ffffffffffffffffffffffffffffffffffffffff1673ffffffffffffffffffffffffffffffffffffffff1681526020018381526020018281526020019350505050600060405180830381600087803b158015620006f357600080fd5b505af115801562000708573d6000803e3d6000fd5b50505050600e60009054906101000a900473ffffffffffffffffffffffffffffffffffffffff1673ffffffffffffffffffffffffffffffffffffffff1663852c6ae28c60603073ffffffffffffffffffffffffffffffffffffffff16901b60001b8b6040518463ffffffff1660e01b8152600401808473ffffffffffffffffffffffffffffffffffffffff1673ffffffffffffffffffffffffffffffffffffffff168152602001838152602001828152602001935050505060206040518083038186803b158015620007d957600080fd5b505afa158015620007ee573d6000803e3d6000fd5b505050506040513d60208110156200080557600080fd5b8101908080519060200190929190505050600f8190555050505050505050505050506200189a565b6000677fffffffffffffff8211156200084557600080fd5b604082901b9050919050565b60008082600f0b136200086357600080fd5b60806fb17217f7d1cf79abc9e3b39803f2f6af620008878462000a7560201b60201c565b600f0b02901c9050919050565b600080604083600f0b85600f0b02901d90507fffffffffffffffffffffffffffffffff80000000000000000000000000000000600f0b8112158015620008ed57506f7fffffffffffffffffffffffffffffff600f0b8113155b620008f757600080fd5b8091505092915050565b60008082600f0b14156200091457600080fd5b600082600f0b604085600f0b901b816200092a57fe5b0590507fffffffffffffffffffffffffffffffff80000000000000000000000000000000600f0b81121580156200097457506f7fffffffffffffffffffffffffffffff600f0b8113155b6200097e57600080fd5b8091505092915050565b60006840000000000000000082600f0b12620009a357600080fd5b7fffffffffffffffffffffffffffffffffffffffffffffffc0000000000000000082600f0b1215620009d9576000905062000a07565b62000a046080700171547652b82fe1777d0ffda0d23a7d1284600f0b02901d62000ba760201b60201c565b90505b919050565b60008082600f0b84600f0b0190507fffffffffffffffffffffffffffffffff80000000000000000000000000000000600f0b811215801562000a6157506f7fffffffffffffffffffffffffffffff600f0b8113155b62000a6b57600080fd5b8091505092915050565b60008082600f0b1362000a8757600080fd5b6000809050600083600f0b905068010000000000000000811262000ab357604081901d90506040820191505b640100000000811262000ace57602081901d90506020820191505b62010000811262000ae757601081901d90506010820191505b610100811262000aff57600881901d90506008820191505b6010811262000b1657600481901d90506004820191505b6004811262000b2d57600281901d90506002820191505b6002811262000b3d576001820191505b60006040808403901b9050600083607f0386600f0b901b9050600067800000000000000090505b600081131562000b9a578182029150600060ff83901c905080607f0183901c92508082028401935050600181901d905062000b64565b5081945050505050919050565b60006840000000000000000082600f0b1262000bc257600080fd5b7fffffffffffffffffffffffffffffffffffffffffffffffc0000000000000000082600f0b121562000bf85760009050620017e6565b60006f80000000000000000000000000000000905060006780000000000000008416600f0b131562000c3f57608070016a09e667f3bcc908b2fb1366ea957d3e8202901c90505b60006740000000000000008416600f0b131562000c715760807001306fe0a31b7152de8d5a46305c85edec8202901c90505b60006720000000000000008416600f0b131562000ca35760807001172b83c7d517adcdf7c8c50eb14a791f8202901c90505b60006710000000000000008416600f0b131562000cd557608070010b5586cf9890f6298b92b71842a983638202901c90505b60006708000000000000008416600f0b131562000d075760807001059b0d31585743ae7c548eb68ca417fd8202901c90505b60006704000000000000008416600f0b131562000d39576080700102c9a3e778060ee6f7caca4f7a29bde88202901c90505b60006702000000000000008416600f0b131562000d6b57608070010163da9fb33356d84a66ae336dcdfa3f8202901c90505b60006701000000000000008416600f0b131562000d9d576080700100b1afa5abcbed6129ab13ec11dc95438202901c90505b600066800000000000008416600f0b131562000dce57608070010058c86da1c09ea1ff19d294cf2f679b8202901c90505b600066400000000000008416600f0b131562000dff5760807001002c605e2e8cec506d21bfc89a23a00f8202901c90505b600066200000000000008416600f0b131562000e30576080700100162f3904051fa128bca9c55c31e5df8202901c90505b600066100000000000008416600f0b131562000e615760807001000b175effdc76ba38e31671ca9397258202901c90505b600066080000000000008416600f0b131562000e92576080700100058ba01fb9f96d6cacd4b180917c3d8202901c90505b600066040000000000008416600f0b131562000ec357608070010002c5cc37da9491d0985c348c68e7b38202901c90505b600066020000000000008416600f0b131562000ef45760807001000162e525ee054754457d59952920268202901c90505b600066010000000000008416600f0b131562000f2557608070010000b17255775c040618bf4a4ade83fc8202901c90505b6000658000000000008416600f0b131562000f555760807001000058b91b5bc9ae2eed81e9b7d4cfab8202901c90505b6000654000000000008416600f0b131562000f85576080700100002c5c89d5ec6ca4d7c8acc017b7c98202901c90505b6000652000000000008416600f0b131562000fb557608070010000162e43f4f831060e02d839a9d16d8202901c90505b6000651000000000008416600f0b131562000fe5576080700100000b1721bcfc99d9f890ea069117638202901c90505b6000650800000000008416600f0b13156200101557608070010000058b90cf1e6d97f9ca14dbcc16288202901c90505b6000650400000000008416600f0b1315620010455760807001000002c5c863b73f016468f6bac5ca2b8202901c90505b6000650200000000008416600f0b131562001075576080700100000162e430e5a18f6119e3c02282a58202901c90505b6000650100000000008416600f0b1315620010a55760807001000000b1721835514b86e6d96efd1bfe8202901c90505b60006480000000008416600f0b1315620010d4576080700100000058b90c0b48c6be5df846c5b2ef8202901c90505b60006440000000008416600f0b13156200110357608070010000002c5c8601cc6b9e94213c72737a8202901c90505b60006420000000008416600f0b1315620011325760807001000000162e42fff037df38aa2b219f068202901c90505b60006410000000008416600f0b13156200116157608070010000000b17217fba9c739aa5819f44f98202901c90505b60006408000000008416600f0b1315620011905760807001000000058b90bfcdee5acd3c1cedc8238202901c90505b60006404000000008416600f0b1315620011bf576080700100000002c5c85fe31f35a6a30da1be508202901c90505b60006402000000008416600f0b1315620011ee57608070010000000162e42ff0999ce3541b9fffcf8202901c90505b60006401000000008416600f0b13156200121d576080700100000000b17217f80f4ef5aadda455548202901c90505b600063800000008416600f0b13156200124b57608070010000000058b90bfbf8479bd5a81b51ad8202901c90505b600063400000008416600f0b1315620012795760807001000000002c5c85fdf84bd62ae30a74cc8202901c90505b600063200000008416600f0b1315620012a7576080700100000000162e42fefb2fed257559bdaa8202901c90505b600063100000008416600f0b1315620012d55760807001000000000b17217f7d5a7716bba4a9ae8202901c90505b600063080000008416600f0b131562001303576080700100000000058b90bfbe9ddbac5e109cce8202901c90505b600063040000008416600f0b13156200133157608070010000000002c5c85fdf4b15de6f17eb0d8202901c90505b600063020000008416600f0b13156200135f5760807001000000000162e42fefa494f1478fde058202901c90505b600063010000008416600f0b13156200138d57608070010000000000b17217f7d20cf927c8e94c8202901c90505b6000628000008416600f0b1315620013ba5760807001000000000058b90bfbe8f71cb4e4b33d8202901c90505b6000624000008416600f0b1315620013e7576080700100000000002c5c85fdf477b662b269458202901c90505b6000622000008416600f0b13156200141457608070010000000000162e42fefa3ae53369388c8202901c90505b6000621000008416600f0b131562001441576080700100000000000b17217f7d1d351a389d408202901c90505b6000620800008416600f0b13156200146e57608070010000000000058b90bfbe8e8b2d3d4ede8202901c90505b6000620400008416600f0b13156200149b5760807001000000000002c5c85fdf4741bea6e77e8202901c90505b6000620200008416600f0b1315620014c8576080700100000000000162e42fefa39fe95583c28202901c90505b6000620100008416600f0b1315620014f55760807001000000000000b17217f7d1cfb72b45e18202901c90505b60006180008416600f0b131562001521576080700100000000000058b90bfbe8e7cc35c3f08202901c90505b60006140008416600f0b13156200154d57608070010000000000002c5c85fdf473e242ea388202901c90505b60006120008416600f0b1315620015795760807001000000000000162e42fefa39f02b772c8202901c90505b60006110008416600f0b1315620015a557608070010000000000000b17217f7d1cf7d83c1a8202901c90505b60006108008416600f0b1315620015d15760807001000000000000058b90bfbe8e7bdcbe2e8202901c90505b60006104008416600f0b1315620015fd576080700100000000000002c5c85fdf473dea871f8202901c90505b60006102008416600f0b13156200162957608070010000000000000162e42fefa39ef44d918202901c90505b60006101008416600f0b131562001655576080700100000000000000b17217f7d1cf79e9498202901c90505b600060808416600f0b13156200168057608070010000000000000058b90bfbe8e7bce5448202901c90505b600060408416600f0b1315620016ab5760807001000000000000002c5c85fdf473de6eca8202901c90505b600060208416600f0b1315620016d6576080700100000000000000162e42fefa39ef366f8202901c90505b600060108416600f0b1315620017015760807001000000000000000b17217f7d1cf79afa8202901c90505b600060088416600f0b13156200172c576080700100000000000000058b90bfbe8e7bcd6d8202901c90505b600060048416600f0b13156200175757608070010000000000000002c5c85fdf473de6b28202901c90505b600060028416600f0b1315620017825760807001000000000000000162e42fefa39ef3588202901c90505b600060018416600f0b1315620017ad57608070010000000000000000b17217f7d1cf79ab8202901c90505b604083600f0b901d603f03600f0b81901c90506f7fffffffffffffffffffffffffffffff600f0b811115620017e157600080fd5b809150505b919050565b828054600181600116156101000203166002900490600052602060002090601f016020900481019282601f106200182e57805160ff19168380011785556200185f565b828001600101855582156200185f579182015b828111156200185e57825182559160200191906001019062001841565b5b5090506200186e919062001872565b5090565b6200189791905b808211156200189357600081600090555060010162001879565b5090565b90565b61316480620018aa6000396000f3fe6080604052600436106101355760003560e01c80638ae041d1116100ab578063b77641ad1161006f578063b77641ad14610578578063b9f9b37d14610582578063bfa0af6d146105e4578063bfc3d84b14610659578063d23890e9146106b0578063df7bd8fc1461070257610135565b80638ae041d1146103d75780638c8e8db7146104265780638d52764814610488578063a85adeab14610522578063b2d057111461054d57610135565b80633a98ef39116100fd5780633a98ef3914610269578063416e517e1461029a5780634ea12b62146102d55780634f09d6b51461032a5780635a920320146103555780637e7e4b47146103ac57610135565b806313faede61461013a578063144447721461016b578063200d2ed214610196578063206c1169146101cf578063311a6c5614610224575b600080fd5b34801561014657600080fd5b5061014f61075e565b6040518082600f0b600f0b815260200191505060405180910390f35b34801561017757600080fd5b50610180610801565b6040518082815260200191505060405180910390f35b3480156101a257600080fd5b506101ab610807565b604051808260048111156101bb57fe5b60ff16815260200191505060405180910390f35b3480156101db57600080fd5b50610208600480360360208110156101f257600080fd5b810190808035906020019092919050505061081a565b6040518082600f0b600f0b815260200191505060405180910390f35b34801561023057600080fd5b506102676004803603604081101561024757600080fd5b810190808035906020019092919080359060200190929190505050610853565b005b34801561027557600080fd5b5061027e610aa0565b6040518082600f0b600f0b815260200191505060405180910390f35b3480156102a657600080fd5b506102d3600480360360208110156102bd57600080fd5b8101908080359060200190929190505050610ab7565b005b3480156102e157600080fd5b5061030e600480360360208110156102f857600080fd5b8101908080359060200190929190505050610e0c565b6040518082600f0b600f0b815260200191505060405180910390f35b34801561033657600080fd5b5061033f610e1e565b6040518082815260200191505060405180910390f35b34801561036157600080fd5b5061036a610e24565b604051808273ffffffffffffffffffffffffffffffffffffffff1673ffffffffffffffffffffffffffffffffffffffff16815260200191505060405180910390f35b3480156103b857600080fd5b506103c1610e4a565b6040518082815260200191505060405180910390f35b3480156103e357600080fd5b50610410600480360360208110156103fa57600080fd5b8101908080359060200190929190505050610e54565b6040518082815260200191505060405180910390f35b34801561043257600080fd5b5061046c6004803603604081101561044957600080fd5b81019080803590602001909291908035600f0b9060200190929190505050610e62565b6040518082600f0b600f0b815260200191505060405180910390f35b34801561049457600080fd5b506104cb600480360360408110156104ab57600080fd5b810190808035906020019092919080359060200190929190505050611947565b6040518080602001828103825283818151815260200191508051906020019060200280838360005b8381101561050e5780820151818401526020810190506104f3565b505050509050019250505060405180910390f35b34801561052e57600080fd5b506105376119db565b6040518082815260200191505060405180910390f35b34801561055957600080fd5b506105626119e1565b6040518082815260200191505060405180910390f35b6105806119e7565b005b34801561058e57600080fd5b506105c8600480360360408110156105a557600080fd5b81019080803590602001909291908035600f0b9060200190929190505050611e38565b6040518082600f0b600f0b815260200191505060405180910390f35b3480156105f057600080fd5b5061063d6004803603604081101561060757600080fd5b8101908080359060200190929190803573ffffffffffffffffffffffffffffffffffffffff169060200190929190505050611fe5565b6040518082600f0b600f0b815260200191505060405180910390f35b34801561066557600080fd5b5061066e61204d565b604051808273ffffffffffffffffffffffffffffffffffffffff1673ffffffffffffffffffffffffffffffffffffffff16815260200191505060405180910390f35b3480156106bc57600080fd5b506106ec600480360360208110156106d357600080fd5b810190808035600f0b9060200190929190505050612073565b6040518082815260200191505060405180910390f35b34801561070e57600080fd5b506107486004803603604081101561072557600080fd5b81019080803590602001909291908035600f0b9060200190929190505050612089565b6040518082815260200191505060405180910390f35b60008060008090505b6000548110156107d9576107ca826107c56107c06002858154811061078857fe5b90600052602060002090600291828204019190066010029054906101000a9004600f0b600460009054906101000a9004600f0b612181565b612204565b61227d565b91508080600101915050610767565b506107fb600460009054906101000a9004600f0b6107f6836120dc565b612116565b91505090565b60005481565b601060009054906101000a900460ff1681565b60006002828154811061082957fe5b90600052602060002090600291828204019190066010029054906101000a9004600f0b9050919050565b600d60009054906101000a900473ffffffffffffffffffffffffffffffffffffffff1673ffffffffffffffffffffffffffffffffffffffff163373ffffffffffffffffffffffffffffffffffffffff1614610916576040517f08c379a000000000000000000000000000000000000000000000000000000000815260040180806020018281038252600f8152602001807f4a55534520555345204b4c45524f53000000000000000000000000000000000081525060200191505060405180910390fd5b600954821461098d576040517f08c379a000000000000000000000000000000000000000000000000000000000815260040180806020018281038252600d8152602001807f57524f4e4720444953505554450000000000000000000000000000000000000081525060200191505060405180910390fd5b60015481141561099c57610a07565b80600181905550600b60009054906101000a900473ffffffffffffffffffffffffffffffffffffffff16600a60006101000a81548173ffffffffffffffffffffffffffffffffffffffff021916908373ffffffffffffffffffffffffffffffffffffffff1602179055505b6004601060006101000a81548160ff02191690836004811115610a2657fe5b021790555081600d60009054906101000a900473ffffffffffffffffffffffffffffffffffffffff1673ffffffffffffffffffffffffffffffffffffffff167f394027a5fa6e098a1191094d1719d6929b9abc535fcc0c8f448d6a4e75622276836040518082815260200191505060405180910390a35050565b6000600560109054906101000a9004600f0b905090565b60036004811115610ac457fe5b601060009054906101000a900460ff166004811115610adf57fe5b1415610b53576040517f08c379a00000000000000000000000000000000000000000000000000000000081526004018080602001828103825260178152602001807f4445434953494f4e20474f4e4520544f204b4c45524f5300000000000000000081525060200191505060405180910390fd5b600a60009054906101000a900473ffffffffffffffffffffffffffffffffffffffff1673ffffffffffffffffffffffffffffffffffffffff163373ffffffffffffffffffffffffffffffffffffffff1614610c16576040517f08c379a00000000000000000000000000000000000000000000000000000000081526004018080602001828103825260148152602001807f4f4e4c59204d41535445522043414e2043414c4c00000000000000000000000081525060200191505060405180910390fd5b6008544211610c8d576040517f08c379a000000000000000000000000000000000000000000000000000000000815260040180806020018281038252601b8152602001807f544f4f204541524c5920544f20444543494445204f5554434f4d45000000000081525060200191505060405180910390fd5b60006004811115610c9a57fe5b601060009054906101000a900460ff166004811115610cb557fe5b1480610ce6575060016004811115610cc957fe5b601060009054906101000a900460ff166004811115610ce457fe5b145b610d58576040517f08c379a000000000000000000000000000000000000000000000000000000000815260040180806020018281038252600d8152602001807f494e56414c49442053544154450000000000000000000000000000000000000081525060200191505060405180910390fd5b6001600054018110610dd2576040517f08c379a00000000000000000000000000000000000000000000000000000000081526004018080602001828103825260118152602001807f494e56414c4944204f5554434f4d45212100000000000000000000000000000081525060200191505060405180910390fd5b806001819055506002601060006101000a81548160ff02191690836004811115610df857fe5b021790555062015180420160068190555050565b6000610e17826120b9565b9050919050565b60065481565b600d60009054906101000a900473ffffffffffffffffffffffffffffffffffffffff1681565b6000600154905090565b6000816001901b9050919050565b6000806004811115610e7057fe5b601060009054906101000a900460ff166004811115610e8b57fe5b14610efe576040517f08c379a000000000000000000000000000000000000000000000000000000000815260040180806020018281038252600c8152602001807f4e6f206d6f72652062657473000000000000000000000000000000000000000081525060200191505060405180910390fd5b600560109054906101000a9004600f0b600f0b82600f0b12610f88576040517f08c379a00000000000000000000000000000000000000000000000000000000081526004018080602001828103825260178152602001807f427579696e6720746f6f206d616e79207368617265732100000000000000000081525060200191505060405180910390fd5b600754421115610fbb576001601060006101000a81548160ff02191690836004811115610fb157fe5b0217905550611941565b600080610fd7600560109054906101000a9004600f0b8561227d565b600560106101000a8154816fffffffffffffffffffffffffffffffff0219169083600f0b6fffffffffffffffffffffffffffffffff16021790555061103a600560109054906101000a9004600f0b600460109054906101000a9004600f0b612116565b600460006101000a8154816fffffffffffffffffffffffffffffffff0219169083600f0b6fffffffffffffffffffffffffffffffff1602179055506110ae6002868154811061108557fe5b90600052602060002090600291828204019190066010029054906101000a9004600f0b8561227d565b600286815481106110bb57fe5b90600052602060002090600291828204019190066010026101000a8154816fffffffffffffffffffffffffffffffff0219169083600f0b6fffffffffffffffffffffffffffffffff1602179055506111706003600087815260200190815260200160002060003373ffffffffffffffffffffffffffffffffffffffff1673ffffffffffffffffffffffffffffffffffffffff16815260200190815260200160002060009054906101000a9004600f0b8561227d565b6003600087815260200190815260200160002060003373ffffffffffffffffffffffffffffffffffffffff1673ffffffffffffffffffffffffffffffffffffffff16815260200190815260200160002060006101000a8154816fffffffffffffffffffffffffffffffff0219169083600f0b6fffffffffffffffffffffffffffffffff16021790555060008090505b600054811015611271576112628261125d6112586002858154811061122057fe5b90600052602060002090600291828204019190066010029054906101000a9004600f0b600460009054906101000a9004600f0b612181565b612204565b61227d565b915080806001019150506111ff565b50611293600460009054906101000a9004600f0b61128e836120dc565b612116565b91506112ae82600560009054906101000a9004600f0b6122e4565b925060006112c484670de0b6b3a764000061234b565b905060006112da86670de0b6b3a764000061234b565b9050600c60009054906101000a900473ffffffffffffffffffffffffffffffffffffffff1673ffffffffffffffffffffffffffffffffffffffff1663a9059cbb30846040518363ffffffff1660e01b8152600401808373ffffffffffffffffffffffffffffffffffffffff1673ffffffffffffffffffffffffffffffffffffffff16815260200182815260200192505050602060405180830381600087803b15801561138557600080fd5b505af1158015611399573d6000803e3d6000fd5b505050506040513d60208110156113af57600080fd5b81019080805190602001909291905050506113c957600080fd5b600c60009054906101000a900473ffffffffffffffffffffffffffffffffffffffff1673ffffffffffffffffffffffffffffffffffffffff1663095ea7b3600e60009054906101000a900473ffffffffffffffffffffffffffffffffffffffff16836040518363ffffffff1660e01b8152600401808373ffffffffffffffffffffffffffffffffffffffff1673ffffffffffffffffffffffffffffffffffffffff16815260200182815260200192505050602060405180830381600087803b15801561149457600080fd5b505af11580156114a8573d6000803e3d6000fd5b505050506040513d60208110156114be57600080fd5b810190808051906020019092919050505050600e60009054906101000a900473ffffffffffffffffffffffffffffffffffffffff1673ffffffffffffffffffffffffffffffffffffffff166372ce4275600c60009054906101000a900473ffffffffffffffffffffffffffffffffffffffff166000801b600f546115488c6001901b600054611947565b866040518663ffffffff1660e01b8152600401808673ffffffffffffffffffffffffffffffffffffffff1673ffffffffffffffffffffffffffffffffffffffff16815260200185815260200184815260200180602001838152602001828103825284818151815260200191508051906020019060200280838360005b838110156115df5780820151818401526020810190506115c4565b505050509050019650505050505050600060405180830381600087803b15801561160857600080fd5b505af115801561161c573d6000803e3d6000fd5b505050506000600e60009054906101000a900473ffffffffffffffffffffffffffffffffffffffff1673ffffffffffffffffffffffffffffffffffffffff166339dd7530600c60009054906101000a900473ffffffffffffffffffffffffffffffffffffffff16600e60009054906101000a900473ffffffffffffffffffffffffffffffffffffffff1673ffffffffffffffffffffffffffffffffffffffff1663856296f76000801b600f548e6001901b6040518463ffffffff1660e01b815260040180848152602001838152602001828152602001935050505060206040518083038186803b15801561170f57600080fd5b505afa158015611723573d6000803e3d6000fd5b505050506040513d602081101561173957600080fd5b81019080805190602001909291905050506040518363ffffffff1660e01b8152600401808373ffffffffffffffffffffffffffffffffffffffff1673ffffffffffffffffffffffffffffffffffffffff1681526020018281526020019250505060206040518083038186803b1580156117b157600080fd5b505afa1580156117c5573d6000803e3d6000fd5b505050506040513d60208110156117db57600080fd5b81019080805190602001909291905050509050600e60009054906101000a900473ffffffffffffffffffffffffffffffffffffffff1673ffffffffffffffffffffffffffffffffffffffff1663f242432a303384866040518563ffffffff1660e01b8152600401808573ffffffffffffffffffffffffffffffffffffffff1673ffffffffffffffffffffffffffffffffffffffff1681526020018473ffffffffffffffffffffffffffffffffffffffff1673ffffffffffffffffffffffffffffffffffffffff1681526020018381526020018281526020018060200182810382526000815260200160200195505050505050600060405180830381600087803b1580156118e757600080fd5b505af11580156118fb573d6000803e3d6000fd5b5050505084600560006101000a8154816fffffffffffffffffffffffffffffffff0219169083600f0b6fffffffffffffffffffffffffffffffff16021790555050505050505b92915050565b606080600267ffffffffffffffff8111801561196257600080fd5b506040519080825280602002602001820160405280156119915781602001602082028036833780820191505090505b50905083816000815181106119a257fe5b602002602001018181525050836001846001901b0303816001815181106119c557fe5b6020026020010181815250508091505092915050565b60075481565b60085481565b600360048111156119f457fe5b601060009054906101000a900460ff166004811115611a0f57fe5b1415611a83576040517f08c379a00000000000000000000000000000000000000000000000000000000081526004018080602001828103825260108152602001807f416c72656164792064697370757465640000000000000000000000000000000081525060200191505060405180910390fd5b60026004811115611a9057fe5b601060009054906101000a900460ff166004811115611aab57fe5b148015611ab9575060065442105b80611afb575060016004811115611acc57fe5b601060009054906101000a900460ff166004811115611ae757fe5b148015611afa5750620151806008540142105b5b80611b4a575060006004811115611b0e57fe5b601060009054906101000a900460ff166004811115611b2957fe5b148015611b37575060075442115b8015611b495750620151806008540142115b5b611bbc576040517f08c379a000000000000000000000000000000000000000000000000000000000815260040180806020018281038252600d8152602001807f43414e275420444953505554450000000000000000000000000000000000000081525060200191505060405180910390fd5b33600b60006101000a81548173ffffffffffffffffffffffffffffffffffffffff021916908373ffffffffffffffffffffffffffffffffffffffff1602179055506003601060006101000a81548160ff02191690836004811115611c1c57fe5b02179055506000600d60009054906101000a900473ffffffffffffffffffffffffffffffffffffffff1673ffffffffffffffffffffffffffffffffffffffff1663f7434ea96040518163ffffffff1660e01b8152600401808060200182810382526000815260200160200191505060206040518083038186803b158015611ca257600080fd5b505afa158015611cb6573d6000803e3d6000fd5b505050506040513d6020811015611ccc57600080fd5b8101908080519060200190929190505050905080341015611cec57600080fd5b600d60009054906101000a900473ffffffffffffffffffffffffffffffffffffffff1673ffffffffffffffffffffffffffffffffffffffff1663c13517e1826000546040518363ffffffff1660e01b81526004018082815260200180602001828103825260008152602001602001925050506020604051808303818588803b158015611d7757600080fd5b505af1158015611d8b573d6000803e3d6000fd5b50505050506040513d6020811015611da257600080fd5b8101908080519060200190929190505050600981905550600954600d60009054906101000a900473ffffffffffffffffffffffffffffffffffffffff1673ffffffffffffffffffffffffffffffffffffffff167f74baab670a4015ab2f1b467c5252a96141a2573f2908e58a92081e80d3cfde3d600080604051808381526020018281526020019250505060405180910390a350565b6000806000611e6e611e59600560109054906101000a9004600f0b8661227d565b600460109054906101000a9004600f0b612116565b9050606060028054905067ffffffffffffffff81118015611e8e57600080fd5b50604051908082528060200260200182016040528015611ebd5781602001602082028036833780820191505090505b50905060008090505b600054811015611f795760028181548110611edd57fe5b90600052602060002090600291828204019190066010029054906101000a9004600f0b828281518110611f0c57fe5b6020026020010190600f0b9081600f0b815250506000816001901b881614611f6c57611f4b828281518110611f3d57fe5b60200260200101518761227d565b828281518110611f5757fe5b6020026020010190600f0b9081600f0b815250505b8080600101915050611ec6565b5060008090505b600054811015611fc757611fb884611fb3611fae858581518110611fa057fe5b602002602001015187612181565b612204565b61227d565b93508080600101915050611f80565b50611fda82611fd5856120dc565b612116565b935050505092915050565b60006003600084815260200190815260200160002060008373ffffffffffffffffffffffffffffffffffffffff1673ffffffffffffffffffffffffffffffffffffffff16815260200190815260200160002060009054906101000a9004600f0b905092915050565b600e60009054906101000a900473ffffffffffffffffffffffffffffffffffffffff1681565b600061208282620f424061234b565b9050919050565b60006120b16120a861209b8585611e38565b6120a361075e565b6122e4565b620f424061234b565b905092915050565b6000677fffffffffffffff8211156120d057600080fd5b604082901b9050919050565b60008082600f0b136120ed57600080fd5b60806fb17217f7d1cf79abc9e3b39803f2f6af61210984612406565b600f0b02901c9050919050565b600080604083600f0b85600f0b02901d90507fffffffffffffffffffffffffffffffff80000000000000000000000000000000600f0b811215801561216e57506f7fffffffffffffffffffffffffffffff600f0b8113155b61217757600080fd5b8091505092915050565b60008082600f0b141561219357600080fd5b600082600f0b604085600f0b901b816121a857fe5b0590507fffffffffffffffffffffffffffffffff80000000000000000000000000000000600f0b81121580156121f157506f7fffffffffffffffffffffffffffffff600f0b8113155b6121fa57600080fd5b8091505092915050565b60006840000000000000000082600f0b1261221e57600080fd5b7fffffffffffffffffffffffffffffffffffffffffffffffc0000000000000000082600f0b12156122525760009050612278565b6122756080700171547652b82fe1777d0ffda0d23a7d1284600f0b02901d61252e565b90505b919050565b60008082600f0b84600f0b0190507fffffffffffffffffffffffffffffffff80000000000000000000000000000000600f0b81121580156122d157506f7fffffffffffffffffffffffffffffff600f0b8113155b6122da57600080fd5b8091505092915050565b60008082600f0b84600f0b0390507fffffffffffffffffffffffffffffffff80000000000000000000000000000000600f0b811215801561233857506f7fffffffffffffffffffffffffffffff600f0b8113155b61234157600080fd5b8091505092915050565b60008082141561235e5760009050612400565b600083600f0b121561236f57600080fd5b600060406fffffffffffffffffffffffffffffffff841685600f0b02901c90506000608084901c85600f0b02905077ffffffffffffffffffffffffffffffffffffffffffffffff8111156123c257600080fd5b604081901b9050817fffffffffffffffffffffffffffffffffffffffffffffffffffffffffffffffff038111156123f857600080fd5b818101925050505b92915050565b60008082600f0b1361241757600080fd5b6000809050600083600f0b905068010000000000000000811261244257604081901d90506040820191505b640100000000811261245c57602081901d90506020820191505b62010000811261247457601081901d90506010820191505b610100811261248b57600881901d90506008820191505b601081126124a157600481901d90506004820191505b600481126124b757600281901d90506002820191505b600281126124c6576001820191505b60006040808403901b9050600083607f0386600f0b901b9050600067800000000000000090505b6000811315612521578182029150600060ff83901c905080607f0183901c92508082028401935050600181901d90506124ed565b5081945050505050919050565b60006840000000000000000082600f0b1261254857600080fd5b7fffffffffffffffffffffffffffffffffffffffffffffffc0000000000000000082600f0b121561257c5760009050613129565b60006f80000000000000000000000000000000905060006780000000000000008416600f0b13156125c257608070016a09e667f3bcc908b2fb1366ea957d3e8202901c90505b60006740000000000000008416600f0b13156125f35760807001306fe0a31b7152de8d5a46305c85edec8202901c90505b60006720000000000000008416600f0b13156126245760807001172b83c7d517adcdf7c8c50eb14a791f8202901c90505b60006710000000000000008416600f0b131561265557608070010b5586cf9890f6298b92b71842a983638202901c90505b60006708000000000000008416600f0b13156126865760807001059b0d31585743ae7c548eb68ca417fd8202901c90505b60006704000000000000008416600f0b13156126b7576080700102c9a3e778060ee6f7caca4f7a29bde88202901c90505b60006702000000000000008416600f0b13156126e857608070010163da9fb33356d84a66ae336dcdfa3f8202901c90505b60006701000000000000008416600f0b1315612719576080700100b1afa5abcbed6129ab13ec11dc95438202901c90505b600066800000000000008416600f0b131561274957608070010058c86da1c09ea1ff19d294cf2f679b8202901c90505b600066400000000000008416600f0b13156127795760807001002c605e2e8cec506d21bfc89a23a00f8202901c90505b600066200000000000008416600f0b13156127a9576080700100162f3904051fa128bca9c55c31e5df8202901c90505b600066100000000000008416600f0b13156127d95760807001000b175effdc76ba38e31671ca9397258202901c90505b600066080000000000008416600f0b1315612809576080700100058ba01fb9f96d6cacd4b180917c3d8202901c90505b600066040000000000008416600f0b131561283957608070010002c5cc37da9491d0985c348c68e7b38202901c90505b600066020000000000008416600f0b13156128695760807001000162e525ee054754457d59952920268202901c90505b600066010000000000008416600f0b131561289957608070010000b17255775c040618bf4a4ade83fc8202901c90505b6000658000000000008416600f0b13156128c85760807001000058b91b5bc9ae2eed81e9b7d4cfab8202901c90505b6000654000000000008416600f0b13156128f7576080700100002c5c89d5ec6ca4d7c8acc017b7c98202901c90505b6000652000000000008416600f0b131561292657608070010000162e43f4f831060e02d839a9d16d8202901c90505b6000651000000000008416600f0b1315612955576080700100000b1721bcfc99d9f890ea069117638202901c90505b6000650800000000008416600f0b131561298457608070010000058b90cf1e6d97f9ca14dbcc16288202901c90505b6000650400000000008416600f0b13156129b35760807001000002c5c863b73f016468f6bac5ca2b8202901c90505b6000650200000000008416600f0b13156129e2576080700100000162e430e5a18f6119e3c02282a58202901c90505b6000650100000000008416600f0b1315612a115760807001000000b1721835514b86e6d96efd1bfe8202901c90505b60006480000000008416600f0b1315612a3f576080700100000058b90c0b48c6be5df846c5b2ef8202901c90505b60006440000000008416600f0b1315612a6d57608070010000002c5c8601cc6b9e94213c72737a8202901c90505b60006420000000008416600f0b1315612a9b5760807001000000162e42fff037df38aa2b219f068202901c90505b60006410000000008416600f0b1315612ac957608070010000000b17217fba9c739aa5819f44f98202901c90505b60006408000000008416600f0b1315612af75760807001000000058b90bfcdee5acd3c1cedc8238202901c90505b60006404000000008416600f0b1315612b25576080700100000002c5c85fe31f35a6a30da1be508202901c90505b60006402000000008416600f0b1315612b5357608070010000000162e42ff0999ce3541b9fffcf8202901c90505b60006401000000008416600f0b1315612b81576080700100000000b17217f80f4ef5aadda455548202901c90505b600063800000008416600f0b1315612bae57608070010000000058b90bfbf8479bd5a81b51ad8202901c90505b600063400000008416600f0b1315612bdb5760807001000000002c5c85fdf84bd62ae30a74cc8202901c90505b600063200000008416600f0b1315612c08576080700100000000162e42fefb2fed257559bdaa8202901c90505b600063100000008416600f0b1315612c355760807001000000000b17217f7d5a7716bba4a9ae8202901c90505b600063080000008416600f0b1315612c62576080700100000000058b90bfbe9ddbac5e109cce8202901c90505b600063040000008416600f0b1315612c8f57608070010000000002c5c85fdf4b15de6f17eb0d8202901c90505b600063020000008416600f0b1315612cbc5760807001000000000162e42fefa494f1478fde058202901c90505b600063010000008416600f0b1315612ce957608070010000000000b17217f7d20cf927c8e94c8202901c90505b6000628000008416600f0b1315612d155760807001000000000058b90bfbe8f71cb4e4b33d8202901c90505b6000624000008416600f0b1315612d41576080700100000000002c5c85fdf477b662b269458202901c90505b6000622000008416600f0b1315612d6d57608070010000000000162e42fefa3ae53369388c8202901c90505b6000621000008416600f0b1315612d99576080700100000000000b17217f7d1d351a389d408202901c90505b6000620800008416600f0b1315612dc557608070010000000000058b90bfbe8e8b2d3d4ede8202901c90505b6000620400008416600f0b1315612df15760807001000000000002c5c85fdf4741bea6e77e8202901c90505b6000620200008416600f0b1315612e1d576080700100000000000162e42fefa39fe95583c28202901c90505b6000620100008416600f0b1315612e495760807001000000000000b17217f7d1cfb72b45e18202901c90505b60006180008416600f0b1315612e74576080700100000000000058b90bfbe8e7cc35c3f08202901c90505b60006140008416600f0b1315612e9f57608070010000000000002c5c85fdf473e242ea388202901c90505b60006120008416600f0b1315612eca5760807001000000000000162e42fefa39f02b772c8202901c90505b60006110008416600f0b1315612ef557608070010000000000000b17217f7d1cf7d83c1a8202901c90505b60006108008416600f0b1315612f205760807001000000000000058b90bfbe8e7bdcbe2e8202901c90505b60006104008416600f0b1315612f4b576080700100000000000002c5c85fdf473dea871f8202901c90505b60006102008416600f0b1315612f7657608070010000000000000162e42fefa39ef44d918202901c90505b60006101008416600f0b1315612fa1576080700100000000000000b17217f7d1cf79e9498202901c90505b600060808416600f0b1315612fcb57608070010000000000000058b90bfbe8e7bce5448202901c90505b600060408416600f0b1315612ff55760807001000000000000002c5c85fdf473de6eca8202901c90505b600060208416600f0b131561301f576080700100000000000000162e42fefa39ef366f8202901c90505b600060108416600f0b13156130495760807001000000000000000b17217f7d1cf79afa8202901c90505b600060088416600f0b1315613073576080700100000000000000058b90bfbe8e7bcd6d8202901c90505b600060048416600f0b131561309d57608070010000000000000002c5c85fdf473de6b28202901c90505b600060028416600f0b13156130c75760807001000000000000000162e42fefa39ef3588202901c90505b600060018416600f0b13156130f157608070010000000000000000b17217f7d1cf79ab8202901c90505b604083600f0b901d603f03600f0b81901c90506f7fffffffffffffffffffffffffffffff600f0b81111561312457600080fd5b809150505b91905056fea2646970667358221220999c7c57909c8ce941ca0bebc62eff72d201209acc146ca4b5cae10c8da1a29564736f6c63430006080033a2646970667358221220f973928db1e79e842ad8dfc8e0d03a4ad4233c2f9ec7d4d95577d38ef2c4fa8264736f6c63430006080033",
  "immutableReferences": {},
  "source": "pragma solidity ^0.6.0;\r\n\r\nimport \"./interfaces/IArbitrable.sol\";\r\nimport \"./interfaces/IArbitrator.sol\";\r\nimport \"./interfaces/IEvidence.sol\";\r\nimport { ABDKMath } from \"./ABDKMath64x64.sol\";\r\nimport \"./ConditionalTokens.sol\";\r\n\r\ncontract SCFactory {\r\n\r\n    mapping(uint256 => SCMMaker) public market;\r\n    uint256 public markets;\r\n    address private currency;\r\n    address private conditionaltokens;\r\n\r\n    event MarketCreated(SCMMaker _market);\r\n\r\n    constructor(address _curr, address _ctf) public {\r\n      currency = _curr;\r\n      conditionaltokens = _ctf;\r\n    }\r\n\r\n    function createMarket(uint _numOptions, uint256 endTime, uint256 resultTime, string memory hash) public {\r\n        market[markets] = new SCMMaker(msg.sender, currency, conditionaltokens, _numOptions,endTime, resultTime, hash);\r\n        emit MarketCreated(market[markets]);\r\n        markets++;\r\n    }\r\n\r\n    function getNumberOfMarkets() public view returns (uint256) {\r\n        return markets;\r\n    }\r\n\r\n    function getMarket(uint256 _id) public view returns (SCMMaker) {\r\n        return market[_id];\r\n    }\r\n\r\n}\r\n\r\ncontract SCMMaker is IArbitrable, IEvidence{\r\n\r\n    uint public numOfOutcomes; //How many different options can you bet on\r\n    uint private outcome; //the resolved outcome\r\n\r\n    int128[] private q; //How many outstanding shares for each option?\r\n    mapping(uint => mapping(address => int128)) private balances; // How many shares does a user own?\r\n\r\n    int128 private b; //The total outstanding balance (equivalent to sum of all q) multiplied by ALPHA\r\n    int128 private alpha; //This is a constant, decided at runtime that determines the sensitivity to liquidity\r\n    int128 private current_cost; //Running total of the cost function, to prevent you from calculating multiple exp\r\n    int128 private total_balance; //sum of all q ()\r\n\r\n    uint256 public appealTimestamp;\r\n    uint256 public endTimestamp;\r\n    uint256 public resultTimestamp;\r\n    uint256 private dispute_id;\r\n\r\n    uint256 private constant DISPUTE_TIME = 1 days;\r\n\r\n    address private game_master;\r\n    address private disputer;\r\n    address private currency;\r\n    IArbitrator public kleros = IArbitrator(0xaededC9A349B19508cdAeD4C6F8CF244413260E7);\r\n    ConditionalTokens public CT;\r\n\r\n    bytes32 private condition;\r\n\r\n    enum Status { BettingOpen, NoMoreBets, Appealable, Disputed, Resolved }\r\n    Status public status;\r\n    string private ipfsHash = '';\r\n\r\n    /**\r\n     * constructor function\r\n     * param _numOptions: How many different outcomes can you bet on? (please ignore option zero here)\r\n     * alpha is calculated as a constant that is used later on\r\n     * need to add endtime, result time, and ipfs hash\r\n     **/\r\n    constructor(address _owner, address _currency, address _ct, uint _numOptions, uint256 endTime, uint256 resultTime, string memory hash) public {\r\n        numOfOutcomes = _numOptions;\r\n        currency = _currency;\r\n        int128 IL = ABDKMath.fromUInt(100); //this will be dai.balanceOf\r\n        int128 n = ABDKMath.fromUInt(_numOptions);\r\n        alpha = ABDKMath.div(1,ABDKMath.mul(10,ABDKMath.mul(n,ABDKMath.ln(n))));\r\n        b = ABDKMath.mul(ABDKMath.mul(IL,n),alpha);\r\n        int128 sumtotal;\r\n        int128 eqb = ABDKMath.exp(ABDKMath.div(IL,b));\r\n        game_master = _owner;\r\n        for(uint i=0;i<numOfOutcomes;i++) {\r\n            q.push(IL);\r\n            sumtotal = ABDKMath.add(sumtotal,eqb);\r\n            total_balance = ABDKMath.add(total_balance,IL);\r\n        }\r\n        current_cost = ABDKMath.mul(b,ABDKMath.ln(sumtotal));\r\n        endTimestamp = endTime;\r\n        resultTimestamp = resultTime;\r\n        emit MetaEvidence(0,hash);\r\n        CT = ConditionalTokens(_ct);\r\n        CT.prepareCondition(_owner,bytes32(uint256(address(this)) << 96),_numOptions);\r\n        condition = CT.getConditionId(_owner,bytes32(uint256(address(this)) << 96),_numOptions);\r\n    }\r\n    //The function is now initialised with liquidity split across all outcomes\r\n\r\n    /*\r\n      AMM functions\r\n    */\r\n\r\n    function cost() public view returns (int128) {  //Getter function, designed for the frontend\r\n        int128 sumtotal;\r\n        for(uint i=0; i<numOfOutcomes;i++) {\r\n            sumtotal = ABDKMath.add(sumtotal,ABDKMath.exp(ABDKMath.div(q[i],b)));\r\n        }\r\n        return ABDKMath.mul(b,ABDKMath.ln(sumtotal));\r\n    }\r\n\r\n    function costafterbuy(uint _outcome, int128 amount) public view returns (int128) { //Getter function, designed for front end\r\n        int128 sumtotal;\r\n        int128 _b = ABDKMath.mul(ABDKMath.add(total_balance,amount),alpha);\r\n        int128[] memory newq = new int128[](q.length);\r\n        for(uint j=0;j<numOfOutcomes;j++) {\r\n          newq[j] = q[j];\r\n          if(_outcome & (1<<j) !=0) {\r\n            newq[j] = ABDKMath.add(newq[j],amount);\r\n          }\r\n        }\r\n        for(uint i=0; i<numOfOutcomes;i++) {\r\n          sumtotal = ABDKMath.add(sumtotal,\r\n            ABDKMath.exp(\r\n              ABDKMath.div(newq[i],\r\n            _b)\r\n          ));\r\n        }\r\n        return ABDKMath.mul(_b,ABDKMath.ln(sumtotal));\r\n    }\r\n\r\n    function price(uint _outcome, int128 amount) public view returns (uint256) { // Getter function, designed for the frontend\r\n       return ABDKMath.mulu(ABDKMath.sub(costafterbuy(_outcome,amount),cost()),1000000);\r\n    }\r\n\r\n    function getIndexSet(uint _set) public pure returns (uint) {\r\n      return 1<<_set;\r\n    }\r\n\r\n    function getInversePartition(uint256 index, uint256 len) public pure returns (uint256[] memory) {\r\n    uint256[] memory partx = new uint256[](2);\r\n    partx[0] = index;\r\n    partx[1] = (1<<len)-1-index;\r\n    return partx;\r\n}\r\n\r\n    function buyshares(uint _outcome, int128 amount) public returns (int128 spot_price) {\r\n        require(status == Status.BettingOpen,'No more bets'); // There should be a check in the front-end to make sure that betting is open (also check endTimestamp), otherwise that would suck for you to spend gas\r\n        require(amount < total_balance,\"Buying too many shares!\"); //user will never get a good price for this bet, so save on some gas\r\n        if(block.timestamp > endTimestamp) { //If the user tries to place a bet but it's too late, then they can pay the gas to switch state\r\n            status = Status.NoMoreBets;\r\n        } else {\r\n            int128 new_cost;\r\n            int128 sumtotal;\r\n            total_balance = ABDKMath.add(total_balance,amount);\r\n            b = ABDKMath.mul(total_balance,alpha);\r\n            q[_outcome] = ABDKMath.add(q[_outcome],amount);\r\n            balances[_outcome][msg.sender] = ABDKMath.add(balances[_outcome][msg.sender],amount);\r\n            for(uint i=0; i<numOfOutcomes;i++) {\r\n                sumtotal = ABDKMath.add(sumtotal,\r\n                ABDKMath.exp(\r\n                    ABDKMath.div(q[i],\r\n                    b)\r\n                ));\r\n            }\r\n            new_cost = ABDKMath.mul(b,ABDKMath.ln(sumtotal));\r\n            spot_price = ABDKMath.sub(new_cost,current_cost);\r\n            uint uprice = ABDKMath.mulu(spot_price,10**18);\r\n            uint uamount = ABDKMath.mulu(amount,10**18);\r\n            require(IERC20(currency).transfer(address(this),uprice));\r\n            IERC20(currency).approve(address(CT),uamount);\r\n            CT.splitPosition(IERC20(currency),bytes32(0),condition,getInversePartition(1<<_outcome,numOfOutcomes),uamount);\r\n            uint pos = CT.getPositionId(IERC20(currency),CT.getCollectionId(bytes32(0),condition,1<<_outcome));\r\n            CT.safeTransferFrom(address(this),msg.sender,pos,uamount,'');\r\n            current_cost = new_cost;\r\n        }\r\n    }\r\n\r\n    function fu(uint256 x) public pure returns (int128) { //DEBUGGING FUNCTION - for convenience only\r\n        return ABDKMath.fromUInt(x);\r\n    }\r\n\r\n    function tu(int128 x) public pure returns (uint256) { //DEBUGGING FUNCTION - for convenience only\r\n        return ABDKMath.mulu(x,1000000);\r\n    }\r\n\r\n    function getBalanceOf(uint _outcome, address _acc) public view returns (int128) {\r\n        return balances[_outcome][_acc];\r\n    }\r\n\r\n    function outstandingShares(uint _outcome) public view returns (int128) {\r\n        return q[_outcome];\r\n    }\r\n\r\n    function totalShares() public view returns (int128) {\r\n        return total_balance;\r\n    }\r\n\r\n    /*\r\n      ORACLE FUNCTIONS\r\n    */\r\n\r\n    function setOutcome(uint _outcome) public {\r\n        require(status != Status.Disputed,\"DECISION GONE TO KLEROS\");\r\n        require(msg.sender == game_master,\"ONLY MASTER CAN CALL\");\r\n        require(block.timestamp > resultTimestamp,'TOO EARLY TO DECIDE OUTCOME');\r\n        require(status == Status.BettingOpen || status == Status.NoMoreBets,\"INVALID STATE\");\r\n        //With this implementation, the user can still set the outcome after 24h but only if nobody else has disputed\r\n        require(_outcome < numOfOutcomes+1,\"INVALID OUTCOME!!\");\r\n        outcome = _outcome;\r\n        status = Status.Appealable;\r\n        appealTimestamp = block.timestamp + DISPUTE_TIME;\r\n    }\r\n\r\n    function disputeOutcome() public payable {\r\n        require(status != Status.Disputed,\"Already disputed\");\r\n        require ( (status == Status.Appealable && block.timestamp < appealTimestamp) ||\r\n        (status == Status.NoMoreBets && block.timestamp < (resultTimestamp+DISPUTE_TIME)) ||\r\n        (status == Status.BettingOpen && block.timestamp > endTimestamp && block.timestamp>(resultTimestamp+DISPUTE_TIME)),\r\n        \"CAN'T DISPUTE\");\r\n        disputer = msg.sender;\r\n        status = Status.Disputed;\r\n        //GO TO KLEROS, DO NOT PASS GO\r\n        uint arb_cost = kleros.arbitrationCost('');\r\n        require(msg.value >= arb_cost);\r\n        dispute_id = kleros.createDispute{value: arb_cost}(numOfOutcomes,'');\r\n        emit Dispute(kleros, dispute_id, 0, 0);\r\n    }\r\n\r\n    function rule(uint _disputeID, uint _ruling) external override {\r\n        require (msg.sender == address(kleros),\"JUSE USE KLEROS\");\r\n        require (_disputeID == dispute_id,\"WRONG DISPUTE\");\r\n\r\n        if(uint(_ruling) == outcome) { //KLEROS VOTED IN FAVOUR OF THE ILP\r\n            //technically do nothing here\r\n        } else { //KLEROS CHANGED THE INITIAL OUTCOME\r\n            outcome = uint(_ruling);\r\n            game_master = disputer; //change the game master to the disputer\r\n        }\r\n        status = Status.Resolved;\r\n        emit Ruling(kleros, _disputeID, _ruling);\r\n    }\r\n\r\n    function getOutcome() public view returns (uint) {\r\n        return outcome;\r\n    }\r\n}\r\n",
  "sourcePath": "C:/Users/Abdulla/apps/CTF/contracts/SCMMaker.sol",
  "compiler": {
    "name": "solc",
    "version": "0.6.8+commit.0bbfe453.Emscripten.clang"
  },
  "schemaVersion": "3.3.0",
  "updatedAt": "2020-12-14T18:21:28.010Z",
  "networkType": "ethereum",
  "devdoc": {
    "methods": {}
  },
  "userdoc": {
    "methods": {}
  }
}