{
  "contractName": "SCMMaker",
  "abi": [
    {
      "inputs": [
        {
          "internalType": "address",
          "name": "_owner",
          "type": "address"
        },
        {
          "internalType": "address",
          "name": "_currency",
          "type": "address"
        },
        {
          "internalType": "address",
          "name": "_ct",
          "type": "address"
        },
        {
          "internalType": "uint256",
          "name": "_numOptions",
          "type": "uint256"
        },
        {
          "internalType": "uint256",
          "name": "endTime",
          "type": "uint256"
        },
        {
          "internalType": "string",
          "name": "hash",
          "type": "string"
        }
      ],
      "stateMutability": "nonpayable",
      "type": "constructor"
    },
    {
      "anonymous": false,
      "inputs": [
        {
          "indexed": true,
          "internalType": "contract IArbitrator",
          "name": "_arbitrator",
          "type": "address"
        },
        {
          "indexed": true,
          "internalType": "uint256",
          "name": "_disputeID",
          "type": "uint256"
        },
        {
          "indexed": false,
          "internalType": "uint256",
          "name": "_metaEvidenceID",
          "type": "uint256"
        },
        {
          "indexed": false,
          "internalType": "uint256",
          "name": "_evidenceGroupID",
          "type": "uint256"
        }
      ],
      "name": "Dispute",
      "type": "event"
    },
    {
      "anonymous": false,
      "inputs": [
        {
          "indexed": true,
          "internalType": "contract IArbitrator",
          "name": "_arbitrator",
          "type": "address"
        },
        {
          "indexed": true,
          "internalType": "uint256",
          "name": "_evidenceGroupID",
          "type": "uint256"
        },
        {
          "indexed": true,
          "internalType": "address",
          "name": "_party",
          "type": "address"
        },
        {
          "indexed": false,
          "internalType": "string",
          "name": "_evidence",
          "type": "string"
        }
      ],
      "name": "Evidence",
      "type": "event"
    },
    {
      "anonymous": false,
      "inputs": [
        {
          "indexed": true,
          "internalType": "uint256",
          "name": "_metaEvidenceID",
          "type": "uint256"
        },
        {
          "indexed": false,
          "internalType": "string",
          "name": "_evidence",
          "type": "string"
        }
      ],
      "name": "MetaEvidence",
      "type": "event"
    },
    {
      "anonymous": false,
      "inputs": [
        {
          "indexed": true,
          "internalType": "contract IArbitrator",
          "name": "_arbitrator",
          "type": "address"
        },
        {
          "indexed": true,
          "internalType": "uint256",
          "name": "_disputeID",
          "type": "uint256"
        },
        {
          "indexed": false,
          "internalType": "uint256",
          "name": "_ruling",
          "type": "uint256"
        }
      ],
      "name": "Ruling",
      "type": "event"
    },
    {
      "inputs": [],
      "name": "CT",
      "outputs": [
        {
          "internalType": "contract ConditionalTokens",
          "name": "",
          "type": "address"
        }
      ],
      "stateMutability": "view",
      "type": "function"
    },
    {
      "inputs": [],
      "name": "appealTimestamp",
      "outputs": [
        {
          "internalType": "uint256",
          "name": "",
          "type": "uint256"
        }
      ],
      "stateMutability": "view",
      "type": "function"
    },
    {
      "inputs": [],
      "name": "endTimestamp",
      "outputs": [
        {
          "internalType": "uint256",
          "name": "",
          "type": "uint256"
        }
      ],
      "stateMutability": "view",
      "type": "function"
    },
    {
      "inputs": [],
      "name": "kleros",
      "outputs": [
        {
          "internalType": "contract IArbitrator",
          "name": "",
          "type": "address"
        }
      ],
      "stateMutability": "view",
      "type": "function"
    },
    {
      "inputs": [],
      "name": "numOfOutcomes",
      "outputs": [
        {
          "internalType": "uint256",
          "name": "",
          "type": "uint256"
        }
      ],
      "stateMutability": "view",
      "type": "function"
    },
    {
      "inputs": [],
      "name": "resultTimestamp",
      "outputs": [
        {
          "internalType": "uint256",
          "name": "",
          "type": "uint256"
        }
      ],
      "stateMutability": "view",
      "type": "function"
    },
    {
      "inputs": [],
      "name": "status",
      "outputs": [
        {
          "internalType": "enum SCMMaker.Status",
          "name": "",
          "type": "uint8"
        }
      ],
      "stateMutability": "view",
      "type": "function"
    },
    {
      "inputs": [],
      "name": "cost",
      "outputs": [
        {
          "internalType": "int128",
          "name": "",
          "type": "int128"
        }
      ],
      "stateMutability": "view",
      "type": "function"
    },
    {
      "inputs": [
        {
          "internalType": "uint256",
          "name": "_outcome",
          "type": "uint256"
        },
        {
          "internalType": "int128",
          "name": "amount",
          "type": "int128"
        }
      ],
      "name": "costafterbuy",
      "outputs": [
        {
          "internalType": "int128",
          "name": "",
          "type": "int128"
        }
      ],
      "stateMutability": "view",
      "type": "function"
    },
    {
      "inputs": [
        {
          "internalType": "uint256",
          "name": "_outcome",
          "type": "uint256"
        },
        {
          "internalType": "int128",
          "name": "amount",
          "type": "int128"
        }
      ],
      "name": "price",
      "outputs": [
        {
          "internalType": "uint256",
          "name": "",
          "type": "uint256"
        }
      ],
      "stateMutability": "view",
      "type": "function"
    },
    {
      "inputs": [
        {
          "internalType": "uint256",
          "name": "_set",
          "type": "uint256"
        }
      ],
      "name": "getIndexSet",
      "outputs": [
        {
          "internalType": "uint256",
          "name": "",
          "type": "uint256"
        }
      ],
      "stateMutability": "pure",
      "type": "function"
    },
    {
      "inputs": [
        {
          "internalType": "uint256",
          "name": "index",
          "type": "uint256"
        },
        {
          "internalType": "uint256",
          "name": "len",
          "type": "uint256"
        }
      ],
      "name": "getInversePartition",
      "outputs": [
        {
          "internalType": "uint256[]",
          "name": "",
          "type": "uint256[]"
        }
      ],
      "stateMutability": "pure",
      "type": "function"
    },
    {
      "inputs": [
        {
          "internalType": "address",
          "name": "_user",
          "type": "address"
        },
        {
          "internalType": "uint256",
          "name": "_outcome",
          "type": "uint256"
        },
        {
          "internalType": "int128",
          "name": "amount",
          "type": "int128"
        }
      ],
      "name": "buyshares",
      "outputs": [
        {
          "internalType": "int128",
          "name": "spot_price",
          "type": "int128"
        }
      ],
      "stateMutability": "nonpayable",
      "type": "function"
    },
    {
      "inputs": [
        {
          "internalType": "uint256",
          "name": "x",
          "type": "uint256"
        }
      ],
      "name": "fu",
      "outputs": [
        {
          "internalType": "int128",
          "name": "",
          "type": "int128"
        }
      ],
      "stateMutability": "pure",
      "type": "function"
    },
    {
      "inputs": [
        {
          "internalType": "int128",
          "name": "x",
          "type": "int128"
        }
      ],
      "name": "tu",
      "outputs": [
        {
          "internalType": "uint256",
          "name": "",
          "type": "uint256"
        }
      ],
      "stateMutability": "pure",
      "type": "function"
    },
    {
      "inputs": [
        {
          "internalType": "uint256",
          "name": "_outcome",
          "type": "uint256"
        },
        {
          "internalType": "address",
          "name": "_acc",
          "type": "address"
        }
      ],
      "name": "getBalanceOf",
      "outputs": [
        {
          "internalType": "int128",
          "name": "",
          "type": "int128"
        }
      ],
      "stateMutability": "view",
      "type": "function"
    },
    {
      "inputs": [
        {
          "internalType": "uint256",
          "name": "_outcome",
          "type": "uint256"
        }
      ],
      "name": "outstandingShares",
      "outputs": [
        {
          "internalType": "int128",
          "name": "",
          "type": "int128"
        }
      ],
      "stateMutability": "view",
      "type": "function"
    },
    {
      "inputs": [],
      "name": "totalShares",
      "outputs": [
        {
          "internalType": "int128",
          "name": "",
          "type": "int128"
        }
      ],
      "stateMutability": "view",
      "type": "function"
    },
    {
      "inputs": [
        {
          "internalType": "uint256",
          "name": "_outcome",
          "type": "uint256"
        }
      ],
      "name": "setOutcome",
      "outputs": [],
      "stateMutability": "nonpayable",
      "type": "function"
    },
    {
      "inputs": [],
      "name": "disputeOutcome",
      "outputs": [],
      "stateMutability": "payable",
      "type": "function"
    },
    {
      "inputs": [
        {
          "internalType": "uint256",
          "name": "_disputeID",
          "type": "uint256"
        },
        {
          "internalType": "uint256",
          "name": "_ruling",
          "type": "uint256"
        }
      ],
      "name": "rule",
      "outputs": [],
      "stateMutability": "nonpayable",
      "type": "function"
    },
    {
      "inputs": [],
      "name": "getOutcome",
      "outputs": [
        {
          "internalType": "uint256",
          "name": "",
          "type": "uint256"
        }
      ],
      "stateMutability": "view",
      "type": "function"
    },
    {
      "inputs": [
        {
          "internalType": "address",
          "name": "operator",
          "type": "address"
        },
        {
          "internalType": "address",
          "name": "from",
          "type": "address"
        },
        {
          "internalType": "uint256",
          "name": "id",
          "type": "uint256"
        },
        {
          "internalType": "uint256",
          "name": "value",
          "type": "uint256"
        },
        {
          "internalType": "bytes",
          "name": "data",
          "type": "bytes"
        }
      ],
      "name": "onERC1155Received",
      "outputs": [
        {
          "internalType": "bytes4",
          "name": "",
          "type": "bytes4"
        }
      ],
      "stateMutability": "nonpayable",
      "type": "function"
    },
    {
      "inputs": [
        {
          "internalType": "address",
          "name": "operator",
          "type": "address"
        },
        {
          "internalType": "address",
          "name": "from",
          "type": "address"
        },
        {
          "internalType": "uint256[]",
          "name": "ids",
          "type": "uint256[]"
        },
        {
          "internalType": "uint256[]",
          "name": "values",
          "type": "uint256[]"
        },
        {
          "internalType": "bytes",
          "name": "data",
          "type": "bytes"
        }
      ],
      "name": "onERC1155BatchReceived",
      "outputs": [
        {
          "internalType": "bytes4",
          "name": "",
          "type": "bytes4"
        }
      ],
      "stateMutability": "nonpayable",
      "type": "function"
    },
    {
      "inputs": [
        {
          "internalType": "bytes4",
          "name": "interfaceId",
          "type": "bytes4"
        }
      ],
      "name": "supportsInterface",
      "outputs": [
        {
          "internalType": "bool",
          "name": "",
          "type": "bool"
        }
      ],
      "stateMutability": "view",
      "type": "function"
    }
  ],
  "bytecode": "0x608060405273aededc9a349b19508cdaed4c6f8cf244413260e7600d60006101000a81548173ffffffffffffffffffffffffffffffffffffffff021916908373ffffffffffffffffffffffffffffffffffffffff160217905550604051806020016040528060008152506011908051906020019062000080929190620017e0565b503480156200008e57600080fd5b5060405162004d0838038062004d08833981810160405260c0811015620000b457600080fd5b810190808051906020019092919080519060200190929190805190602001909291908051906020019092919080519060200190929190805160405193929190846401000000008211156200010757600080fd5b838201915060208201858111156200011e57600080fd5b82518660018202830111640100000000821117156200013c57600080fd5b8083526020830192505050908051906020019080838360005b838110156200017257808201518184015260208101905062000155565b50505050905090810190601f168015620001a05780820380516001836020036101000a031916815260200191505b506040525050508260008190555084600c60006101000a81548173ffffffffffffffffffffffffffffffffffffffff021916908373ffffffffffffffffffffffffffffffffffffffff16021790555060006200020860646200082260201b620023be1760201c565b9050600062000222856200082260201b620023be1760201c565b90506200027e60016200026d600a6200025c856200024b876200084660201b620023e11760201c565b6200088960201b6200241b1760201c565b6200088960201b6200241b1760201c565b620008f660201b620024861760201c565b600460106101000a8154816fffffffffffffffffffffffffffffffff0219169083600f0b6fffffffffffffffffffffffffffffffff160217905550620002f5620002d483836200088960201b6200241b1760201c565b600460109054906101000a9004600f0b6200088960201b6200241b1760201c565b600460006101000a8154816fffffffffffffffffffffffffffffffff0219169083600f0b6fffffffffffffffffffffffffffffffff1602179055506000806200036e6200035d85600460009054906101000a9004600f0b620008f660201b620024861760201c565b6200097d60201b620025091760201c565b905089600a60006101000a81548173ffffffffffffffffffffffffffffffffffffffff021916908373ffffffffffffffffffffffffffffffffffffffff16021790555060008090505b600054811015620004b35760028590806001815401808255809150506001900390600052602060002090600291828204019190066010029091909190916101000a8154816fffffffffffffffffffffffffffffffff0219169083600f0b6fffffffffffffffffffffffffffffffff16021790555062000442838362000a0160201b620025821760201c565b92506200046a600560109054906101000a9004600f0b8662000a0160201b620025821760201c565b600560106101000a8154816fffffffffffffffffffffffffffffffff0219169083600f0b6fffffffffffffffffffffffffffffffff1602179055508080600101915050620003b7565b50620004ef600460009054906101000a9004600f0b620004de846200084660201b620023e11760201c565b6200088960201b6200241b1760201c565b600560006101000a8154816fffffffffffffffffffffffffffffffff0219169083600f0b6fffffffffffffffffffffffffffffffff160217905550856007819055508560088190555060007f61606860eb6c87306811e2695215385101daab53bd6ab4e9f9049aead9363c7d866040518080602001828103825283818151815260200191508051906020019080838360005b838110156200059e57808201518184015260208101905062000581565b50505050905090810190601f168015620005cc5780820380516001836020036101000a031916815260200191505b509250505060405180910390a287600e60006101000a81548173ffffffffffffffffffffffffffffffffffffffff021916908373ffffffffffffffffffffffffffffffffffffffff160217905550600e60009054906101000a900473ffffffffffffffffffffffffffffffffffffffff1673ffffffffffffffffffffffffffffffffffffffff1663d96ee7548b60603073ffffffffffffffffffffffffffffffffffffffff16901b60001b8a6040518463ffffffff1660e01b8152600401808473ffffffffffffffffffffffffffffffffffffffff1673ffffffffffffffffffffffffffffffffffffffff1681526020018381526020018281526020019350505050600060405180830381600087803b158015620006e957600080fd5b505af1158015620006fe573d6000803e3d6000fd5b50505050600e60009054906101000a900473ffffffffffffffffffffffffffffffffffffffff1673ffffffffffffffffffffffffffffffffffffffff1663852c6ae28b60603073ffffffffffffffffffffffffffffffffffffffff16901b60001b8a6040518463ffffffff1660e01b8152600401808473ffffffffffffffffffffffffffffffffffffffff1673ffffffffffffffffffffffffffffffffffffffff168152602001838152602001828152602001935050505060206040518083038186803b158015620007cf57600080fd5b505afa158015620007e4573d6000803e3d6000fd5b505050506040513d6020811015620007fb57600080fd5b8101908080519060200190929190505050600f81905550505050505050505050506200188f565b6000677fffffffffffffff8211156200083a57600080fd5b604082901b9050919050565b60008082600f0b136200085857600080fd5b60806fb17217f7d1cf79abc9e3b39803f2f6af6200087c8462000a6a60201b60201c565b600f0b02901c9050919050565b600080604083600f0b85600f0b02901d90507fffffffffffffffffffffffffffffffff80000000000000000000000000000000600f0b8112158015620008e257506f7fffffffffffffffffffffffffffffff600f0b8113155b620008ec57600080fd5b8091505092915050565b60008082600f0b14156200090957600080fd5b600082600f0b604085600f0b901b816200091f57fe5b0590507fffffffffffffffffffffffffffffffff80000000000000000000000000000000600f0b81121580156200096957506f7fffffffffffffffffffffffffffffff600f0b8113155b6200097357600080fd5b8091505092915050565b60006840000000000000000082600f0b126200099857600080fd5b7fffffffffffffffffffffffffffffffffffffffffffffffc0000000000000000082600f0b1215620009ce5760009050620009fc565b620009f96080700171547652b82fe1777d0ffda0d23a7d1284600f0b02901d62000b9c60201b60201c565b90505b919050565b60008082600f0b84600f0b0190507fffffffffffffffffffffffffffffffff80000000000000000000000000000000600f0b811215801562000a5657506f7fffffffffffffffffffffffffffffff600f0b8113155b62000a6057600080fd5b8091505092915050565b60008082600f0b1362000a7c57600080fd5b6000809050600083600f0b905068010000000000000000811262000aa857604081901d90506040820191505b640100000000811262000ac357602081901d90506020820191505b62010000811262000adc57601081901d90506010820191505b610100811262000af457600881901d90506008820191505b6010811262000b0b57600481901d90506004820191505b6004811262000b2257600281901d90506002820191505b6002811262000b32576001820191505b60006040808403901b9050600083607f0386600f0b901b9050600067800000000000000090505b600081131562000b8f578182029150600060ff83901c905080607f0183901c92508082028401935050600181901d905062000b59565b5081945050505050919050565b60006840000000000000000082600f0b1262000bb757600080fd5b7fffffffffffffffffffffffffffffffffffffffffffffffc0000000000000000082600f0b121562000bed5760009050620017db565b60006f80000000000000000000000000000000905060006780000000000000008416600f0b131562000c3457608070016a09e667f3bcc908b2fb1366ea957d3e8202901c90505b60006740000000000000008416600f0b131562000c665760807001306fe0a31b7152de8d5a46305c85edec8202901c90505b60006720000000000000008416600f0b131562000c985760807001172b83c7d517adcdf7c8c50eb14a791f8202901c90505b60006710000000000000008416600f0b131562000cca57608070010b5586cf9890f6298b92b71842a983638202901c90505b60006708000000000000008416600f0b131562000cfc5760807001059b0d31585743ae7c548eb68ca417fd8202901c90505b60006704000000000000008416600f0b131562000d2e576080700102c9a3e778060ee6f7caca4f7a29bde88202901c90505b60006702000000000000008416600f0b131562000d6057608070010163da9fb33356d84a66ae336dcdfa3f8202901c90505b60006701000000000000008416600f0b131562000d92576080700100b1afa5abcbed6129ab13ec11dc95438202901c90505b600066800000000000008416600f0b131562000dc357608070010058c86da1c09ea1ff19d294cf2f679b8202901c90505b600066400000000000008416600f0b131562000df45760807001002c605e2e8cec506d21bfc89a23a00f8202901c90505b600066200000000000008416600f0b131562000e25576080700100162f3904051fa128bca9c55c31e5df8202901c90505b600066100000000000008416600f0b131562000e565760807001000b175effdc76ba38e31671ca9397258202901c90505b600066080000000000008416600f0b131562000e87576080700100058ba01fb9f96d6cacd4b180917c3d8202901c90505b600066040000000000008416600f0b131562000eb857608070010002c5cc37da9491d0985c348c68e7b38202901c90505b600066020000000000008416600f0b131562000ee95760807001000162e525ee054754457d59952920268202901c90505b600066010000000000008416600f0b131562000f1a57608070010000b17255775c040618bf4a4ade83fc8202901c90505b6000658000000000008416600f0b131562000f4a5760807001000058b91b5bc9ae2eed81e9b7d4cfab8202901c90505b6000654000000000008416600f0b131562000f7a576080700100002c5c89d5ec6ca4d7c8acc017b7c98202901c90505b6000652000000000008416600f0b131562000faa57608070010000162e43f4f831060e02d839a9d16d8202901c90505b6000651000000000008416600f0b131562000fda576080700100000b1721bcfc99d9f890ea069117638202901c90505b6000650800000000008416600f0b13156200100a57608070010000058b90cf1e6d97f9ca14dbcc16288202901c90505b6000650400000000008416600f0b13156200103a5760807001000002c5c863b73f016468f6bac5ca2b8202901c90505b6000650200000000008416600f0b13156200106a576080700100000162e430e5a18f6119e3c02282a58202901c90505b6000650100000000008416600f0b13156200109a5760807001000000b1721835514b86e6d96efd1bfe8202901c90505b60006480000000008416600f0b1315620010c9576080700100000058b90c0b48c6be5df846c5b2ef8202901c90505b60006440000000008416600f0b1315620010f857608070010000002c5c8601cc6b9e94213c72737a8202901c90505b60006420000000008416600f0b1315620011275760807001000000162e42fff037df38aa2b219f068202901c90505b60006410000000008416600f0b13156200115657608070010000000b17217fba9c739aa5819f44f98202901c90505b60006408000000008416600f0b1315620011855760807001000000058b90bfcdee5acd3c1cedc8238202901c90505b60006404000000008416600f0b1315620011b4576080700100000002c5c85fe31f35a6a30da1be508202901c90505b60006402000000008416600f0b1315620011e357608070010000000162e42ff0999ce3541b9fffcf8202901c90505b60006401000000008416600f0b131562001212576080700100000000b17217f80f4ef5aadda455548202901c90505b600063800000008416600f0b13156200124057608070010000000058b90bfbf8479bd5a81b51ad8202901c90505b600063400000008416600f0b13156200126e5760807001000000002c5c85fdf84bd62ae30a74cc8202901c90505b600063200000008416600f0b13156200129c576080700100000000162e42fefb2fed257559bdaa8202901c90505b600063100000008416600f0b1315620012ca5760807001000000000b17217f7d5a7716bba4a9ae8202901c90505b600063080000008416600f0b1315620012f8576080700100000000058b90bfbe9ddbac5e109cce8202901c90505b600063040000008416600f0b13156200132657608070010000000002c5c85fdf4b15de6f17eb0d8202901c90505b600063020000008416600f0b1315620013545760807001000000000162e42fefa494f1478fde058202901c90505b600063010000008416600f0b13156200138257608070010000000000b17217f7d20cf927c8e94c8202901c90505b6000628000008416600f0b1315620013af5760807001000000000058b90bfbe8f71cb4e4b33d8202901c90505b6000624000008416600f0b1315620013dc576080700100000000002c5c85fdf477b662b269458202901c90505b6000622000008416600f0b13156200140957608070010000000000162e42fefa3ae53369388c8202901c90505b6000621000008416600f0b131562001436576080700100000000000b17217f7d1d351a389d408202901c90505b6000620800008416600f0b13156200146357608070010000000000058b90bfbe8e8b2d3d4ede8202901c90505b6000620400008416600f0b1315620014905760807001000000000002c5c85fdf4741bea6e77e8202901c90505b6000620200008416600f0b1315620014bd576080700100000000000162e42fefa39fe95583c28202901c90505b6000620100008416600f0b1315620014ea5760807001000000000000b17217f7d1cfb72b45e18202901c90505b60006180008416600f0b131562001516576080700100000000000058b90bfbe8e7cc35c3f08202901c90505b60006140008416600f0b13156200154257608070010000000000002c5c85fdf473e242ea388202901c90505b60006120008416600f0b13156200156e5760807001000000000000162e42fefa39f02b772c8202901c90505b60006110008416600f0b13156200159a57608070010000000000000b17217f7d1cf7d83c1a8202901c90505b60006108008416600f0b1315620015c65760807001000000000000058b90bfbe8e7bdcbe2e8202901c90505b60006104008416600f0b1315620015f2576080700100000000000002c5c85fdf473dea871f8202901c90505b60006102008416600f0b13156200161e57608070010000000000000162e42fefa39ef44d918202901c90505b60006101008416600f0b13156200164a576080700100000000000000b17217f7d1cf79e9498202901c90505b600060808416600f0b13156200167557608070010000000000000058b90bfbe8e7bce5448202901c90505b600060408416600f0b1315620016a05760807001000000000000002c5c85fdf473de6eca8202901c90505b600060208416600f0b1315620016cb576080700100000000000000162e42fefa39ef366f8202901c90505b600060108416600f0b1315620016f65760807001000000000000000b17217f7d1cf79afa8202901c90505b600060088416600f0b131562001721576080700100000000000000058b90bfbe8e7bcd6d8202901c90505b600060048416600f0b13156200174c57608070010000000000000002c5c85fdf473de6b28202901c90505b600060028416600f0b1315620017775760807001000000000000000162e42fefa39ef3588202901c90505b600060018416600f0b1315620017a257608070010000000000000000b17217f7d1cf79ab8202901c90505b604083600f0b901d603f03600f0b81901c90506f7fffffffffffffffffffffffffffffff600f0b811115620017d657600080fd5b809150505b919050565b828054600181600116156101000203166002900490600052602060002090601f016020900481019282601f106200182357805160ff191683800117855562001854565b8280016001018555821562001854579182015b828111156200185357825182559160200191906001019062001836565b5b50905062001863919062001867565b5090565b6200188c91905b80821115620018885760008160009055506001016200186e565b5090565b90565b613469806200189f6000396000f3fe6080604052600436106101665760003560e01c80637e7e4b47116100d1578063b9f9b37d1161008a578063bfc3d84b11610064578063bfc3d84b146108de578063d23890e914610935578063df7bd8fc14610987578063f23a6e61146109e357610166565b8063b9f9b37d14610645578063bc197c81146106a7578063bfa0af6d1461086957610166565b80637e7e4b47146104d15780638ae041d1146104fc5780638d5276481461054b578063a85adeab146105e5578063b2d0571114610610578063b77641ad1461063b57610166565b80633a98ef39116101235780633a98ef391461030c578063416e517e1461033d5780634ea12b62146103785780634f09d6b5146103cd5780635a920320146103f85780637249f3e41461044f57610166565b806301ffc9a71461016b57806313faede6146101dd578063144447721461020e578063200d2ed214610239578063206c116914610272578063311a6c56146102c7575b600080fd5b34801561017757600080fd5b506101c36004803603602081101561018e57600080fd5b8101908080357bffffffffffffffffffffffffffffffffffffffffffffffffffffffff19169060200190929190505050610b0f565b604051808215151515815260200191505060405180910390f35b3480156101e957600080fd5b506101f2610b16565b6040518082600f0b600f0b815260200191505060405180910390f35b34801561021a57600080fd5b50610223610bb9565b6040518082815260200191505060405180910390f35b34801561024557600080fd5b5061024e610bbf565b6040518082600481111561025e57fe5b60ff16815260200191505060405180910390f35b34801561027e57600080fd5b506102ab6004803603602081101561029557600080fd5b8101908080359060200190929190505050610bd2565b6040518082600f0b600f0b815260200191505060405180910390f35b3480156102d357600080fd5b5061030a600480360360408110156102ea57600080fd5b810190808035906020019092919080359060200190929190505050610c0b565b005b34801561031857600080fd5b50610321610e58565b6040518082600f0b600f0b815260200191505060405180910390f35b34801561034957600080fd5b506103766004803603602081101561036057600080fd5b8101908080359060200190929190505050610e6f565b005b34801561038457600080fd5b506103b16004803603602081101561039b57600080fd5b81019080803590602001909291905050506111c4565b6040518082600f0b600f0b815260200191505060405180910390f35b3480156103d957600080fd5b506103e26111d6565b6040518082815260200191505060405180910390f35b34801561040457600080fd5b5061040d6111dc565b604051808273ffffffffffffffffffffffffffffffffffffffff1673ffffffffffffffffffffffffffffffffffffffff16815260200191505060405180910390f35b34801561045b57600080fd5b506104b56004803603606081101561047257600080fd5b81019080803573ffffffffffffffffffffffffffffffffffffffff169060200190929190803590602001909291908035600f0b9060200190929190505050611202565b6040518082600f0b600f0b815260200191505060405180910390f35b3480156104dd57600080fd5b506104e6611bfd565b6040518082815260200191505060405180910390f35b34801561050857600080fd5b506105356004803603602081101561051f57600080fd5b8101908080359060200190929190505050611c07565b6040518082815260200191505060405180910390f35b34801561055757600080fd5b5061058e6004803603604081101561056e57600080fd5b810190808035906020019092919080359060200190929190505050611c15565b6040518080602001828103825283818151815260200191508051906020019060200280838360005b838110156105d15780820151818401526020810190506105b6565b505050509050019250505060405180910390f35b3480156105f157600080fd5b506105fa611ca9565b6040518082815260200191505060405180910390f35b34801561061c57600080fd5b50610625611caf565b6040518082815260200191505060405180910390f35b610643611cb5565b005b34801561065157600080fd5b5061068b6004803603604081101561066857600080fd5b81019080803590602001909291908035600f0b9060200190929190505050612106565b6040518082600f0b600f0b815260200191505060405180910390f35b3480156106b357600080fd5b50610815600480360360a08110156106ca57600080fd5b81019080803573ffffffffffffffffffffffffffffffffffffffff169060200190929190803573ffffffffffffffffffffffffffffffffffffffff1690602001909291908035906020019064010000000081111561072757600080fd5b82018360208201111561073957600080fd5b8035906020019184602083028401116401000000008311171561075b57600080fd5b90919293919293908035906020019064010000000081111561077c57600080fd5b82018360208201111561078e57600080fd5b803590602001918460208302840111640100000000831117156107b057600080fd5b9091929391929390803590602001906401000000008111156107d157600080fd5b8201836020820111156107e357600080fd5b8035906020019184600183028401116401000000008311171561080557600080fd5b90919293919293905050506122bc565b60405180827bffffffffffffffffffffffffffffffffffffffffffffffffffffffff19167bffffffffffffffffffffffffffffffffffffffffffffffffffffffff1916815260200191505060405180910390f35b34801561087557600080fd5b506108c26004803603604081101561088c57600080fd5b8101908080359060200190929190803573ffffffffffffffffffffffffffffffffffffffff1690602001909291905050506122d4565b6040518082600f0b600f0b815260200191505060405180910390f35b3480156108ea57600080fd5b506108f361233c565b604051808273ffffffffffffffffffffffffffffffffffffffff1673ffffffffffffffffffffffffffffffffffffffff16815260200191505060405180910390f35b34801561094157600080fd5b506109716004803603602081101561095857600080fd5b810190808035600f0b9060200190929190505050612362565b6040518082815260200191505060405180910390f35b34801561099357600080fd5b506109cd600480360360408110156109aa57600080fd5b81019080803590602001909291908035600f0b9060200190929190505050612378565b6040518082815260200191505060405180910390f35b3480156109ef57600080fd5b50610abb600480360360a0811015610a0657600080fd5b81019080803573ffffffffffffffffffffffffffffffffffffffff169060200190929190803573ffffffffffffffffffffffffffffffffffffffff169060200190929190803590602001909291908035906020019092919080359060200190640100000000811115610a7757600080fd5b820183602082011115610a8957600080fd5b80359060200191846001830284011164010000000083111715610aab57600080fd5b90919293919293905050506123a8565b60405180827bffffffffffffffffffffffffffffffffffffffffffffffffffffffff19167bffffffffffffffffffffffffffffffffffffffffffffffffffffffff1916815260200191505060405180910390f35b6000919050565b60008060008090505b600054811015610b9157610b8282610b7d610b7860028581548110610b4057fe5b90600052602060002090600291828204019190066010029054906101000a9004600f0b600460009054906101000a9004600f0b612486565b612509565b612582565b91508080600101915050610b1f565b50610bb3600460009054906101000a9004600f0b610bae836123e1565b61241b565b91505090565b60005481565b601060009054906101000a900460ff1681565b600060028281548110610be157fe5b90600052602060002090600291828204019190066010029054906101000a9004600f0b9050919050565b600d60009054906101000a900473ffffffffffffffffffffffffffffffffffffffff1673ffffffffffffffffffffffffffffffffffffffff163373ffffffffffffffffffffffffffffffffffffffff1614610cce576040517f08c379a000000000000000000000000000000000000000000000000000000000815260040180806020018281038252600f8152602001807f4a55534520555345204b4c45524f53000000000000000000000000000000000081525060200191505060405180910390fd5b6009548214610d45576040517f08c379a000000000000000000000000000000000000000000000000000000000815260040180806020018281038252600d8152602001807f57524f4e4720444953505554450000000000000000000000000000000000000081525060200191505060405180910390fd5b600154811415610d5457610dbf565b80600181905550600b60009054906101000a900473ffffffffffffffffffffffffffffffffffffffff16600a60006101000a81548173ffffffffffffffffffffffffffffffffffffffff021916908373ffffffffffffffffffffffffffffffffffffffff1602179055505b6004601060006101000a81548160ff02191690836004811115610dde57fe5b021790555081600d60009054906101000a900473ffffffffffffffffffffffffffffffffffffffff1673ffffffffffffffffffffffffffffffffffffffff167f394027a5fa6e098a1191094d1719d6929b9abc535fcc0c8f448d6a4e75622276836040518082815260200191505060405180910390a35050565b6000600560109054906101000a9004600f0b905090565b60036004811115610e7c57fe5b601060009054906101000a900460ff166004811115610e9757fe5b1415610f0b576040517f08c379a00000000000000000000000000000000000000000000000000000000081526004018080602001828103825260178152602001807f4445434953494f4e20474f4e4520544f204b4c45524f5300000000000000000081525060200191505060405180910390fd5b600a60009054906101000a900473ffffffffffffffffffffffffffffffffffffffff1673ffffffffffffffffffffffffffffffffffffffff163373ffffffffffffffffffffffffffffffffffffffff1614610fce576040517f08c379a00000000000000000000000000000000000000000000000000000000081526004018080602001828103825260148152602001807f4f4e4c59204d41535445522043414e2043414c4c00000000000000000000000081525060200191505060405180910390fd5b6008544211611045576040517f08c379a000000000000000000000000000000000000000000000000000000000815260040180806020018281038252601b8152602001807f544f4f204541524c5920544f20444543494445204f5554434f4d45000000000081525060200191505060405180910390fd5b6000600481111561105257fe5b601060009054906101000a900460ff16600481111561106d57fe5b148061109e57506001600481111561108157fe5b601060009054906101000a900460ff16600481111561109c57fe5b145b611110576040517f08c379a000000000000000000000000000000000000000000000000000000000815260040180806020018281038252600d8152602001807f494e56414c49442053544154450000000000000000000000000000000000000081525060200191505060405180910390fd5b600160005401811061118a576040517f08c379a00000000000000000000000000000000000000000000000000000000081526004018080602001828103825260118152602001807f494e56414c4944204f5554434f4d45212100000000000000000000000000000081525060200191505060405180910390fd5b806001819055506002601060006101000a81548160ff021916908360048111156111b057fe5b021790555062015180420160068190555050565b60006111cf826123be565b9050919050565b60065481565b600d60009054906101000a900473ffffffffffffffffffffffffffffffffffffffff1681565b600080600481111561121057fe5b601060009054906101000a900460ff16600481111561122b57fe5b1461129e576040517f08c379a000000000000000000000000000000000000000000000000000000000815260040180806020018281038252600c8152602001807f4e6f206d6f72652062657473000000000000000000000000000000000000000081525060200191505060405180910390fd5b600560109054906101000a9004600f0b600f0b82600f0b12611328576040517f08c379a00000000000000000000000000000000000000000000000000000000081526004018080602001828103825260178152602001807f427579696e6720746f6f206d616e79207368617265732100000000000000000081525060200191505060405180910390fd5b60075442111561135b576001601060006101000a81548160ff0219169083600481111561135157fe5b0217905550611bf6565b60008060008090505b600054811015611472576000816001901b871614611465576113b56002828154811061138c57fe5b90600052602060002090600291828204019190066010029054906101000a9004600f0b86612582565b600282815481106113c257fe5b90600052602060002090600291828204019190066010026101000a8154816fffffffffffffffffffffffffffffffff0219169083600f0b6fffffffffffffffffffffffffffffffff160217905550611429600560109054906101000a9004600f0b86612582565b600560106101000a8154816fffffffffffffffffffffffffffffffff0219169083600f0b6fffffffffffffffffffffffffffffffff1602179055505b8080600101915050611364565b50600061149d600560109054906101000a9004600f0b600460109054906101000a9004600f0b61241b565b905060008090505b600054811015611508576114f9836114f46114ef600285815481106114c657fe5b90600052602060002090600291828204019190066010029054906101000a9004600f0b86612486565b612509565b612582565b925080806001019150506114a5565b5061151b81611516846123e1565b61241b565b925061153683600560009054906101000a9004600f0b6125e9565b9350600061154c85670de0b6b3a7640000612650565b9050600061156287670de0b6b3a7640000612650565b9050600c60009054906101000a900473ffffffffffffffffffffffffffffffffffffffff1673ffffffffffffffffffffffffffffffffffffffff166323b872dd3330856040518463ffffffff1660e01b8152600401808473ffffffffffffffffffffffffffffffffffffffff1673ffffffffffffffffffffffffffffffffffffffff1681526020018373ffffffffffffffffffffffffffffffffffffffff1673ffffffffffffffffffffffffffffffffffffffff1681526020018281526020019350505050602060405180830381600087803b15801561164157600080fd5b505af1158015611655573d6000803e3d6000fd5b505050506040513d602081101561166b57600080fd5b810190808051906020019092919050505061168557600080fd5b600c60009054906101000a900473ffffffffffffffffffffffffffffffffffffffff1673ffffffffffffffffffffffffffffffffffffffff1663095ea7b3600e60009054906101000a900473ffffffffffffffffffffffffffffffffffffffff16836040518363ffffffff1660e01b8152600401808373ffffffffffffffffffffffffffffffffffffffff1673ffffffffffffffffffffffffffffffffffffffff16815260200182815260200192505050602060405180830381600087803b15801561175057600080fd5b505af1158015611764573d6000803e3d6000fd5b505050506040513d602081101561177a57600080fd5b810190808051906020019092919050505050600e60009054906101000a900473ffffffffffffffffffffffffffffffffffffffff1673ffffffffffffffffffffffffffffffffffffffff166372ce4275600c60009054906101000a900473ffffffffffffffffffffffffffffffffffffffff166000801b600f546118008d600054611c15565b866040518663ffffffff1660e01b8152600401808673ffffffffffffffffffffffffffffffffffffffff1673ffffffffffffffffffffffffffffffffffffffff16815260200185815260200184815260200180602001838152602001828103825284818151815260200191508051906020019060200280838360005b8381101561189757808201518184015260208101905061187c565b505050509050019650505050505050600060405180830381600087803b1580156118c057600080fd5b505af11580156118d4573d6000803e3d6000fd5b505050506000600e60009054906101000a900473ffffffffffffffffffffffffffffffffffffffff1673ffffffffffffffffffffffffffffffffffffffff166339dd7530600c60009054906101000a900473ffffffffffffffffffffffffffffffffffffffff16600e60009054906101000a900473ffffffffffffffffffffffffffffffffffffffff1673ffffffffffffffffffffffffffffffffffffffff1663856296f76000801b600f548f6040518463ffffffff1660e01b815260040180848152602001838152602001828152602001935050505060206040518083038186803b1580156119c357600080fd5b505afa1580156119d7573d6000803e3d6000fd5b505050506040513d60208110156119ed57600080fd5b81019080805190602001909291905050506040518363ffffffff1660e01b8152600401808373ffffffffffffffffffffffffffffffffffffffff1673ffffffffffffffffffffffffffffffffffffffff1681526020018281526020019250505060206040518083038186803b158015611a6557600080fd5b505afa158015611a79573d6000803e3d6000fd5b505050506040513d6020811015611a8f57600080fd5b81019080805190602001909291905050509050600e60009054906101000a900473ffffffffffffffffffffffffffffffffffffffff1673ffffffffffffffffffffffffffffffffffffffff1663f242432a308c84866040518563ffffffff1660e01b8152600401808573ffffffffffffffffffffffffffffffffffffffff1673ffffffffffffffffffffffffffffffffffffffff1681526020018473ffffffffffffffffffffffffffffffffffffffff1673ffffffffffffffffffffffffffffffffffffffff1681526020018381526020018281526020018060200182810382526000815260200160200195505050505050600060405180830381600087803b158015611b9b57600080fd5b505af1158015611baf573d6000803e3d6000fd5b5050505085600560006101000a8154816fffffffffffffffffffffffffffffffff0219169083600f0b6fffffffffffffffffffffffffffffffff1602179055505050505050505b9392505050565b6000600154905090565b6000816001901b9050919050565b606080600267ffffffffffffffff81118015611c3057600080fd5b50604051908082528060200260200182016040528015611c5f5781602001602082028036833780820191505090505b5090508381600081518110611c7057fe5b602002602001018181525050836001846001901b030381600181518110611c9357fe5b6020026020010181815250508091505092915050565b60075481565b60085481565b60036004811115611cc257fe5b601060009054906101000a900460ff166004811115611cdd57fe5b1415611d51576040517f08c379a00000000000000000000000000000000000000000000000000000000081526004018080602001828103825260108152602001807f416c72656164792064697370757465640000000000000000000000000000000081525060200191505060405180910390fd5b60026004811115611d5e57fe5b601060009054906101000a900460ff166004811115611d7957fe5b148015611d87575060065442105b80611dc9575060016004811115611d9a57fe5b601060009054906101000a900460ff166004811115611db557fe5b148015611dc85750620151806008540142105b5b80611e18575060006004811115611ddc57fe5b601060009054906101000a900460ff166004811115611df757fe5b148015611e05575060075442115b8015611e175750620151806008540142115b5b611e8a576040517f08c379a000000000000000000000000000000000000000000000000000000000815260040180806020018281038252600d8152602001807f43414e275420444953505554450000000000000000000000000000000000000081525060200191505060405180910390fd5b33600b60006101000a81548173ffffffffffffffffffffffffffffffffffffffff021916908373ffffffffffffffffffffffffffffffffffffffff1602179055506003601060006101000a81548160ff02191690836004811115611eea57fe5b02179055506000600d60009054906101000a900473ffffffffffffffffffffffffffffffffffffffff1673ffffffffffffffffffffffffffffffffffffffff1663f7434ea96040518163ffffffff1660e01b8152600401808060200182810382526000815260200160200191505060206040518083038186803b158015611f7057600080fd5b505afa158015611f84573d6000803e3d6000fd5b505050506040513d6020811015611f9a57600080fd5b8101908080519060200190929190505050905080341015611fba57600080fd5b600d60009054906101000a900473ffffffffffffffffffffffffffffffffffffffff1673ffffffffffffffffffffffffffffffffffffffff1663c13517e1826000546040518363ffffffff1660e01b81526004018082815260200180602001828103825260008152602001602001925050506020604051808303818588803b15801561204557600080fd5b505af1158015612059573d6000803e3d6000fd5b50505050506040513d602081101561207057600080fd5b8101908080519060200190929190505050600981905550600954600d60009054906101000a900473ffffffffffffffffffffffffffffffffffffffff1673ffffffffffffffffffffffffffffffffffffffff167f74baab670a4015ab2f1b467c5252a96141a2573f2908e58a92081e80d3cfde3d600080604051808381526020018281526020019250505060405180910390a350565b600080606060028054905067ffffffffffffffff8111801561212757600080fd5b506040519080825280602002602001820160405280156121565781602001602082028036833780820191505090505b5090506000600560109054906101000a9004600f0b905060008090505b600054811015612232576002818154811061218a57fe5b90600052602060002090600291828204019190066010029054906101000a9004600f0b8382815181106121b957fe5b6020026020010190600f0b9081600f0b815250506000816001901b881614612225576121f88382815181106121ea57fe5b602002602001015187612582565b83828151811061220457fe5b6020026020010190600f0b9081600f0b815250506122228287612582565b91505b8080600101915050612173565b50600061224e82600460109054906101000a9004600f0b61241b565b905060008090505b60005481101561229d5761228e8561228961228487858151811061227657fe5b602002602001015186612486565b612509565b612582565b94508080600101915050612256565b506122b0816122ab866123e1565b61241b565b94505050505092915050565b600063bc197c8160e01b905098975050505050505050565b60006003600084815260200190815260200160002060008373ffffffffffffffffffffffffffffffffffffffff1673ffffffffffffffffffffffffffffffffffffffff16815260200190815260200160002060009054906101000a9004600f0b905092915050565b600e60009054906101000a900473ffffffffffffffffffffffffffffffffffffffff1681565b600061237182620f4240612650565b9050919050565b60006123a061239761238a8585612106565b612392610b16565b6125e9565b620f4240612650565b905092915050565b600063f23a6e6160e01b90509695505050505050565b6000677fffffffffffffff8211156123d557600080fd5b604082901b9050919050565b60008082600f0b136123f257600080fd5b60806fb17217f7d1cf79abc9e3b39803f2f6af61240e8461270b565b600f0b02901c9050919050565b600080604083600f0b85600f0b02901d90507fffffffffffffffffffffffffffffffff80000000000000000000000000000000600f0b811215801561247357506f7fffffffffffffffffffffffffffffff600f0b8113155b61247c57600080fd5b8091505092915050565b60008082600f0b141561249857600080fd5b600082600f0b604085600f0b901b816124ad57fe5b0590507fffffffffffffffffffffffffffffffff80000000000000000000000000000000600f0b81121580156124f657506f7fffffffffffffffffffffffffffffff600f0b8113155b6124ff57600080fd5b8091505092915050565b60006840000000000000000082600f0b1261252357600080fd5b7fffffffffffffffffffffffffffffffffffffffffffffffc0000000000000000082600f0b1215612557576000905061257d565b61257a6080700171547652b82fe1777d0ffda0d23a7d1284600f0b02901d612833565b90505b919050565b60008082600f0b84600f0b0190507fffffffffffffffffffffffffffffffff80000000000000000000000000000000600f0b81121580156125d657506f7fffffffffffffffffffffffffffffff600f0b8113155b6125df57600080fd5b8091505092915050565b60008082600f0b84600f0b0390507fffffffffffffffffffffffffffffffff80000000000000000000000000000000600f0b811215801561263d57506f7fffffffffffffffffffffffffffffff600f0b8113155b61264657600080fd5b8091505092915050565b6000808214156126635760009050612705565b600083600f0b121561267457600080fd5b600060406fffffffffffffffffffffffffffffffff841685600f0b02901c90506000608084901c85600f0b02905077ffffffffffffffffffffffffffffffffffffffffffffffff8111156126c757600080fd5b604081901b9050817fffffffffffffffffffffffffffffffffffffffffffffffffffffffffffffffff038111156126fd57600080fd5b818101925050505b92915050565b60008082600f0b1361271c57600080fd5b6000809050600083600f0b905068010000000000000000811261274757604081901d90506040820191505b640100000000811261276157602081901d90506020820191505b62010000811261277957601081901d90506010820191505b610100811261279057600881901d90506008820191505b601081126127a657600481901d90506004820191505b600481126127bc57600281901d90506002820191505b600281126127cb576001820191505b60006040808403901b9050600083607f0386600f0b901b9050600067800000000000000090505b6000811315612826578182029150600060ff83901c905080607f0183901c92508082028401935050600181901d90506127f2565b5081945050505050919050565b60006840000000000000000082600f0b1261284d57600080fd5b7fffffffffffffffffffffffffffffffffffffffffffffffc0000000000000000082600f0b1215612881576000905061342e565b60006f80000000000000000000000000000000905060006780000000000000008416600f0b13156128c757608070016a09e667f3bcc908b2fb1366ea957d3e8202901c90505b60006740000000000000008416600f0b13156128f85760807001306fe0a31b7152de8d5a46305c85edec8202901c90505b60006720000000000000008416600f0b13156129295760807001172b83c7d517adcdf7c8c50eb14a791f8202901c90505b60006710000000000000008416600f0b131561295a57608070010b5586cf9890f6298b92b71842a983638202901c90505b60006708000000000000008416600f0b131561298b5760807001059b0d31585743ae7c548eb68ca417fd8202901c90505b60006704000000000000008416600f0b13156129bc576080700102c9a3e778060ee6f7caca4f7a29bde88202901c90505b60006702000000000000008416600f0b13156129ed57608070010163da9fb33356d84a66ae336dcdfa3f8202901c90505b60006701000000000000008416600f0b1315612a1e576080700100b1afa5abcbed6129ab13ec11dc95438202901c90505b600066800000000000008416600f0b1315612a4e57608070010058c86da1c09ea1ff19d294cf2f679b8202901c90505b600066400000000000008416600f0b1315612a7e5760807001002c605e2e8cec506d21bfc89a23a00f8202901c90505b600066200000000000008416600f0b1315612aae576080700100162f3904051fa128bca9c55c31e5df8202901c90505b600066100000000000008416600f0b1315612ade5760807001000b175effdc76ba38e31671ca9397258202901c90505b600066080000000000008416600f0b1315612b0e576080700100058ba01fb9f96d6cacd4b180917c3d8202901c90505b600066040000000000008416600f0b1315612b3e57608070010002c5cc37da9491d0985c348c68e7b38202901c90505b600066020000000000008416600f0b1315612b6e5760807001000162e525ee054754457d59952920268202901c90505b600066010000000000008416600f0b1315612b9e57608070010000b17255775c040618bf4a4ade83fc8202901c90505b6000658000000000008416600f0b1315612bcd5760807001000058b91b5bc9ae2eed81e9b7d4cfab8202901c90505b6000654000000000008416600f0b1315612bfc576080700100002c5c89d5ec6ca4d7c8acc017b7c98202901c90505b6000652000000000008416600f0b1315612c2b57608070010000162e43f4f831060e02d839a9d16d8202901c90505b6000651000000000008416600f0b1315612c5a576080700100000b1721bcfc99d9f890ea069117638202901c90505b6000650800000000008416600f0b1315612c8957608070010000058b90cf1e6d97f9ca14dbcc16288202901c90505b6000650400000000008416600f0b1315612cb85760807001000002c5c863b73f016468f6bac5ca2b8202901c90505b6000650200000000008416600f0b1315612ce7576080700100000162e430e5a18f6119e3c02282a58202901c90505b6000650100000000008416600f0b1315612d165760807001000000b1721835514b86e6d96efd1bfe8202901c90505b60006480000000008416600f0b1315612d44576080700100000058b90c0b48c6be5df846c5b2ef8202901c90505b60006440000000008416600f0b1315612d7257608070010000002c5c8601cc6b9e94213c72737a8202901c90505b60006420000000008416600f0b1315612da05760807001000000162e42fff037df38aa2b219f068202901c90505b60006410000000008416600f0b1315612dce57608070010000000b17217fba9c739aa5819f44f98202901c90505b60006408000000008416600f0b1315612dfc5760807001000000058b90bfcdee5acd3c1cedc8238202901c90505b60006404000000008416600f0b1315612e2a576080700100000002c5c85fe31f35a6a30da1be508202901c90505b60006402000000008416600f0b1315612e5857608070010000000162e42ff0999ce3541b9fffcf8202901c90505b60006401000000008416600f0b1315612e86576080700100000000b17217f80f4ef5aadda455548202901c90505b600063800000008416600f0b1315612eb357608070010000000058b90bfbf8479bd5a81b51ad8202901c90505b600063400000008416600f0b1315612ee05760807001000000002c5c85fdf84bd62ae30a74cc8202901c90505b600063200000008416600f0b1315612f0d576080700100000000162e42fefb2fed257559bdaa8202901c90505b600063100000008416600f0b1315612f3a5760807001000000000b17217f7d5a7716bba4a9ae8202901c90505b600063080000008416600f0b1315612f67576080700100000000058b90bfbe9ddbac5e109cce8202901c90505b600063040000008416600f0b1315612f9457608070010000000002c5c85fdf4b15de6f17eb0d8202901c90505b600063020000008416600f0b1315612fc15760807001000000000162e42fefa494f1478fde058202901c90505b600063010000008416600f0b1315612fee57608070010000000000b17217f7d20cf927c8e94c8202901c90505b6000628000008416600f0b131561301a5760807001000000000058b90bfbe8f71cb4e4b33d8202901c90505b6000624000008416600f0b1315613046576080700100000000002c5c85fdf477b662b269458202901c90505b6000622000008416600f0b131561307257608070010000000000162e42fefa3ae53369388c8202901c90505b6000621000008416600f0b131561309e576080700100000000000b17217f7d1d351a389d408202901c90505b6000620800008416600f0b13156130ca57608070010000000000058b90bfbe8e8b2d3d4ede8202901c90505b6000620400008416600f0b13156130f65760807001000000000002c5c85fdf4741bea6e77e8202901c90505b6000620200008416600f0b1315613122576080700100000000000162e42fefa39fe95583c28202901c90505b6000620100008416600f0b131561314e5760807001000000000000b17217f7d1cfb72b45e18202901c90505b60006180008416600f0b1315613179576080700100000000000058b90bfbe8e7cc35c3f08202901c90505b60006140008416600f0b13156131a457608070010000000000002c5c85fdf473e242ea388202901c90505b60006120008416600f0b13156131cf5760807001000000000000162e42fefa39f02b772c8202901c90505b60006110008416600f0b13156131fa57608070010000000000000b17217f7d1cf7d83c1a8202901c90505b60006108008416600f0b13156132255760807001000000000000058b90bfbe8e7bdcbe2e8202901c90505b60006104008416600f0b1315613250576080700100000000000002c5c85fdf473dea871f8202901c90505b60006102008416600f0b131561327b57608070010000000000000162e42fefa39ef44d918202901c90505b60006101008416600f0b13156132a6576080700100000000000000b17217f7d1cf79e9498202901c90505b600060808416600f0b13156132d057608070010000000000000058b90bfbe8e7bce5448202901c90505b600060408416600f0b13156132fa5760807001000000000000002c5c85fdf473de6eca8202901c90505b600060208416600f0b1315613324576080700100000000000000162e42fefa39ef366f8202901c90505b600060108416600f0b131561334e5760807001000000000000000b17217f7d1cf79afa8202901c90505b600060088416600f0b1315613378576080700100000000000000058b90bfbe8e7bcd6d8202901c90505b600060048416600f0b13156133a257608070010000000000000002c5c85fdf473de6b28202901c90505b600060028416600f0b13156133cc5760807001000000000000000162e42fefa39ef3588202901c90505b600060018416600f0b13156133f657608070010000000000000000b17217f7d1cf79ab8202901c90505b604083600f0b901d603f03600f0b81901c90506f7fffffffffffffffffffffffffffffff600f0b81111561342957600080fd5b809150505b91905056fea26469706673582212207513acdde2716c9e340d0e6f4c8e1e150a3757781c6d651e24bd75dfc64a3abb64736f6c63430006080033",
  "immutableReferences": {},
  "source": "pragma solidity ^0.6.0;\r\n\r\nimport \"./interfaces/IArbitrable.sol\";\r\nimport \"./interfaces/IArbitrator.sol\";\r\nimport \"./interfaces/IEvidence.sol\";\r\nimport \"./interfaces/ISCMMaker.sol\";\r\nimport {ABDKMath} from \"./ABDKMath64x64.sol\";\r\nimport \"./ConditionalTokens.sol\";\r\nimport \"@openzeppelin/contracts/token/ERC1155/IERC1155Receiver.sol\";\r\n\r\ncontract SCFactory {\r\n\r\n    mapping(uint256 => SCMMaker) public market;\r\n    uint256 public markets;\r\n    address private currency;\r\n    address private conditionaltokens;\r\n\r\n    event MarketCreated(SCMMaker _market);\r\n\r\n    constructor(address _curr, address _ctf) public {\r\n      currency = _curr;\r\n      conditionaltokens = _ctf;\r\n    }\r\n\r\n    function createMarket(uint _numOptions, uint256 endTime, string memory hash) public {\r\n        market[markets] = new SCMMaker(msg.sender, currency, conditionaltokens, _numOptions,endTime, hash);\r\n        require(IERC20(currency).transferFrom(msg.sender,address(market[markets]),100*10**18));\r\n        emit MarketCreated(market[markets]);\r\n        markets++;\r\n    }\r\n\r\n    function getNumberOfMarkets() public view returns (uint256) {\r\n        return markets;\r\n    }\r\n\r\n    function getMarket(uint256 _id) public view returns (SCMMaker) {\r\n        return market[_id];\r\n    }\r\n\r\n}\r\n\r\ncontract SCMMaker is IArbitrable, IEvidence, ISCMMaker, IERC1155Receiver{\r\n\r\n    uint public numOfOutcomes; //How many different options can you bet on\r\n    uint private outcome; //the resolved outcome\r\n\r\n    int128[] private q; //How many outstanding shares for each option?\r\n    mapping(uint => mapping(address => int128)) private balances; // How many shares does a user own?\r\n\r\n    int128 private b; //The total outstanding balance (equivalent to sum of all q) multiplied by ALPHA\r\n    int128 private alpha; //This is a constant, decided at runtime that determines the sensitivity to liquidity\r\n    int128 private current_cost; //Running total of the cost function, to prevent you from calculating multiple exp\r\n    int128 private total_balance; //sum of all q ()\r\n\r\n    uint256 public appealTimestamp;\r\n    uint256 public endTimestamp;\r\n    uint256 public resultTimestamp;\r\n    uint256 private dispute_id;\r\n\r\n    uint256 private constant DISPUTE_TIME = 1 days;\r\n\r\n    address private game_master;\r\n    address private disputer;\r\n    address private currency;\r\n    IArbitrator public kleros = IArbitrator(0xaededC9A349B19508cdAeD4C6F8CF244413260E7);\r\n    ConditionalTokens public CT;\r\n\r\n    bytes32 private condition;\r\n\r\n    enum Status { BettingOpen, NoMoreBets, Appealable, Disputed, Resolved }\r\n    Status public status;\r\n    string private ipfsHash = '';\r\n\r\n    /**\r\n     * constructor function\r\n     * param _numOptions: How many different outcomes can you bet on? (please ignore option zero here)\r\n     * alpha is calculated as a constant that is used later on\r\n     * need to add endtime, result time, and ipfs hash\r\n     **/\r\n    constructor(address _owner, address _currency, address _ct, uint _numOptions, uint256 endTime, string memory hash) public {\r\n        numOfOutcomes = _numOptions;\r\n        currency = _currency;\r\n        int128 IL = ABDKMath.fromUInt(100); //this will be dai.balanceOf\r\n        int128 n = ABDKMath.fromUInt(_numOptions);\r\n        alpha = ABDKMath.div(1,ABDKMath.mul(10,ABDKMath.mul(n,ABDKMath.ln(n))));\r\n        b = ABDKMath.mul(ABDKMath.mul(IL,n),alpha);\r\n        int128 sumtotal;\r\n        int128 eqb = ABDKMath.exp(ABDKMath.div(IL,b));\r\n        game_master = _owner;\r\n        for(uint i=0;i<numOfOutcomes;i++) {\r\n            q.push(IL);\r\n            sumtotal = ABDKMath.add(sumtotal,eqb);\r\n            total_balance = ABDKMath.add(total_balance,IL);\r\n        }\r\n        current_cost = ABDKMath.mul(b,ABDKMath.ln(sumtotal));\r\n        endTimestamp = endTime;\r\n        resultTimestamp = endTime;\r\n        emit MetaEvidence(0,hash);\r\n        CT = ConditionalTokens(_ct);\r\n        CT.prepareCondition(_owner,bytes32(uint256(address(this)) << 96),_numOptions);\r\n        condition = CT.getConditionId(_owner,bytes32(uint256(address(this)) << 96),_numOptions);\r\n    }\r\n    //The function is now initialised with liquidity split across all outcomes\r\n\r\n    /*\r\n      AMM functions\r\n    */\r\n\r\n    function cost() public view returns (int128) {  //Getter function, designed for the frontend\r\n        int128 sumtotal;\r\n        for(uint i=0; i<numOfOutcomes;i++) {\r\n            sumtotal = ABDKMath.add(sumtotal,ABDKMath.exp(ABDKMath.div(q[i],b)));\r\n        }\r\n        return ABDKMath.mul(b,ABDKMath.ln(sumtotal));\r\n    }\r\n\r\n    function costafterbuy(uint _outcome, int128 amount) public view returns (int128) { //Getter function, designed for front end\r\n        int128 sumtotal;\r\n        int128[] memory newq = new int128[](q.length);\r\n        int128 TB = total_balance;\r\n        for(uint j=0;j<numOfOutcomes;j++) {\r\n          newq[j] = q[j];\r\n          if((_outcome & (1<<j)) !=0) {\r\n            newq[j] = ABDKMath.add(newq[j],amount);\r\n            TB = ABDKMath.add(TB,amount);\r\n          }\r\n        }\r\n        int128 _b = ABDKMath.mul(TB,alpha);\r\n        for(uint i=0; i<numOfOutcomes;i++) {\r\n          sumtotal = ABDKMath.add(sumtotal,\r\n            ABDKMath.exp(\r\n              ABDKMath.div(newq[i],\r\n            _b)\r\n          ));\r\n        }\r\n        return ABDKMath.mul(_b,ABDKMath.ln(sumtotal));\r\n    }\r\n\r\n    function price(uint _outcome, int128 amount) public view returns (uint256) { // Getter function, designed for the frontend\r\n       return ABDKMath.mulu(ABDKMath.sub(costafterbuy(_outcome,amount),cost()),1000000);\r\n    }\r\n\r\n    function getIndexSet(uint _set) public pure returns (uint) {\r\n      return 1<<_set;\r\n    }\r\n\r\n    function getInversePartition(uint256 index, uint256 len) public pure returns (uint256[] memory) {\r\n    uint256[] memory partx = new uint256[](2);\r\n    partx[0] = index;\r\n    partx[1] = (1<<len)-1-index;\r\n    return partx;\r\n}\r\n\r\n    function buyshares(address _user, uint _outcome, int128 amount) public override returns (int128 spot_price) {\r\n        require(status == Status.BettingOpen,'No more bets'); // There should be a check in the front-end to make sure that betting is open (also check endTimestamp), otherwise that would suck for you to spend gas\r\n        require(amount < total_balance,\"Buying too many shares!\"); //user will never get a good price for this bet, so save on some gas\r\n        if(block.timestamp > endTimestamp) { //If the user tries to place a bet but it's too late, then they can pay the gas to switch state\r\n            status = Status.NoMoreBets;\r\n        } else {\r\n            int128 new_cost;\r\n            int128 sumtotal;\r\n            for(uint j=0;j<numOfOutcomes;j++) {\r\n              if((_outcome & (1<<j)) !=0) {\r\n                q[j] = ABDKMath.add(q[j],amount);\r\n                total_balance = ABDKMath.add(total_balance,amount);\r\n              }\r\n            }\r\n            int128 _b = ABDKMath.mul(total_balance,alpha);\r\n            for(uint i=0; i<numOfOutcomes;i++) {\r\n              sumtotal = ABDKMath.add(sumtotal,\r\n                ABDKMath.exp(\r\n                  ABDKMath.div(q[i],\r\n                _b)\r\n              ));\r\n            }\r\n            new_cost = ABDKMath.mul(_b,ABDKMath.ln(sumtotal));\r\n            spot_price = ABDKMath.sub(new_cost,current_cost);\r\n            uint uprice = ABDKMath.mulu(spot_price,10**18);\r\n            uint uamount = ABDKMath.mulu(amount,10**18);\r\n            require(IERC20(currency).transferFrom(msg.sender,address(this),uprice));\r\n            IERC20(currency).approve(address(CT),uamount);\r\n            CT.splitPosition(IERC20(currency),bytes32(0),condition,getInversePartition(_outcome,numOfOutcomes),uamount);\r\n            uint pos = CT.getPositionId(IERC20(currency),CT.getCollectionId(bytes32(0),condition,_outcome));\r\n            CT.safeTransferFrom(address(this),_user,pos,uamount,'');\r\n            current_cost = new_cost;\r\n        }\r\n    }\r\n\r\n    function fu(uint256 x) public pure returns (int128) { //DEBUGGING FUNCTION - for convenience only\r\n        return ABDKMath.fromUInt(x);\r\n    }\r\n\r\n    function tu(int128 x) public pure returns (uint256) { //DEBUGGING FUNCTION - for convenience only\r\n        return ABDKMath.mulu(x,1000000);\r\n    }\r\n\r\n    function getBalanceOf(uint _outcome, address _acc) public view returns (int128) {\r\n        return balances[_outcome][_acc];\r\n    }\r\n\r\n    function outstandingShares(uint _outcome) public view returns (int128) {\r\n        return q[_outcome];\r\n    }\r\n\r\n    function totalShares() public view returns (int128) {\r\n        return total_balance;\r\n    }\r\n\r\n    /*\r\n      ORACLE FUNCTIONS\r\n    */\r\n\r\n    function setOutcome(uint _outcome) public {\r\n        require(status != Status.Disputed,\"DECISION GONE TO KLEROS\");\r\n        require(msg.sender == game_master,\"ONLY MASTER CAN CALL\");\r\n        require(block.timestamp > resultTimestamp,'TOO EARLY TO DECIDE OUTCOME');\r\n        require(status == Status.BettingOpen || status == Status.NoMoreBets,\"INVALID STATE\");\r\n        //With this implementation, the user can still set the outcome after 24h but only if nobody else has disputed\r\n        require(_outcome < numOfOutcomes+1,\"INVALID OUTCOME!!\");\r\n        outcome = _outcome;\r\n        status = Status.Appealable;\r\n        appealTimestamp = block.timestamp + DISPUTE_TIME;\r\n    }\r\n\r\n    function disputeOutcome() public payable {\r\n        require(status != Status.Disputed,\"Already disputed\");\r\n        require ( (status == Status.Appealable && block.timestamp < appealTimestamp) ||\r\n        (status == Status.NoMoreBets && block.timestamp < (resultTimestamp+DISPUTE_TIME)) ||\r\n        (status == Status.BettingOpen && block.timestamp > endTimestamp && block.timestamp>(resultTimestamp+DISPUTE_TIME)),\r\n        \"CAN'T DISPUTE\");\r\n        disputer = msg.sender;\r\n        status = Status.Disputed;\r\n        //GO TO KLEROS, DO NOT PASS GO\r\n        uint arb_cost = kleros.arbitrationCost('');\r\n        require(msg.value >= arb_cost);\r\n        dispute_id = kleros.createDispute{value: arb_cost}(numOfOutcomes,'');\r\n        emit Dispute(kleros, dispute_id, 0, 0);\r\n    }\r\n\r\n    function rule(uint _disputeID, uint _ruling) external override {\r\n        require (msg.sender == address(kleros),\"JUSE USE KLEROS\");\r\n        require (_disputeID == dispute_id,\"WRONG DISPUTE\");\r\n\r\n        if(uint(_ruling) == outcome) { //KLEROS VOTED IN FAVOUR OF THE ILP\r\n            //technically do nothing here\r\n        } else { //KLEROS CHANGED THE INITIAL OUTCOME\r\n            outcome = uint(_ruling);\r\n            game_master = disputer; //change the game master to the disputer\r\n        }\r\n        status = Status.Resolved;\r\n        emit Ruling(kleros, _disputeID, _ruling);\r\n    }\r\n\r\n    function getOutcome() public view returns (uint) {\r\n        return outcome;\r\n    }\r\n\r\n    function onERC1155Received(\r\n        address operator,\r\n        address from,\r\n        uint256 id,\r\n        uint256 value,\r\n        bytes calldata data\r\n    )\r\n        external\r\n        override\r\n        returns(bytes4) {\r\n            return this.onERC1155Received.selector;\r\n        }\r\n\r\n    function onERC1155BatchReceived(\r\n        address operator,\r\n        address from,\r\n        uint256[] calldata ids,\r\n        uint256[] calldata values,\r\n        bytes calldata data\r\n    )\r\n        external\r\n        override\r\n        returns(bytes4) {\r\n            return this.onERC1155BatchReceived.selector;\r\n        }\r\n\r\n    function supportsInterface(bytes4 interfaceId) external override view returns (bool) {}\r\n\r\n}\r\n",
  "sourcePath": "C:/Users/Abdulla/apps/CTF/contracts/SCMMaker.sol",
  "compiler": {
    "name": "solc",
    "version": "0.6.8+commit.0bbfe453.Emscripten.clang"
  },
  "schemaVersion": "3.3.0",
  "updatedAt": "2020-12-14T21:19:27.694Z",
  "devdoc": {
    "methods": {}
  },
  "userdoc": {
    "methods": {
      "constructor": "constructor function param _numOptions: How many different outcomes can you bet on? (please ignore option zero here) alpha is calculated as a constant that is used later on need to add endtime, result time, and ipfs hash*"
    }
  }
}