{
  "contractName": "SCMMaker",
  "abi": [
    {
      "inputs": [
        {
          "internalType": "address",
          "name": "_owner",
          "type": "address"
        },
        {
          "internalType": "address",
          "name": "_currency",
          "type": "address"
        },
        {
          "internalType": "address",
          "name": "_ct",
          "type": "address"
        },
        {
          "internalType": "uint256",
          "name": "_numOptions",
          "type": "uint256"
        },
        {
          "internalType": "uint256",
          "name": "endTime",
          "type": "uint256"
        },
        {
          "internalType": "string",
          "name": "hash",
          "type": "string"
        }
      ],
      "stateMutability": "nonpayable",
      "type": "constructor"
    },
    {
      "anonymous": false,
      "inputs": [
        {
          "indexed": true,
          "internalType": "contract IArbitrator",
          "name": "_arbitrator",
          "type": "address"
        },
        {
          "indexed": true,
          "internalType": "uint256",
          "name": "_disputeID",
          "type": "uint256"
        },
        {
          "indexed": false,
          "internalType": "uint256",
          "name": "_metaEvidenceID",
          "type": "uint256"
        },
        {
          "indexed": false,
          "internalType": "uint256",
          "name": "_evidenceGroupID",
          "type": "uint256"
        }
      ],
      "name": "Dispute",
      "type": "event"
    },
    {
      "anonymous": false,
      "inputs": [
        {
          "indexed": true,
          "internalType": "contract IArbitrator",
          "name": "_arbitrator",
          "type": "address"
        },
        {
          "indexed": true,
          "internalType": "uint256",
          "name": "_evidenceGroupID",
          "type": "uint256"
        },
        {
          "indexed": true,
          "internalType": "address",
          "name": "_party",
          "type": "address"
        },
        {
          "indexed": false,
          "internalType": "string",
          "name": "_evidence",
          "type": "string"
        }
      ],
      "name": "Evidence",
      "type": "event"
    },
    {
      "anonymous": false,
      "inputs": [
        {
          "indexed": true,
          "internalType": "uint256",
          "name": "_metaEvidenceID",
          "type": "uint256"
        },
        {
          "indexed": false,
          "internalType": "string",
          "name": "_evidence",
          "type": "string"
        }
      ],
      "name": "MetaEvidence",
      "type": "event"
    },
    {
      "anonymous": false,
      "inputs": [
        {
          "indexed": true,
          "internalType": "contract IArbitrator",
          "name": "_arbitrator",
          "type": "address"
        },
        {
          "indexed": true,
          "internalType": "uint256",
          "name": "_disputeID",
          "type": "uint256"
        },
        {
          "indexed": false,
          "internalType": "uint256",
          "name": "_ruling",
          "type": "uint256"
        }
      ],
      "name": "Ruling",
      "type": "event"
    },
    {
      "inputs": [],
      "name": "CT",
      "outputs": [
        {
          "internalType": "contract ConditionalTokens",
          "name": "",
          "type": "address"
        }
      ],
      "stateMutability": "view",
      "type": "function"
    },
    {
      "inputs": [],
      "name": "appealTimestamp",
      "outputs": [
        {
          "internalType": "uint256",
          "name": "",
          "type": "uint256"
        }
      ],
      "stateMutability": "view",
      "type": "function"
    },
    {
      "inputs": [],
      "name": "endTimestamp",
      "outputs": [
        {
          "internalType": "uint256",
          "name": "",
          "type": "uint256"
        }
      ],
      "stateMutability": "view",
      "type": "function"
    },
    {
      "inputs": [],
      "name": "kleros",
      "outputs": [
        {
          "internalType": "contract IArbitrator",
          "name": "",
          "type": "address"
        }
      ],
      "stateMutability": "view",
      "type": "function"
    },
    {
      "inputs": [],
      "name": "numOfOutcomes",
      "outputs": [
        {
          "internalType": "uint256",
          "name": "",
          "type": "uint256"
        }
      ],
      "stateMutability": "view",
      "type": "function"
    },
    {
      "inputs": [],
      "name": "resultTimestamp",
      "outputs": [
        {
          "internalType": "uint256",
          "name": "",
          "type": "uint256"
        }
      ],
      "stateMutability": "view",
      "type": "function"
    },
    {
      "inputs": [],
      "name": "status",
      "outputs": [
        {
          "internalType": "enum SCMMaker.Status",
          "name": "",
          "type": "uint8"
        }
      ],
      "stateMutability": "view",
      "type": "function"
    },
    {
      "inputs": [],
      "name": "cost",
      "outputs": [
        {
          "internalType": "int128",
          "name": "",
          "type": "int128"
        }
      ],
      "stateMutability": "view",
      "type": "function"
    },
    {
      "inputs": [],
      "name": "getCondition",
      "outputs": [
        {
          "internalType": "bytes32",
          "name": "",
          "type": "bytes32"
        }
      ],
      "stateMutability": "view",
      "type": "function"
    },
    {
      "inputs": [],
      "name": "getNumberOutcomes",
      "outputs": [
        {
          "internalType": "uint256",
          "name": "",
          "type": "uint256"
        }
      ],
      "stateMutability": "view",
      "type": "function"
    },
    {
      "inputs": [
        {
          "internalType": "uint256",
          "name": "_outcome",
          "type": "uint256"
        },
        {
          "internalType": "int128",
          "name": "amount",
          "type": "int128"
        }
      ],
      "name": "costafterbuy",
      "outputs": [
        {
          "internalType": "int128",
          "name": "",
          "type": "int128"
        }
      ],
      "stateMutability": "view",
      "type": "function"
    },
    {
      "inputs": [
        {
          "internalType": "uint256",
          "name": "_outcome",
          "type": "uint256"
        },
        {
          "internalType": "int128",
          "name": "amount",
          "type": "int128"
        }
      ],
      "name": "priceU",
      "outputs": [
        {
          "internalType": "uint256",
          "name": "",
          "type": "uint256"
        }
      ],
      "stateMutability": "view",
      "type": "function"
    },
    {
      "inputs": [
        {
          "internalType": "uint256",
          "name": "_outcome",
          "type": "uint256"
        },
        {
          "internalType": "int128",
          "name": "amount",
          "type": "int128"
        }
      ],
      "name": "priceI",
      "outputs": [
        {
          "internalType": "int128",
          "name": "",
          "type": "int128"
        }
      ],
      "stateMutability": "view",
      "type": "function"
    },
    {
      "inputs": [
        {
          "internalType": "uint256",
          "name": "_set",
          "type": "uint256"
        }
      ],
      "name": "getIndexSet",
      "outputs": [
        {
          "internalType": "uint256",
          "name": "",
          "type": "uint256"
        }
      ],
      "stateMutability": "pure",
      "type": "function"
    },
    {
      "inputs": [],
      "name": "getOwner",
      "outputs": [
        {
          "internalType": "address",
          "name": "",
          "type": "address"
        }
      ],
      "stateMutability": "view",
      "type": "function"
    },
    {
      "inputs": [
        {
          "internalType": "uint256",
          "name": "index",
          "type": "uint256"
        },
        {
          "internalType": "uint256",
          "name": "len",
          "type": "uint256"
        }
      ],
      "name": "getInversePartition",
      "outputs": [
        {
          "internalType": "uint256[]",
          "name": "",
          "type": "uint256[]"
        }
      ],
      "stateMutability": "pure",
      "type": "function"
    },
    {
      "inputs": [
        {
          "internalType": "address",
          "name": "_user",
          "type": "address"
        },
        {
          "internalType": "uint256",
          "name": "_outcome",
          "type": "uint256"
        },
        {
          "internalType": "int128",
          "name": "amount",
          "type": "int128"
        }
      ],
      "name": "buyshares",
      "outputs": [
        {
          "internalType": "int128",
          "name": "spot_price",
          "type": "int128"
        }
      ],
      "stateMutability": "nonpayable",
      "type": "function"
    },
    {
      "inputs": [
        {
          "internalType": "address",
          "name": "_user",
          "type": "address"
        },
        {
          "internalType": "uint256",
          "name": "_outcome",
          "type": "uint256"
        },
        {
          "internalType": "int128",
          "name": "amount",
          "type": "int128"
        }
      ],
      "name": "buyvirtualshares",
      "outputs": [
        {
          "internalType": "int128",
          "name": "spot_price",
          "type": "int128"
        }
      ],
      "stateMutability": "nonpayable",
      "type": "function"
    },
    {
      "inputs": [
        {
          "internalType": "uint256",
          "name": "_outcome",
          "type": "uint256"
        }
      ],
      "name": "setOutcome",
      "outputs": [],
      "stateMutability": "nonpayable",
      "type": "function"
    },
    {
      "inputs": [],
      "name": "disputeOutcome",
      "outputs": [],
      "stateMutability": "payable",
      "type": "function"
    },
    {
      "inputs": [
        {
          "internalType": "uint256",
          "name": "_disputeID",
          "type": "uint256"
        },
        {
          "internalType": "uint256",
          "name": "_ruling",
          "type": "uint256"
        }
      ],
      "name": "rule",
      "outputs": [],
      "stateMutability": "nonpayable",
      "type": "function"
    },
    {
      "inputs": [],
      "name": "getOutcome",
      "outputs": [
        {
          "internalType": "uint256",
          "name": "",
          "type": "uint256"
        }
      ],
      "stateMutability": "view",
      "type": "function"
    },
    {
      "inputs": [
        {
          "internalType": "address",
          "name": "operator",
          "type": "address"
        },
        {
          "internalType": "address",
          "name": "from",
          "type": "address"
        },
        {
          "internalType": "uint256",
          "name": "id",
          "type": "uint256"
        },
        {
          "internalType": "uint256",
          "name": "value",
          "type": "uint256"
        },
        {
          "internalType": "bytes",
          "name": "data",
          "type": "bytes"
        }
      ],
      "name": "onERC1155Received",
      "outputs": [
        {
          "internalType": "bytes4",
          "name": "",
          "type": "bytes4"
        }
      ],
      "stateMutability": "nonpayable",
      "type": "function"
    },
    {
      "inputs": [
        {
          "internalType": "address",
          "name": "operator",
          "type": "address"
        },
        {
          "internalType": "address",
          "name": "from",
          "type": "address"
        },
        {
          "internalType": "uint256[]",
          "name": "ids",
          "type": "uint256[]"
        },
        {
          "internalType": "uint256[]",
          "name": "values",
          "type": "uint256[]"
        },
        {
          "internalType": "bytes",
          "name": "data",
          "type": "bytes"
        }
      ],
      "name": "onERC1155BatchReceived",
      "outputs": [
        {
          "internalType": "bytes4",
          "name": "",
          "type": "bytes4"
        }
      ],
      "stateMutability": "nonpayable",
      "type": "function"
    },
    {
      "inputs": [
        {
          "internalType": "bytes4",
          "name": "interfaceId",
          "type": "bytes4"
        }
      ],
      "name": "supportsInterface",
      "outputs": [
        {
          "internalType": "bool",
          "name": "",
          "type": "bool"
        }
      ],
      "stateMutability": "view",
      "type": "function"
    }
  ],
  "bytecode": "0x608060405273aededc9a349b19508cdaed4c6f8cf244413260e7600d60006101000a81548173ffffffffffffffffffffffffffffffffffffffff021916908373ffffffffffffffffffffffffffffffffffffffff160217905550604051806020016040528060008152506011908051906020019062000080929190620017e0565b503480156200008e57600080fd5b50604051620051bc380380620051bc833981810160405260c0811015620000b457600080fd5b810190808051906020019092919080519060200190929190805190602001909291908051906020019092919080519060200190929190805160405193929190846401000000008211156200010757600080fd5b838201915060208201858111156200011e57600080fd5b82518660018202830111640100000000821117156200013c57600080fd5b8083526020830192505050908051906020019080838360005b838110156200017257808201518184015260208101905062000155565b50505050905090810190601f168015620001a05780820380516001836020036101000a031916815260200191505b506040525050508260008190555084600c60006101000a81548173ffffffffffffffffffffffffffffffffffffffff021916908373ffffffffffffffffffffffffffffffffffffffff16021790555060006200020860646200082260201b620027d71760201c565b9050600062000222856200082260201b620027d71760201c565b90506200027e60016200026d600a6200025c856200024b876200084660201b620027fa1760201c565b6200088960201b620028341760201c565b6200088960201b620028341760201c565b620008f660201b6200289f1760201c565b600460106101000a8154816fffffffffffffffffffffffffffffffff0219169083600f0b6fffffffffffffffffffffffffffffffff160217905550620002f5620002d483836200088960201b620028341760201c565b600460109054906101000a9004600f0b6200088960201b620028341760201c565b600460006101000a8154816fffffffffffffffffffffffffffffffff0219169083600f0b6fffffffffffffffffffffffffffffffff1602179055506000806200036e6200035d85600460009054906101000a9004600f0b620008f660201b6200289f1760201c565b6200097d60201b620029221760201c565b905089600a60006101000a81548173ffffffffffffffffffffffffffffffffffffffff021916908373ffffffffffffffffffffffffffffffffffffffff16021790555060008090505b600054811015620004b35760028590806001815401808255809150506001900390600052602060002090600291828204019190066010029091909190916101000a8154816fffffffffffffffffffffffffffffffff0219169083600f0b6fffffffffffffffffffffffffffffffff16021790555062000442838362000a0160201b6200299b1760201c565b92506200046a600560109054906101000a9004600f0b8662000a0160201b6200299b1760201c565b600560106101000a8154816fffffffffffffffffffffffffffffffff0219169083600f0b6fffffffffffffffffffffffffffffffff1602179055508080600101915050620003b7565b50620004ef600460009054906101000a9004600f0b620004de846200084660201b620027fa1760201c565b6200088960201b620028341760201c565b600560006101000a8154816fffffffffffffffffffffffffffffffff0219169083600f0b6fffffffffffffffffffffffffffffffff160217905550856007819055508560088190555060007f61606860eb6c87306811e2695215385101daab53bd6ab4e9f9049aead9363c7d866040518080602001828103825283818151815260200191508051906020019080838360005b838110156200059e57808201518184015260208101905062000581565b50505050905090810190601f168015620005cc5780820380516001836020036101000a031916815260200191505b509250505060405180910390a287600e60006101000a81548173ffffffffffffffffffffffffffffffffffffffff021916908373ffffffffffffffffffffffffffffffffffffffff160217905550600e60009054906101000a900473ffffffffffffffffffffffffffffffffffffffff1673ffffffffffffffffffffffffffffffffffffffff1663d96ee7543060603073ffffffffffffffffffffffffffffffffffffffff16901b60001b8a6040518463ffffffff1660e01b8152600401808473ffffffffffffffffffffffffffffffffffffffff1673ffffffffffffffffffffffffffffffffffffffff1681526020018381526020018281526020019350505050600060405180830381600087803b158015620006e957600080fd5b505af1158015620006fe573d6000803e3d6000fd5b50505050600e60009054906101000a900473ffffffffffffffffffffffffffffffffffffffff1673ffffffffffffffffffffffffffffffffffffffff1663852c6ae23060603073ffffffffffffffffffffffffffffffffffffffff16901b60001b8a6040518463ffffffff1660e01b8152600401808473ffffffffffffffffffffffffffffffffffffffff1673ffffffffffffffffffffffffffffffffffffffff168152602001838152602001828152602001935050505060206040518083038186803b158015620007cf57600080fd5b505afa158015620007e4573d6000803e3d6000fd5b505050506040513d6020811015620007fb57600080fd5b8101908080519060200190929190505050600f81905550505050505050505050506200188f565b6000677fffffffffffffff8211156200083a57600080fd5b604082901b9050919050565b60008082600f0b136200085857600080fd5b60806fb17217f7d1cf79abc9e3b39803f2f6af6200087c8462000a6a60201b60201c565b600f0b02901c9050919050565b600080604083600f0b85600f0b02901d90507fffffffffffffffffffffffffffffffff80000000000000000000000000000000600f0b8112158015620008e257506f7fffffffffffffffffffffffffffffff600f0b8113155b620008ec57600080fd5b8091505092915050565b60008082600f0b14156200090957600080fd5b600082600f0b604085600f0b901b816200091f57fe5b0590507fffffffffffffffffffffffffffffffff80000000000000000000000000000000600f0b81121580156200096957506f7fffffffffffffffffffffffffffffff600f0b8113155b6200097357600080fd5b8091505092915050565b60006840000000000000000082600f0b126200099857600080fd5b7fffffffffffffffffffffffffffffffffffffffffffffffc0000000000000000082600f0b1215620009ce5760009050620009fc565b620009f96080700171547652b82fe1777d0ffda0d23a7d1284600f0b02901d62000b9c60201b60201c565b90505b919050565b60008082600f0b84600f0b0190507fffffffffffffffffffffffffffffffff80000000000000000000000000000000600f0b811215801562000a5657506f7fffffffffffffffffffffffffffffff600f0b8113155b62000a6057600080fd5b8091505092915050565b60008082600f0b1362000a7c57600080fd5b6000809050600083600f0b905068010000000000000000811262000aa857604081901d90506040820191505b640100000000811262000ac357602081901d90506020820191505b62010000811262000adc57601081901d90506010820191505b610100811262000af457600881901d90506008820191505b6010811262000b0b57600481901d90506004820191505b6004811262000b2257600281901d90506002820191505b6002811262000b32576001820191505b60006040808403901b9050600083607f0386600f0b901b9050600067800000000000000090505b600081131562000b8f578182029150600060ff83901c905080607f0183901c92508082028401935050600181901d905062000b59565b5081945050505050919050565b60006840000000000000000082600f0b1262000bb757600080fd5b7fffffffffffffffffffffffffffffffffffffffffffffffc0000000000000000082600f0b121562000bed5760009050620017db565b60006f80000000000000000000000000000000905060006780000000000000008416600f0b131562000c3457608070016a09e667f3bcc908b2fb1366ea957d3e8202901c90505b60006740000000000000008416600f0b131562000c665760807001306fe0a31b7152de8d5a46305c85edec8202901c90505b60006720000000000000008416600f0b131562000c985760807001172b83c7d517adcdf7c8c50eb14a791f8202901c90505b60006710000000000000008416600f0b131562000cca57608070010b5586cf9890f6298b92b71842a983638202901c90505b60006708000000000000008416600f0b131562000cfc5760807001059b0d31585743ae7c548eb68ca417fd8202901c90505b60006704000000000000008416600f0b131562000d2e576080700102c9a3e778060ee6f7caca4f7a29bde88202901c90505b60006702000000000000008416600f0b131562000d6057608070010163da9fb33356d84a66ae336dcdfa3f8202901c90505b60006701000000000000008416600f0b131562000d92576080700100b1afa5abcbed6129ab13ec11dc95438202901c90505b600066800000000000008416600f0b131562000dc357608070010058c86da1c09ea1ff19d294cf2f679b8202901c90505b600066400000000000008416600f0b131562000df45760807001002c605e2e8cec506d21bfc89a23a00f8202901c90505b600066200000000000008416600f0b131562000e25576080700100162f3904051fa128bca9c55c31e5df8202901c90505b600066100000000000008416600f0b131562000e565760807001000b175effdc76ba38e31671ca9397258202901c90505b600066080000000000008416600f0b131562000e87576080700100058ba01fb9f96d6cacd4b180917c3d8202901c90505b600066040000000000008416600f0b131562000eb857608070010002c5cc37da9491d0985c348c68e7b38202901c90505b600066020000000000008416600f0b131562000ee95760807001000162e525ee054754457d59952920268202901c90505b600066010000000000008416600f0b131562000f1a57608070010000b17255775c040618bf4a4ade83fc8202901c90505b6000658000000000008416600f0b131562000f4a5760807001000058b91b5bc9ae2eed81e9b7d4cfab8202901c90505b6000654000000000008416600f0b131562000f7a576080700100002c5c89d5ec6ca4d7c8acc017b7c98202901c90505b6000652000000000008416600f0b131562000faa57608070010000162e43f4f831060e02d839a9d16d8202901c90505b6000651000000000008416600f0b131562000fda576080700100000b1721bcfc99d9f890ea069117638202901c90505b6000650800000000008416600f0b13156200100a57608070010000058b90cf1e6d97f9ca14dbcc16288202901c90505b6000650400000000008416600f0b13156200103a5760807001000002c5c863b73f016468f6bac5ca2b8202901c90505b6000650200000000008416600f0b13156200106a576080700100000162e430e5a18f6119e3c02282a58202901c90505b6000650100000000008416600f0b13156200109a5760807001000000b1721835514b86e6d96efd1bfe8202901c90505b60006480000000008416600f0b1315620010c9576080700100000058b90c0b48c6be5df846c5b2ef8202901c90505b60006440000000008416600f0b1315620010f857608070010000002c5c8601cc6b9e94213c72737a8202901c90505b60006420000000008416600f0b1315620011275760807001000000162e42fff037df38aa2b219f068202901c90505b60006410000000008416600f0b13156200115657608070010000000b17217fba9c739aa5819f44f98202901c90505b60006408000000008416600f0b1315620011855760807001000000058b90bfcdee5acd3c1cedc8238202901c90505b60006404000000008416600f0b1315620011b4576080700100000002c5c85fe31f35a6a30da1be508202901c90505b60006402000000008416600f0b1315620011e357608070010000000162e42ff0999ce3541b9fffcf8202901c90505b60006401000000008416600f0b131562001212576080700100000000b17217f80f4ef5aadda455548202901c90505b600063800000008416600f0b13156200124057608070010000000058b90bfbf8479bd5a81b51ad8202901c90505b600063400000008416600f0b13156200126e5760807001000000002c5c85fdf84bd62ae30a74cc8202901c90505b600063200000008416600f0b13156200129c576080700100000000162e42fefb2fed257559bdaa8202901c90505b600063100000008416600f0b1315620012ca5760807001000000000b17217f7d5a7716bba4a9ae8202901c90505b600063080000008416600f0b1315620012f8576080700100000000058b90bfbe9ddbac5e109cce8202901c90505b600063040000008416600f0b13156200132657608070010000000002c5c85fdf4b15de6f17eb0d8202901c90505b600063020000008416600f0b1315620013545760807001000000000162e42fefa494f1478fde058202901c90505b600063010000008416600f0b13156200138257608070010000000000b17217f7d20cf927c8e94c8202901c90505b6000628000008416600f0b1315620013af5760807001000000000058b90bfbe8f71cb4e4b33d8202901c90505b6000624000008416600f0b1315620013dc576080700100000000002c5c85fdf477b662b269458202901c90505b6000622000008416600f0b13156200140957608070010000000000162e42fefa3ae53369388c8202901c90505b6000621000008416600f0b131562001436576080700100000000000b17217f7d1d351a389d408202901c90505b6000620800008416600f0b13156200146357608070010000000000058b90bfbe8e8b2d3d4ede8202901c90505b6000620400008416600f0b1315620014905760807001000000000002c5c85fdf4741bea6e77e8202901c90505b6000620200008416600f0b1315620014bd576080700100000000000162e42fefa39fe95583c28202901c90505b6000620100008416600f0b1315620014ea5760807001000000000000b17217f7d1cfb72b45e18202901c90505b60006180008416600f0b131562001516576080700100000000000058b90bfbe8e7cc35c3f08202901c90505b60006140008416600f0b13156200154257608070010000000000002c5c85fdf473e242ea388202901c90505b60006120008416600f0b13156200156e5760807001000000000000162e42fefa39f02b772c8202901c90505b60006110008416600f0b13156200159a57608070010000000000000b17217f7d1cf7d83c1a8202901c90505b60006108008416600f0b1315620015c65760807001000000000000058b90bfbe8e7bdcbe2e8202901c90505b60006104008416600f0b1315620015f2576080700100000000000002c5c85fdf473dea871f8202901c90505b60006102008416600f0b13156200161e57608070010000000000000162e42fefa39ef44d918202901c90505b60006101008416600f0b13156200164a576080700100000000000000b17217f7d1cf79e9498202901c90505b600060808416600f0b13156200167557608070010000000000000058b90bfbe8e7bce5448202901c90505b600060408416600f0b1315620016a05760807001000000000000002c5c85fdf473de6eca8202901c90505b600060208416600f0b1315620016cb576080700100000000000000162e42fefa39ef366f8202901c90505b600060108416600f0b1315620016f65760807001000000000000000b17217f7d1cf79afa8202901c90505b600060088416600f0b131562001721576080700100000000000000058b90bfbe8e7bcd6d8202901c90505b600060048416600f0b13156200174c57608070010000000000000002c5c85fdf473de6b28202901c90505b600060028416600f0b1315620017775760807001000000000000000162e42fefa39ef3588202901c90505b600060018416600f0b1315620017a257608070010000000000000000b17217f7d1cf79ab8202901c90505b604083600f0b901d603f03600f0b81901c90506f7fffffffffffffffffffffffffffffff600f0b811115620017d657600080fd5b809150505b919050565b828054600181600116156101000203166002900490600052602060002090601f016020900481019282601f106200182357805160ff191683800117855562001854565b8280016001018555821562001854579182015b828111156200185357825182559160200191906001019062001836565b5b50905062001863919062001867565b5090565b6200188c91905b80821115620018885760008160009055506001016200186e565b5090565b90565b61391d806200189f6000396000f3fe6080604052600436106101665760003560e01c80637249f3e4116100d1578063b2d057111161008a578063bc197c8111610064578063bc197c8114610737578063bfc3d84b146108f9578063f23a6e6114610950578063fcbc684714610a7c57610166565b8063b2d05711146106a0578063b77641ad146106cb578063b9f9b37d146106d557610166565b80637249f3e4146104885780637e7e4b471461050a578063893d20e8146105355780638ae041d11461058c5780638d527648146105db578063a85adeab1461067557610166565b8063311a6c5611610123578063311a6c56146102ff57806331b2100614610344578063416e517e146103a05780634f09d6b5146103db5780635a92032014610406578063680baeb81461045d57610166565b806301ffc9a71461016b5780630d76da98146101dd57806313faede6146102085780631444477214610239578063200d2ed214610264578063297166bf1461029d575b600080fd5b34801561017757600080fd5b506101c36004803603602081101561018e57600080fd5b8101908080357bffffffffffffffffffffffffffffffffffffffffffffffffffffffff19169060200190929190505050610afe565b604051808215151515815260200191505060405180910390f35b3480156101e957600080fd5b506101f2610b05565b6040518082815260200191505060405180910390f35b34801561021457600080fd5b5061021d610b0e565b6040518082600f0b600f0b815260200191505060405180910390f35b34801561024557600080fd5b5061024e610bb1565b6040518082815260200191505060405180910390f35b34801561027057600080fd5b50610279610bb7565b6040518082600481111561028957fe5b60ff16815260200191505060405180910390f35b3480156102a957600080fd5b506102e3600480360360408110156102c057600080fd5b81019080803590602001909291908035600f0b9060200190929190505050610bca565b6040518082600f0b600f0b815260200191505060405180910390f35b34801561030b57600080fd5b506103426004803603604081101561032257600080fd5b810190808035906020019092919080359060200190929190505050610bee565b005b34801561035057600080fd5b5061038a6004803603604081101561036757600080fd5b81019080803590602001909291908035600f0b9060200190929190505050610e3b565b6040518082815260200191505060405180910390f35b3480156103ac57600080fd5b506103d9600480360360208110156103c357600080fd5b8101908080359060200190929190505050610e6b565b005b3480156103e757600080fd5b506103f0611244565b6040518082815260200191505060405180910390f35b34801561041257600080fd5b5061041b61124a565b604051808273ffffffffffffffffffffffffffffffffffffffff1673ffffffffffffffffffffffffffffffffffffffff16815260200191505060405180910390f35b34801561046957600080fd5b50610472611270565b6040518082815260200191505060405180910390f35b34801561049457600080fd5b506104ee600480360360608110156104ab57600080fd5b81019080803573ffffffffffffffffffffffffffffffffffffffff169060200190929190803590602001909291908035600f0b906020019092919050505061127a565b6040518082600f0b600f0b815260200191505060405180910390f35b34801561051657600080fd5b5061051f611cc9565b6040518082815260200191505060405180910390f35b34801561054157600080fd5b5061054a611cd3565b604051808273ffffffffffffffffffffffffffffffffffffffff1673ffffffffffffffffffffffffffffffffffffffff16815260200191505060405180910390f35b34801561059857600080fd5b506105c5600480360360208110156105af57600080fd5b8101908080359060200190929190505050611cfd565b6040518082815260200191505060405180910390f35b3480156105e757600080fd5b5061061e600480360360408110156105fe57600080fd5b810190808035906020019092919080359060200190929190505050611d0b565b6040518080602001828103825283818151815260200191508051906020019060200280838360005b83811015610661578082015181840152602081019050610646565b505050509050019250505060405180910390f35b34801561068157600080fd5b5061068a611d9f565b6040518082815260200191505060405180910390f35b3480156106ac57600080fd5b506106b5611da5565b6040518082815260200191505060405180910390f35b6106d3611dab565b005b3480156106e157600080fd5b5061071b600480360360408110156106f857600080fd5b81019080803590602001909291908035600f0b90602001909291905050506121fc565b6040518082600f0b600f0b815260200191505060405180910390f35b34801561074357600080fd5b506108a5600480360360a081101561075a57600080fd5b81019080803573ffffffffffffffffffffffffffffffffffffffff169060200190929190803573ffffffffffffffffffffffffffffffffffffffff169060200190929190803590602001906401000000008111156107b757600080fd5b8201836020820111156107c957600080fd5b803590602001918460208302840111640100000000831117156107eb57600080fd5b90919293919293908035906020019064010000000081111561080c57600080fd5b82018360208201111561081e57600080fd5b8035906020019184602083028401116401000000008311171561084057600080fd5b90919293919293908035906020019064010000000081111561086157600080fd5b82018360208201111561087357600080fd5b8035906020019184600183028401116401000000008311171561089557600080fd5b90919293919293905050506123b2565b60405180827bffffffffffffffffffffffffffffffffffffffffffffffffffffffff19167bffffffffffffffffffffffffffffffffffffffffffffffffffffffff1916815260200191505060405180910390f35b34801561090557600080fd5b5061090e6123ca565b604051808273ffffffffffffffffffffffffffffffffffffffff1673ffffffffffffffffffffffffffffffffffffffff16815260200191505060405180910390f35b34801561095c57600080fd5b50610a28600480360360a081101561097357600080fd5b81019080803573ffffffffffffffffffffffffffffffffffffffff169060200190929190803573ffffffffffffffffffffffffffffffffffffffff1690602001909291908035906020019092919080359060200190929190803590602001906401000000008111156109e457600080fd5b8201836020820111156109f657600080fd5b80359060200191846001830284011164010000000083111715610a1857600080fd5b90919293919293905050506123f0565b60405180827bffffffffffffffffffffffffffffffffffffffffffffffffffffffff19167bffffffffffffffffffffffffffffffffffffffffffffffffffffffff1916815260200191505060405180910390f35b348015610a8857600080fd5b50610ae260048036036060811015610a9f57600080fd5b81019080803573ffffffffffffffffffffffffffffffffffffffff169060200190929190803590602001909291908035600f0b9060200190929190505050612406565b6040518082600f0b600f0b815260200191505060405180910390f35b6000919050565b60008054905090565b60008060008090505b600054811015610b8957610b7a82610b75610b7060028581548110610b3857fe5b90600052602060002090600291828204019190066010029054906101000a9004600f0b600460009054906101000a9004600f0b61289f565b612922565b61299b565b91508080600101915050610b17565b50610bab600460009054906101000a9004600f0b610ba6836127fa565b612834565b91505090565b60005481565b601060009054906101000a900460ff1681565b6000610be6610bd984846121fc565b610be1610b0e565b612a02565b905092915050565b600d60009054906101000a900473ffffffffffffffffffffffffffffffffffffffff1673ffffffffffffffffffffffffffffffffffffffff163373ffffffffffffffffffffffffffffffffffffffff1614610cb1576040517f08c379a000000000000000000000000000000000000000000000000000000000815260040180806020018281038252600f8152602001807f4a55534520555345204b4c45524f53000000000000000000000000000000000081525060200191505060405180910390fd5b6009548214610d28576040517f08c379a000000000000000000000000000000000000000000000000000000000815260040180806020018281038252600d8152602001807f57524f4e4720444953505554450000000000000000000000000000000000000081525060200191505060405180910390fd5b600154811415610d3757610da2565b80600181905550600b60009054906101000a900473ffffffffffffffffffffffffffffffffffffffff16600a60006101000a81548173ffffffffffffffffffffffffffffffffffffffff021916908373ffffffffffffffffffffffffffffffffffffffff1602179055505b6004601060006101000a81548160ff02191690836004811115610dc157fe5b021790555081600d60009054906101000a900473ffffffffffffffffffffffffffffffffffffffff1673ffffffffffffffffffffffffffffffffffffffff167f394027a5fa6e098a1191094d1719d6929b9abc535fcc0c8f448d6a4e75622276836040518082815260200191505060405180910390a35050565b6000610e63610e5a610e4d85856121fc565b610e55610b0e565b612a02565b620f4240612a69565b905092915050565b60036004811115610e7857fe5b601060009054906101000a900460ff166004811115610e9357fe5b1415610f07576040517f08c379a00000000000000000000000000000000000000000000000000000000081526004018080602001828103825260178152602001807f4445434953494f4e20474f4e4520544f204b4c45524f5300000000000000000081525060200191505060405180910390fd5b600a60009054906101000a900473ffffffffffffffffffffffffffffffffffffffff1673ffffffffffffffffffffffffffffffffffffffff163373ffffffffffffffffffffffffffffffffffffffff1614610fca576040517f08c379a00000000000000000000000000000000000000000000000000000000081526004018080602001828103825260148152602001807f4f4e4c59204d41535445522043414e2043414c4c00000000000000000000000081525060200191505060405180910390fd5b6008544211611041576040517f08c379a000000000000000000000000000000000000000000000000000000000815260040180806020018281038252601b8152602001807f544f4f204541524c5920544f20444543494445204f5554434f4d45000000000081525060200191505060405180910390fd5b6000600481111561104e57fe5b601060009054906101000a900460ff16600481111561106957fe5b148061109a57506001600481111561107d57fe5b601060009054906101000a900460ff16600481111561109857fe5b145b61110c576040517f08c379a000000000000000000000000000000000000000000000000000000000815260040180806020018281038252600d8152602001807f494e56414c49442053544154450000000000000000000000000000000000000081525060200191505060405180910390fd5b806001819055506002601060006101000a81548160ff0219169083600481111561113257fe5b0217905550620151804201600681905550600e60009054906101000a900473ffffffffffffffffffffffffffffffffffffffff1673ffffffffffffffffffffffffffffffffffffffff1663c49298ac60603073ffffffffffffffffffffffffffffffffffffffff16901b60001b6111ab84600054612b24565b6040518363ffffffff1660e01b81526004018083815260200180602001828103825283818151815260200191508051906020019060200280838360005b838110156112035780820151818401526020810190506111e8565b505050509050019350505050600060405180830381600087803b15801561122957600080fd5b505af115801561123d573d6000803e3d6000fd5b5050505050565b60065481565b600d60009054906101000a900473ffffffffffffffffffffffffffffffffffffffff1681565b6000600f54905090565b600080600481111561128857fe5b601060009054906101000a900460ff1660048111156112a357fe5b14611316576040517f08c379a000000000000000000000000000000000000000000000000000000000815260040180806020018281038252600c8152602001807f4e6f206d6f72652062657473000000000000000000000000000000000000000081525060200191505060405180910390fd5b600560109054906101000a9004600f0b600f0b82600f0b126113a0576040517f08c379a00000000000000000000000000000000000000000000000000000000081526004018080602001828103825260178152602001807f427579696e6720746f6f206d616e79207368617265732100000000000000000081525060200191505060405180910390fd5b6007544211156113d3576001601060006101000a81548160ff021916908360048111156113c957fe5b0217905550611cc2565b60008060008090505b6000548110156114ea576000816001901b8716146114dd5761142d6002828154811061140457fe5b90600052602060002090600291828204019190066010029054906101000a9004600f0b8661299b565b6002828154811061143a57fe5b90600052602060002090600291828204019190066010026101000a8154816fffffffffffffffffffffffffffffffff0219169083600f0b6fffffffffffffffffffffffffffffffff1602179055506114a1600560109054906101000a9004600f0b8661299b565b600560106101000a8154816fffffffffffffffffffffffffffffffff0219169083600f0b6fffffffffffffffffffffffffffffffff1602179055505b80806001019150506113dc565b50611513600560109054906101000a9004600f0b600460109054906101000a9004600f0b612834565b600460006101000a8154816fffffffffffffffffffffffffffffffff0219169083600f0b6fffffffffffffffffffffffffffffffff16021790555060008090505b6000548110156115c6576115b7826115b26115ad6002858154811061157557fe5b90600052602060002090600291828204019190066010029054906101000a9004600f0b600460009054906101000a9004600f0b61289f565b612922565b61299b565b91508080600101915050611554565b506115e8600460009054906101000a9004600f0b6115e3836127fa565b612834565b915061160382600560009054906101000a9004600f0b612a02565b9250600061161984670de0b6b3a7640000612a69565b9050600061162f86670de0b6b3a7640000612a69565b9050600c60009054906101000a900473ffffffffffffffffffffffffffffffffffffffff1673ffffffffffffffffffffffffffffffffffffffff166323b872dd3330856040518463ffffffff1660e01b8152600401808473ffffffffffffffffffffffffffffffffffffffff1673ffffffffffffffffffffffffffffffffffffffff1681526020018373ffffffffffffffffffffffffffffffffffffffff1673ffffffffffffffffffffffffffffffffffffffff1681526020018281526020019350505050602060405180830381600087803b15801561170e57600080fd5b505af1158015611722573d6000803e3d6000fd5b505050506040513d602081101561173857600080fd5b810190808051906020019092919050505061175257600080fd5b600c60009054906101000a900473ffffffffffffffffffffffffffffffffffffffff1673ffffffffffffffffffffffffffffffffffffffff1663095ea7b3600e60009054906101000a900473ffffffffffffffffffffffffffffffffffffffff16836040518363ffffffff1660e01b8152600401808373ffffffffffffffffffffffffffffffffffffffff1673ffffffffffffffffffffffffffffffffffffffff16815260200182815260200192505050602060405180830381600087803b15801561181d57600080fd5b505af1158015611831573d6000803e3d6000fd5b505050506040513d602081101561184757600080fd5b810190808051906020019092919050505050600e60009054906101000a900473ffffffffffffffffffffffffffffffffffffffff1673ffffffffffffffffffffffffffffffffffffffff166372ce4275600c60009054906101000a900473ffffffffffffffffffffffffffffffffffffffff166000801b600f546118cd8c600054611d0b565b866040518663ffffffff1660e01b8152600401808673ffffffffffffffffffffffffffffffffffffffff1673ffffffffffffffffffffffffffffffffffffffff16815260200185815260200184815260200180602001838152602001828103825284818151815260200191508051906020019060200280838360005b83811015611964578082015181840152602081019050611949565b505050509050019650505050505050600060405180830381600087803b15801561198d57600080fd5b505af11580156119a1573d6000803e3d6000fd5b505050506000600e60009054906101000a900473ffffffffffffffffffffffffffffffffffffffff1673ffffffffffffffffffffffffffffffffffffffff166339dd7530600c60009054906101000a900473ffffffffffffffffffffffffffffffffffffffff16600e60009054906101000a900473ffffffffffffffffffffffffffffffffffffffff1673ffffffffffffffffffffffffffffffffffffffff1663856296f76000801b600f548e6040518463ffffffff1660e01b815260040180848152602001838152602001828152602001935050505060206040518083038186803b158015611a9057600080fd5b505afa158015611aa4573d6000803e3d6000fd5b505050506040513d6020811015611aba57600080fd5b81019080805190602001909291905050506040518363ffffffff1660e01b8152600401808373ffffffffffffffffffffffffffffffffffffffff1673ffffffffffffffffffffffffffffffffffffffff1681526020018281526020019250505060206040518083038186803b158015611b3257600080fd5b505afa158015611b46573d6000803e3d6000fd5b505050506040513d6020811015611b5c57600080fd5b81019080805190602001909291905050509050600e60009054906101000a900473ffffffffffffffffffffffffffffffffffffffff1673ffffffffffffffffffffffffffffffffffffffff1663f242432a308b84866040518563ffffffff1660e01b8152600401808573ffffffffffffffffffffffffffffffffffffffff1673ffffffffffffffffffffffffffffffffffffffff1681526020018473ffffffffffffffffffffffffffffffffffffffff1673ffffffffffffffffffffffffffffffffffffffff1681526020018381526020018281526020018060200182810382526000815260200160200195505050505050600060405180830381600087803b158015611c6857600080fd5b505af1158015611c7c573d6000803e3d6000fd5b5050505084600560006101000a8154816fffffffffffffffffffffffffffffffff0219169083600f0b6fffffffffffffffffffffffffffffffff16021790555050505050505b9392505050565b6000600154905090565b6000600a60009054906101000a900473ffffffffffffffffffffffffffffffffffffffff16905090565b6000816001901b9050919050565b606080600267ffffffffffffffff81118015611d2657600080fd5b50604051908082528060200260200182016040528015611d555781602001602082028036833780820191505090505b5090508381600081518110611d6657fe5b602002602001018181525050836001846001901b030381600181518110611d8957fe5b6020026020010181815250508091505092915050565b60075481565b60085481565b60036004811115611db857fe5b601060009054906101000a900460ff166004811115611dd357fe5b1415611e47576040517f08c379a00000000000000000000000000000000000000000000000000000000081526004018080602001828103825260108152602001807f416c72656164792064697370757465640000000000000000000000000000000081525060200191505060405180910390fd5b60026004811115611e5457fe5b601060009054906101000a900460ff166004811115611e6f57fe5b148015611e7d575060065442105b80611ebf575060016004811115611e9057fe5b601060009054906101000a900460ff166004811115611eab57fe5b148015611ebe5750620151806008540142105b5b80611f0e575060006004811115611ed257fe5b601060009054906101000a900460ff166004811115611eed57fe5b148015611efb575060075442115b8015611f0d5750620151806008540142115b5b611f80576040517f08c379a000000000000000000000000000000000000000000000000000000000815260040180806020018281038252600d8152602001807f43414e275420444953505554450000000000000000000000000000000000000081525060200191505060405180910390fd5b33600b60006101000a81548173ffffffffffffffffffffffffffffffffffffffff021916908373ffffffffffffffffffffffffffffffffffffffff1602179055506003601060006101000a81548160ff02191690836004811115611fe057fe5b02179055506000600d60009054906101000a900473ffffffffffffffffffffffffffffffffffffffff1673ffffffffffffffffffffffffffffffffffffffff1663f7434ea96040518163ffffffff1660e01b8152600401808060200182810382526000815260200160200191505060206040518083038186803b15801561206657600080fd5b505afa15801561207a573d6000803e3d6000fd5b505050506040513d602081101561209057600080fd5b81019080805190602001909291905050509050803410156120b057600080fd5b600d60009054906101000a900473ffffffffffffffffffffffffffffffffffffffff1673ffffffffffffffffffffffffffffffffffffffff1663c13517e1826000546040518363ffffffff1660e01b81526004018082815260200180602001828103825260008152602001602001925050506020604051808303818588803b15801561213b57600080fd5b505af115801561214f573d6000803e3d6000fd5b50505050506040513d602081101561216657600080fd5b8101908080519060200190929190505050600981905550600954600d60009054906101000a900473ffffffffffffffffffffffffffffffffffffffff1673ffffffffffffffffffffffffffffffffffffffff167f74baab670a4015ab2f1b467c5252a96141a2573f2908e58a92081e80d3cfde3d600080604051808381526020018281526020019250505060405180910390a350565b600080606060028054905067ffffffffffffffff8111801561221d57600080fd5b5060405190808252806020026020018201604052801561224c5781602001602082028036833780820191505090505b5090506000600560109054906101000a9004600f0b905060008090505b600054811015612328576002818154811061228057fe5b90600052602060002090600291828204019190066010029054906101000a9004600f0b8382815181106122af57fe5b6020026020010190600f0b9081600f0b815250506000816001901b88161461231b576122ee8382815181106122e057fe5b60200260200101518761299b565b8382815181106122fa57fe5b6020026020010190600f0b9081600f0b81525050612318828761299b565b91505b8080600101915050612269565b50600061234482600460109054906101000a9004600f0b612834565b905060008090505b600054811015612393576123848561237f61237a87858151811061236c57fe5b60200260200101518661289f565b612922565b61299b565b9450808060010191505061234c565b506123a6816123a1866127fa565b612834565b94505050505092915050565b600063bc197c8160e01b905098975050505050505050565b600e60009054906101000a900473ffffffffffffffffffffffffffffffffffffffff1681565b600063f23a6e6160e01b90509695505050505050565b600080600481111561241457fe5b601060009054906101000a900460ff16600481111561242f57fe5b146124a2576040517f08c379a000000000000000000000000000000000000000000000000000000000815260040180806020018281038252600c8152602001807f4e6f206d6f72652062657473000000000000000000000000000000000000000081525060200191505060405180910390fd5b600560109054906101000a9004600f0b600f0b82600f0b1261252c576040517f08c379a00000000000000000000000000000000000000000000000000000000081526004018080602001828103825260178152602001807f427579696e6720746f6f206d616e79207368617265732100000000000000000081525060200191505060405180910390fd5b60075442111561255f576001601060006101000a81548160ff0219169083600481111561255557fe5b02179055506127d0565b60008060008090505b600054811015612676576000816001901b871614612669576125b96002828154811061259057fe5b90600052602060002090600291828204019190066010029054906101000a9004600f0b8661299b565b600282815481106125c657fe5b90600052602060002090600291828204019190066010026101000a8154816fffffffffffffffffffffffffffffffff0219169083600f0b6fffffffffffffffffffffffffffffffff16021790555061262d600560109054906101000a9004600f0b8661299b565b600560106101000a8154816fffffffffffffffffffffffffffffffff0219169083600f0b6fffffffffffffffffffffffffffffffff1602179055505b8080600101915050612568565b5061269f600560109054906101000a9004600f0b600460109054906101000a9004600f0b612834565b600460006101000a8154816fffffffffffffffffffffffffffffffff0219169083600f0b6fffffffffffffffffffffffffffffffff16021790555060008090505b600054811015612752576127438261273e6127396002858154811061270157fe5b90600052602060002090600291828204019190066010029054906101000a9004600f0b600460009054906101000a9004600f0b61289f565b612922565b61299b565b915080806001019150506126e0565b50612774600460009054906101000a9004600f0b61276f836127fa565b612834565b915061278f82600560009054906101000a9004600f0b612a02565b925081600560006101000a8154816fffffffffffffffffffffffffffffffff0219169083600f0b6fffffffffffffffffffffffffffffffff16021790555050505b9392505050565b6000677fffffffffffffff8211156127ee57600080fd5b604082901b9050919050565b60008082600f0b1361280b57600080fd5b60806fb17217f7d1cf79abc9e3b39803f2f6af61282784612bbf565b600f0b02901c9050919050565b600080604083600f0b85600f0b02901d90507fffffffffffffffffffffffffffffffff80000000000000000000000000000000600f0b811215801561288c57506f7fffffffffffffffffffffffffffffff600f0b8113155b61289557600080fd5b8091505092915050565b60008082600f0b14156128b157600080fd5b600082600f0b604085600f0b901b816128c657fe5b0590507fffffffffffffffffffffffffffffffff80000000000000000000000000000000600f0b811215801561290f57506f7fffffffffffffffffffffffffffffff600f0b8113155b61291857600080fd5b8091505092915050565b60006840000000000000000082600f0b1261293c57600080fd5b7fffffffffffffffffffffffffffffffffffffffffffffffc0000000000000000082600f0b12156129705760009050612996565b6129936080700171547652b82fe1777d0ffda0d23a7d1284600f0b02901d612ce7565b90505b919050565b60008082600f0b84600f0b0190507fffffffffffffffffffffffffffffffff80000000000000000000000000000000600f0b81121580156129ef57506f7fffffffffffffffffffffffffffffff600f0b8113155b6129f857600080fd5b8091505092915050565b60008082600f0b84600f0b0390507fffffffffffffffffffffffffffffffff80000000000000000000000000000000600f0b8112158015612a5657506f7fffffffffffffffffffffffffffffff600f0b8113155b612a5f57600080fd5b8091505092915050565b600080821415612a7c5760009050612b1e565b600083600f0b1215612a8d57600080fd5b600060406fffffffffffffffffffffffffffffffff841685600f0b02901c90506000608084901c85600f0b02905077ffffffffffffffffffffffffffffffffffffffffffffffff811115612ae057600080fd5b604081901b9050817fffffffffffffffffffffffffffffffffffffffffffffffffffffffffffffffff03811115612b1657600080fd5b818101925050505b92915050565b6060808267ffffffffffffffff81118015612b3e57600080fd5b50604051908082528060200260200182016040528015612b6d5781602001602082028036833780820191505090505b50905060008090505b83811015612bb4576000816001901b861614612ba7576001828281518110612b9a57fe5b6020026020010181815250505b8080600101915050612b76565b508091505092915050565b60008082600f0b13612bd057600080fd5b6000809050600083600f0b9050680100000000000000008112612bfb57604081901d90506040820191505b6401000000008112612c1557602081901d90506020820191505b620100008112612c2d57601081901d90506010820191505b6101008112612c4457600881901d90506008820191505b60108112612c5a57600481901d90506004820191505b60048112612c7057600281901d90506002820191505b60028112612c7f576001820191505b60006040808403901b9050600083607f0386600f0b901b9050600067800000000000000090505b6000811315612cda578182029150600060ff83901c905080607f0183901c92508082028401935050600181901d9050612ca6565b5081945050505050919050565b60006840000000000000000082600f0b12612d0157600080fd5b7fffffffffffffffffffffffffffffffffffffffffffffffc0000000000000000082600f0b1215612d3557600090506138e2565b60006f80000000000000000000000000000000905060006780000000000000008416600f0b1315612d7b57608070016a09e667f3bcc908b2fb1366ea957d3e8202901c90505b60006740000000000000008416600f0b1315612dac5760807001306fe0a31b7152de8d5a46305c85edec8202901c90505b60006720000000000000008416600f0b1315612ddd5760807001172b83c7d517adcdf7c8c50eb14a791f8202901c90505b60006710000000000000008416600f0b1315612e0e57608070010b5586cf9890f6298b92b71842a983638202901c90505b60006708000000000000008416600f0b1315612e3f5760807001059b0d31585743ae7c548eb68ca417fd8202901c90505b60006704000000000000008416600f0b1315612e70576080700102c9a3e778060ee6f7caca4f7a29bde88202901c90505b60006702000000000000008416600f0b1315612ea157608070010163da9fb33356d84a66ae336dcdfa3f8202901c90505b60006701000000000000008416600f0b1315612ed2576080700100b1afa5abcbed6129ab13ec11dc95438202901c90505b600066800000000000008416600f0b1315612f0257608070010058c86da1c09ea1ff19d294cf2f679b8202901c90505b600066400000000000008416600f0b1315612f325760807001002c605e2e8cec506d21bfc89a23a00f8202901c90505b600066200000000000008416600f0b1315612f62576080700100162f3904051fa128bca9c55c31e5df8202901c90505b600066100000000000008416600f0b1315612f925760807001000b175effdc76ba38e31671ca9397258202901c90505b600066080000000000008416600f0b1315612fc2576080700100058ba01fb9f96d6cacd4b180917c3d8202901c90505b600066040000000000008416600f0b1315612ff257608070010002c5cc37da9491d0985c348c68e7b38202901c90505b600066020000000000008416600f0b13156130225760807001000162e525ee054754457d59952920268202901c90505b600066010000000000008416600f0b131561305257608070010000b17255775c040618bf4a4ade83fc8202901c90505b6000658000000000008416600f0b13156130815760807001000058b91b5bc9ae2eed81e9b7d4cfab8202901c90505b6000654000000000008416600f0b13156130b0576080700100002c5c89d5ec6ca4d7c8acc017b7c98202901c90505b6000652000000000008416600f0b13156130df57608070010000162e43f4f831060e02d839a9d16d8202901c90505b6000651000000000008416600f0b131561310e576080700100000b1721bcfc99d9f890ea069117638202901c90505b6000650800000000008416600f0b131561313d57608070010000058b90cf1e6d97f9ca14dbcc16288202901c90505b6000650400000000008416600f0b131561316c5760807001000002c5c863b73f016468f6bac5ca2b8202901c90505b6000650200000000008416600f0b131561319b576080700100000162e430e5a18f6119e3c02282a58202901c90505b6000650100000000008416600f0b13156131ca5760807001000000b1721835514b86e6d96efd1bfe8202901c90505b60006480000000008416600f0b13156131f8576080700100000058b90c0b48c6be5df846c5b2ef8202901c90505b60006440000000008416600f0b131561322657608070010000002c5c8601cc6b9e94213c72737a8202901c90505b60006420000000008416600f0b13156132545760807001000000162e42fff037df38aa2b219f068202901c90505b60006410000000008416600f0b131561328257608070010000000b17217fba9c739aa5819f44f98202901c90505b60006408000000008416600f0b13156132b05760807001000000058b90bfcdee5acd3c1cedc8238202901c90505b60006404000000008416600f0b13156132de576080700100000002c5c85fe31f35a6a30da1be508202901c90505b60006402000000008416600f0b131561330c57608070010000000162e42ff0999ce3541b9fffcf8202901c90505b60006401000000008416600f0b131561333a576080700100000000b17217f80f4ef5aadda455548202901c90505b600063800000008416600f0b131561336757608070010000000058b90bfbf8479bd5a81b51ad8202901c90505b600063400000008416600f0b13156133945760807001000000002c5c85fdf84bd62ae30a74cc8202901c90505b600063200000008416600f0b13156133c1576080700100000000162e42fefb2fed257559bdaa8202901c90505b600063100000008416600f0b13156133ee5760807001000000000b17217f7d5a7716bba4a9ae8202901c90505b600063080000008416600f0b131561341b576080700100000000058b90bfbe9ddbac5e109cce8202901c90505b600063040000008416600f0b131561344857608070010000000002c5c85fdf4b15de6f17eb0d8202901c90505b600063020000008416600f0b13156134755760807001000000000162e42fefa494f1478fde058202901c90505b600063010000008416600f0b13156134a257608070010000000000b17217f7d20cf927c8e94c8202901c90505b6000628000008416600f0b13156134ce5760807001000000000058b90bfbe8f71cb4e4b33d8202901c90505b6000624000008416600f0b13156134fa576080700100000000002c5c85fdf477b662b269458202901c90505b6000622000008416600f0b131561352657608070010000000000162e42fefa3ae53369388c8202901c90505b6000621000008416600f0b1315613552576080700100000000000b17217f7d1d351a389d408202901c90505b6000620800008416600f0b131561357e57608070010000000000058b90bfbe8e8b2d3d4ede8202901c90505b6000620400008416600f0b13156135aa5760807001000000000002c5c85fdf4741bea6e77e8202901c90505b6000620200008416600f0b13156135d6576080700100000000000162e42fefa39fe95583c28202901c90505b6000620100008416600f0b13156136025760807001000000000000b17217f7d1cfb72b45e18202901c90505b60006180008416600f0b131561362d576080700100000000000058b90bfbe8e7cc35c3f08202901c90505b60006140008416600f0b131561365857608070010000000000002c5c85fdf473e242ea388202901c90505b60006120008416600f0b13156136835760807001000000000000162e42fefa39f02b772c8202901c90505b60006110008416600f0b13156136ae57608070010000000000000b17217f7d1cf7d83c1a8202901c90505b60006108008416600f0b13156136d95760807001000000000000058b90bfbe8e7bdcbe2e8202901c90505b60006104008416600f0b1315613704576080700100000000000002c5c85fdf473dea871f8202901c90505b60006102008416600f0b131561372f57608070010000000000000162e42fefa39ef44d918202901c90505b60006101008416600f0b131561375a576080700100000000000000b17217f7d1cf79e9498202901c90505b600060808416600f0b131561378457608070010000000000000058b90bfbe8e7bce5448202901c90505b600060408416600f0b13156137ae5760807001000000000000002c5c85fdf473de6eca8202901c90505b600060208416600f0b13156137d8576080700100000000000000162e42fefa39ef366f8202901c90505b600060108416600f0b13156138025760807001000000000000000b17217f7d1cf79afa8202901c90505b600060088416600f0b131561382c576080700100000000000000058b90bfbe8e7bcd6d8202901c90505b600060048416600f0b131561385657608070010000000000000002c5c85fdf473de6b28202901c90505b600060028416600f0b13156138805760807001000000000000000162e42fefa39ef3588202901c90505b600060018416600f0b13156138aa57608070010000000000000000b17217f7d1cf79ab8202901c90505b604083600f0b901d603f03600f0b81901c90506f7fffffffffffffffffffffffffffffff600f0b8111156138dd57600080fd5b809150505b91905056fea2646970667358221220644e1a7c4b46e762e7b9126589dbe630c890e9941a04990b8ac6ac4dad3ee5c764736f6c63430006080033",
  "immutableReferences": {},
  "source": "pragma solidity ^0.6.0;\r\n\r\nimport \"./interfaces/IArbitrable.sol\";\r\nimport \"./interfaces/IArbitrator.sol\";\r\nimport \"./interfaces/IEvidence.sol\";\r\nimport \"./interfaces/ISCMMaker.sol\";\r\nimport {ABDKMath} from \"./ABDKMath64x64.sol\";\r\nimport \"./ConditionalTokens.sol\";\r\nimport \"@openzeppelin/contracts/token/ERC1155/IERC1155Receiver.sol\";\r\n\r\ncontract SCFactory {\r\n\r\n    mapping(uint256 => SCMMaker) public market;\r\n    uint256 public markets;\r\n    address private currency;\r\n    address private conditionaltokens;\r\n\r\n    event MarketCreated(SCMMaker _market);\r\n\r\n    constructor(address _curr, address _ctf) public {\r\n      currency = _curr;\r\n      conditionaltokens = _ctf;\r\n    }\r\n\r\n    function createMarket(uint _numOptions, uint256 endTime, string memory hash) public {\r\n        market[markets] = new SCMMaker(msg.sender, currency, conditionaltokens, _numOptions,endTime, hash);\r\n        require(IERC20(currency).transferFrom(msg.sender,address(market[markets]),100*10**18));\r\n        emit MarketCreated(market[markets]);\r\n        markets++;\r\n    }\r\n\r\n    function getNumberOfMarkets() public view returns (uint256) {\r\n        return markets;\r\n    }\r\n\r\n    function getMarket(uint256 _id) public view returns (SCMMaker) {\r\n        return market[_id];\r\n    }\r\n\r\n}\r\n\r\ncontract SCMMaker is IArbitrable, IEvidence, ISCMMaker, IERC1155Receiver{\r\n\r\n    uint public numOfOutcomes; //How many different options can you bet on\r\n    uint private outcome; //the resolved outcome\r\n\r\n    int128[] private q; //How many outstanding shares for each option?\r\n    mapping(uint => mapping(address => int128)) private balances; // How many shares does a user own?\r\n\r\n    int128 private b; //The total outstanding balance (equivalent to sum of all q) multiplied by ALPHA\r\n    int128 private alpha; //This is a constant, decided at runtime that determines the sensitivity to liquidity\r\n    int128 private current_cost; //Running total of the cost function, to prevent you from calculating multiple exp\r\n    int128 private total_balance; //sum of all q ()\r\n\r\n    uint256 public appealTimestamp;\r\n    uint256 public endTimestamp;\r\n    uint256 public resultTimestamp;\r\n    uint256 private dispute_id;\r\n\r\n    uint256 private constant DISPUTE_TIME = 1 days;\r\n\r\n    address private game_master;\r\n    address private disputer;\r\n    address private currency;\r\n    IArbitrator public kleros = IArbitrator(0xaededC9A349B19508cdAeD4C6F8CF244413260E7);\r\n    ConditionalTokens public CT;\r\n\r\n    bytes32 private condition;\r\n\r\n    enum Status { BettingOpen, NoMoreBets, Appealable, Disputed, Resolved }\r\n    Status public status;\r\n    string private ipfsHash = '';\r\n\r\n    /**\r\n     * constructor function\r\n     * param _numOptions: How many different outcomes can you bet on? (please ignore option zero here)\r\n     * alpha is calculated as a constant that is used later on\r\n     * need to add endtime, result time, and ipfs hash\r\n     **/\r\n    constructor(address _owner, address _currency, address _ct, uint _numOptions, uint256 endTime, string memory hash) public {\r\n        numOfOutcomes = _numOptions;\r\n        currency = _currency;\r\n        int128 IL = ABDKMath.fromUInt(100); //this will be dai.balanceOf\r\n        int128 n = ABDKMath.fromUInt(_numOptions);\r\n        alpha = ABDKMath.div(1,ABDKMath.mul(10,ABDKMath.mul(n,ABDKMath.ln(n))));\r\n        b = ABDKMath.mul(ABDKMath.mul(IL,n),alpha);\r\n        int128 sumtotal;\r\n        int128 eqb = ABDKMath.exp(ABDKMath.div(IL,b));\r\n        game_master = _owner;\r\n        for(uint i=0;i<numOfOutcomes;i++) {\r\n            q.push(IL);\r\n            sumtotal = ABDKMath.add(sumtotal,eqb);\r\n            total_balance = ABDKMath.add(total_balance,IL);\r\n        }\r\n        current_cost = ABDKMath.mul(b,ABDKMath.ln(sumtotal));\r\n        endTimestamp = endTime;\r\n        resultTimestamp = endTime;\r\n        emit MetaEvidence(0,hash);\r\n        CT = ConditionalTokens(_ct);\r\n        CT.prepareCondition(address(this),bytes32(uint256(address(this)) << 96),_numOptions);\r\n        condition = CT.getConditionId(address(this),bytes32(uint256(address(this)) << 96),_numOptions);\r\n    }\r\n    //The function is now initialised with liquidity split across all outcomes\r\n\r\n    /*\r\n      AMM functions\r\n    */\r\n\r\n    function cost() public view returns (int128) {  //Getter function, designed for the frontend\r\n        int128 sumtotal;\r\n        for(uint i=0; i<numOfOutcomes;i++) {\r\n            sumtotal = ABDKMath.add(sumtotal,ABDKMath.exp(ABDKMath.div(q[i],b)));\r\n        }\r\n        return ABDKMath.mul(b,ABDKMath.ln(sumtotal));\r\n    }\r\n\r\n    function getCondition() public view override returns (bytes32) {\r\n      return condition;\r\n    }\r\n\r\n    function getNumberOutcomes() public view override returns (uint) {\r\n      return numOfOutcomes;\r\n    }\r\n\r\n    function costafterbuy(uint _outcome, int128 amount) public view returns (int128) { //Getter function, designed for front end\r\n        int128 sumtotal;\r\n        int128[] memory newq = new int128[](q.length);\r\n        int128 TB = total_balance;\r\n        for(uint j=0;j<numOfOutcomes;j++) {\r\n          newq[j] = q[j];\r\n          if((_outcome & (1<<j)) !=0) {\r\n            newq[j] = ABDKMath.add(newq[j],amount);\r\n            TB = ABDKMath.add(TB,amount);\r\n          }\r\n        }\r\n        int128 _b = ABDKMath.mul(TB,alpha);\r\n        for(uint i=0; i<numOfOutcomes;i++) {\r\n          sumtotal = ABDKMath.add(sumtotal,\r\n            ABDKMath.exp(\r\n              ABDKMath.div(newq[i],\r\n            _b)\r\n          ));\r\n        }\r\n        return ABDKMath.mul(_b,ABDKMath.ln(sumtotal));\r\n    }\r\n\r\n    function priceU(uint _outcome, int128 amount) public view override returns (uint256) { // Getter function, designed for the frontend\r\n       return ABDKMath.mulu(ABDKMath.sub(costafterbuy(_outcome,amount),cost()),1000000);\r\n    }\r\n    function priceI(uint _outcome, int128 amount) public view override returns (int128) { // Getter function, designed for the frontend\r\n       return ABDKMath.sub(costafterbuy(_outcome,amount),cost());\r\n    }\r\n\r\n    function getIndexSet(uint _set) public pure returns (uint) {\r\n      return 1<<_set;\r\n    }\r\n\r\n    function getOwner() public view returns (address) {\r\n      return game_master;\r\n    }\r\n\r\n    function getInversePartition(uint256 index, uint256 len) public pure returns (uint256[] memory) {\r\n      uint256[] memory partx = new uint256[](2);\r\n      partx[0] = index;\r\n      partx[1] = (1<<len)-1-index;\r\n      return partx;\r\n    }\r\n\r\n    function buyshares(address _user, uint _outcome, int128 amount) public override returns (int128 spot_price) {\r\n        require(status == Status.BettingOpen,'No more bets'); // There should be a check in the front-end to make sure that betting is open (also check endTimestamp), otherwise that would suck for you to spend gas\r\n        require(amount < total_balance,\"Buying too many shares!\"); //user will never get a good price for this bet, so save on some gas\r\n        if(block.timestamp > endTimestamp) { //If the user tries to place a bet but it's too late, then they can pay the gas to switch state\r\n            status = Status.NoMoreBets;\r\n        } else {\r\n            int128 new_cost;\r\n            int128 sumtotal;\r\n            for(uint j=0;j<numOfOutcomes;j++) {\r\n              if((_outcome & (1<<j)) !=0) {\r\n                q[j] = ABDKMath.add(q[j],amount);\r\n                total_balance = ABDKMath.add(total_balance,amount);\r\n              }\r\n            }\r\n            b = ABDKMath.mul(total_balance,alpha);\r\n            for(uint i=0; i<numOfOutcomes;i++) {\r\n              sumtotal = ABDKMath.add(sumtotal,\r\n                ABDKMath.exp(\r\n                  ABDKMath.div(q[i],\r\n                b)\r\n              ));\r\n            }\r\n            new_cost = ABDKMath.mul(b,ABDKMath.ln(sumtotal));\r\n            spot_price = ABDKMath.sub(new_cost,current_cost);\r\n            uint uprice = ABDKMath.mulu(spot_price,10**18);\r\n            uint uamount = ABDKMath.mulu(amount,10**18);\r\n            require(IERC20(currency).transferFrom(msg.sender,address(this),uprice));\r\n            IERC20(currency).approve(address(CT),uamount);\r\n            CT.splitPosition(IERC20(currency),bytes32(0),condition,getInversePartition(_outcome,numOfOutcomes),uamount);\r\n            uint pos = CT.getPositionId(IERC20(currency),CT.getCollectionId(bytes32(0),condition,_outcome));\r\n            CT.safeTransferFrom(address(this),_user,pos,uamount,'');\r\n            current_cost = new_cost;\r\n        }\r\n    }\r\n\r\n    function buyvirtualshares(address _user, uint _outcome, int128 amount) public override returns (int128 spot_price) {\r\n      require(status == Status.BettingOpen,'No more bets'); // There should be a check in the front-end to make sure that betting is open (also check endTimestamp), otherwise that would suck for you to spend gas\r\n      require(amount < total_balance,\"Buying too many shares!\"); //user will never get a good price for this bet, so save on some gas\r\n      if(block.timestamp > endTimestamp) { //If the user tries to place a bet but it's too late, then they can pay the gas to switch state\r\n          status = Status.NoMoreBets;\r\n      } else {\r\n          int128 new_cost;\r\n          int128 sumtotal;\r\n          for(uint j=0;j<numOfOutcomes;j++) {\r\n            if((_outcome & (1<<j)) !=0) {\r\n              q[j] = ABDKMath.add(q[j],amount);\r\n              total_balance = ABDKMath.add(total_balance,amount);\r\n            }\r\n          }\r\n          b = ABDKMath.mul(total_balance,alpha);\r\n          for(uint i=0; i<numOfOutcomes;i++) {\r\n            sumtotal = ABDKMath.add(sumtotal,\r\n              ABDKMath.exp(\r\n                ABDKMath.div(q[i],\r\n              b)\r\n            ));\r\n          }\r\n          new_cost = ABDKMath.mul(b,ABDKMath.ln(sumtotal));\r\n          spot_price = ABDKMath.sub(new_cost,current_cost);\r\n          current_cost = new_cost;\r\n      }\r\n    }\r\n\r\n    /*\r\n      ORACLE FUNCTIONS\r\n    */\r\n\r\n    function getPayoutMatrix(uint _outcomes, uint _n) private pure returns (uint[] memory) {\r\n        uint[] memory matrix = new uint[](_n);\r\n        for(uint i=0;i<_n;i++) {\r\n          if((_outcomes & 1<<i) != 0) {\r\n            matrix[i] = 1;\r\n          }\r\n        }\r\n        return matrix;\r\n    }\r\n\r\n    function setOutcome(uint _outcome) public {\r\n        require(status != Status.Disputed,\"DECISION GONE TO KLEROS\");\r\n        require(msg.sender == game_master,\"ONLY MASTER CAN CALL\");\r\n        require(block.timestamp > resultTimestamp,'TOO EARLY TO DECIDE OUTCOME');\r\n        require(status == Status.BettingOpen || status == Status.NoMoreBets,\"INVALID STATE\");\r\n        //With this implementation, the user can still set the outcome after 24h but only if nobody else has disputed\r\n        //require(_outcome < numOfOutcomes+1,\"INVALID OUTCOME!!\");\r\n        outcome = _outcome;\r\n        status = Status.Appealable;\r\n        appealTimestamp = block.timestamp + DISPUTE_TIME;\r\n        ConditionalTokens(CT).reportPayouts(bytes32(uint256(address(this)) << 96),getPayoutMatrix(_outcome,numOfOutcomes));\r\n    }\r\n\r\n    function disputeOutcome() public payable {\r\n        require(status != Status.Disputed,\"Already disputed\");\r\n        require ( (status == Status.Appealable && block.timestamp < appealTimestamp) ||\r\n        (status == Status.NoMoreBets && block.timestamp < (resultTimestamp+DISPUTE_TIME)) ||\r\n        (status == Status.BettingOpen && block.timestamp > endTimestamp && block.timestamp>(resultTimestamp+DISPUTE_TIME)),\r\n        \"CAN'T DISPUTE\");\r\n        disputer = msg.sender;\r\n        status = Status.Disputed;\r\n        //GO TO KLEROS, DO NOT PASS GO\r\n        uint arb_cost = kleros.arbitrationCost('');\r\n        require(msg.value >= arb_cost);\r\n        dispute_id = kleros.createDispute{value: arb_cost}(numOfOutcomes,'');\r\n        emit Dispute(kleros, dispute_id, 0, 0);\r\n    }\r\n\r\n    function rule(uint _disputeID, uint _ruling) external override {\r\n        require (msg.sender == address(kleros),\"JUSE USE KLEROS\");\r\n        require (_disputeID == dispute_id,\"WRONG DISPUTE\");\r\n\r\n        if(uint(_ruling) == outcome) { //KLEROS VOTED IN FAVOUR OF THE ILP\r\n            //technically do nothing here\r\n        } else { //KLEROS CHANGED THE INITIAL OUTCOME\r\n            outcome = uint(_ruling);\r\n            game_master = disputer; //change the game master to the disputer\r\n        }\r\n        status = Status.Resolved;\r\n        emit Ruling(kleros, _disputeID, _ruling);\r\n    }\r\n\r\n    function getOutcome() public view returns (uint) {\r\n        return outcome;\r\n    }\r\n\r\n    function onERC1155Received(\r\n        address operator,\r\n        address from,\r\n        uint256 id,\r\n        uint256 value,\r\n        bytes calldata data\r\n    )\r\n        external\r\n        override\r\n        returns(bytes4) {\r\n            return this.onERC1155Received.selector;\r\n        }\r\n\r\n    function onERC1155BatchReceived(\r\n        address operator,\r\n        address from,\r\n        uint256[] calldata ids,\r\n        uint256[] calldata values,\r\n        bytes calldata data\r\n    )\r\n        external\r\n        override\r\n        returns(bytes4) {\r\n            return this.onERC1155BatchReceived.selector;\r\n        }\r\n\r\n    function supportsInterface(bytes4 interfaceId) external override view returns (bool) {}\r\n\r\n}\r\n",
  "sourcePath": "C:/Users/Abdulla/apps/CTF/contracts/SCMMaker.sol",
  "compiler": {
    "name": "solc",
    "version": "0.6.8+commit.0bbfe453.Emscripten.clang"
  },
  "schemaVersion": "3.3.0",
  "updatedAt": "2020-12-17T17:19:58.408Z",
  "devdoc": {
    "methods": {}
  },
  "userdoc": {
    "methods": {
      "constructor": "constructor function param _numOptions: How many different outcomes can you bet on? (please ignore option zero here) alpha is calculated as a constant that is used later on need to add endtime, result time, and ipfs hash*"
    }
  }
}