{
  "contractName": "SimpleCentralizedArbitrator",
  "abi": [
    {
      "anonymous": false,
      "inputs": [
        {
          "indexed": true,
          "internalType": "uint256",
          "name": "_disputeID",
          "type": "uint256"
        },
        {
          "indexed": true,
          "internalType": "contract IArbitrable",
          "name": "_arbitrable",
          "type": "address"
        }
      ],
      "name": "AppealDecision",
      "type": "event"
    },
    {
      "anonymous": false,
      "inputs": [
        {
          "indexed": true,
          "internalType": "uint256",
          "name": "_disputeID",
          "type": "uint256"
        },
        {
          "indexed": true,
          "internalType": "contract IArbitrable",
          "name": "_arbitrable",
          "type": "address"
        }
      ],
      "name": "AppealPossible",
      "type": "event"
    },
    {
      "anonymous": false,
      "inputs": [
        {
          "indexed": true,
          "internalType": "uint256",
          "name": "_disputeID",
          "type": "uint256"
        },
        {
          "indexed": true,
          "internalType": "contract IArbitrable",
          "name": "_arbitrable",
          "type": "address"
        }
      ],
      "name": "DisputeCreation",
      "type": "event"
    },
    {
      "inputs": [
        {
          "internalType": "uint256",
          "name": "",
          "type": "uint256"
        }
      ],
      "name": "disputes",
      "outputs": [
        {
          "internalType": "contract IArbitrable",
          "name": "arbitrated",
          "type": "address"
        },
        {
          "internalType": "uint256",
          "name": "choices",
          "type": "uint256"
        },
        {
          "internalType": "uint256",
          "name": "ruling",
          "type": "uint256"
        },
        {
          "internalType": "enum IArbitrator.DisputeStatus",
          "name": "status",
          "type": "uint8"
        }
      ],
      "stateMutability": "view",
      "type": "function",
      "constant": true
    },
    {
      "inputs": [],
      "name": "owner",
      "outputs": [
        {
          "internalType": "address",
          "name": "",
          "type": "address"
        }
      ],
      "stateMutability": "view",
      "type": "function",
      "constant": true
    },
    {
      "inputs": [
        {
          "internalType": "bytes",
          "name": "_extraData",
          "type": "bytes"
        }
      ],
      "name": "arbitrationCost",
      "outputs": [
        {
          "internalType": "uint256",
          "name": "",
          "type": "uint256"
        }
      ],
      "stateMutability": "view",
      "type": "function",
      "constant": true
    },
    {
      "inputs": [
        {
          "internalType": "uint256",
          "name": "_disputeID",
          "type": "uint256"
        },
        {
          "internalType": "bytes",
          "name": "_extraData",
          "type": "bytes"
        }
      ],
      "name": "appealCost",
      "outputs": [
        {
          "internalType": "uint256",
          "name": "",
          "type": "uint256"
        }
      ],
      "stateMutability": "view",
      "type": "function",
      "constant": true
    },
    {
      "inputs": [
        {
          "internalType": "uint256",
          "name": "_choices",
          "type": "uint256"
        },
        {
          "internalType": "bytes",
          "name": "_extraData",
          "type": "bytes"
        }
      ],
      "name": "createDispute",
      "outputs": [
        {
          "internalType": "uint256",
          "name": "disputeID",
          "type": "uint256"
        }
      ],
      "stateMutability": "payable",
      "type": "function",
      "payable": true
    },
    {
      "inputs": [],
      "name": "getNumberOfDisputes",
      "outputs": [
        {
          "internalType": "uint256",
          "name": "",
          "type": "uint256"
        }
      ],
      "stateMutability": "view",
      "type": "function",
      "constant": true
    },
    {
      "inputs": [
        {
          "internalType": "uint256",
          "name": "_disputeID",
          "type": "uint256"
        }
      ],
      "name": "disputeStatus",
      "outputs": [
        {
          "internalType": "enum IArbitrator.DisputeStatus",
          "name": "status",
          "type": "uint8"
        }
      ],
      "stateMutability": "view",
      "type": "function",
      "constant": true
    },
    {
      "inputs": [
        {
          "internalType": "uint256",
          "name": "_disputeID",
          "type": "uint256"
        }
      ],
      "name": "currentRuling",
      "outputs": [
        {
          "internalType": "uint256",
          "name": "ruling",
          "type": "uint256"
        }
      ],
      "stateMutability": "view",
      "type": "function",
      "constant": true
    },
    {
      "inputs": [
        {
          "internalType": "uint256",
          "name": "_disputeID",
          "type": "uint256"
        }
      ],
      "name": "getDisputeData",
      "outputs": [
        {
          "internalType": "contract IArbitrable",
          "name": "",
          "type": "address"
        },
        {
          "internalType": "uint256",
          "name": "",
          "type": "uint256"
        },
        {
          "internalType": "uint256",
          "name": "",
          "type": "uint256"
        },
        {
          "internalType": "enum IArbitrator.DisputeStatus",
          "name": "",
          "type": "uint8"
        }
      ],
      "stateMutability": "view",
      "type": "function",
      "constant": true
    },
    {
      "inputs": [
        {
          "internalType": "uint256",
          "name": "_disputeID",
          "type": "uint256"
        },
        {
          "internalType": "uint256",
          "name": "_ruling",
          "type": "uint256"
        }
      ],
      "name": "rule",
      "outputs": [],
      "stateMutability": "nonpayable",
      "type": "function"
    },
    {
      "inputs": [
        {
          "internalType": "uint256",
          "name": "_disputeID",
          "type": "uint256"
        },
        {
          "internalType": "bytes",
          "name": "_extraData",
          "type": "bytes"
        }
      ],
      "name": "appeal",
      "outputs": [],
      "stateMutability": "payable",
      "type": "function",
      "payable": true
    },
    {
      "inputs": [
        {
          "internalType": "uint256",
          "name": "_disputeID",
          "type": "uint256"
        }
      ],
      "name": "appealPeriod",
      "outputs": [
        {
          "internalType": "uint256",
          "name": "start",
          "type": "uint256"
        },
        {
          "internalType": "uint256",
          "name": "end",
          "type": "uint256"
        }
      ],
      "stateMutability": "view",
      "type": "function",
      "constant": true
    }
  ],
  "bytecode": "0x6080604052336000806101000a81548173ffffffffffffffffffffffffffffffffffffffff021916908373ffffffffffffffffffffffffffffffffffffffff16021790555034801561005057600080fd5b50610e91806100606000396000f3fe6080604052600436106100a75760003560e01c80638da5cb5b116100645780638da5cb5b1461039e57806393affa0b146103f5578063afe15cfb14610420578063c13517e114610476578063f23f16e61461054f578063f7434ea914610635576100a7565b806310f169e8146100ac5780631c3db16d14610109578063311a6c561461015857806349912f881461019d578063564a565d14610262578063892a020b14610300575b600080fd5b3480156100b857600080fd5b506100e5600480360360208110156100cf57600080fd5b8101908080359060200190929190505050610711565b604051808260028111156100f557fe5b60ff16815260200191505060405180910390f35b34801561011557600080fd5b506101426004803603602081101561012c57600080fd5b8101908080359060200190929190505050610746565b6040518082815260200191505060405180910390f35b34801561016457600080fd5b5061019b6004803603604081101561017b57600080fd5b81019080803590602001909291908035906020019092919050505061076e565b005b610260600480360360408110156101b357600080fd5b8101908080359060200190929190803590602001906401000000008111156101da57600080fd5b8201836020820111156101ec57600080fd5b8035906020019184600183028401116401000000008311171561020e57600080fd5b91908080601f016020809104026020016040519081016040528093929190818152602001838380828437600081840152601f19601f8201169050808301925050505050505091929192905050506109f7565b005b34801561026e57600080fd5b5061029b6004803603602081101561028557600080fd5b8101908080359060200190929190505050610a5d565b604051808573ffffffffffffffffffffffffffffffffffffffff1673ffffffffffffffffffffffffffffffffffffffff1681526020018481526020018381526020018260028111156102e957fe5b60ff16815260200194505050505060405180910390f35b34801561030c57600080fd5b506103396004803603602081101561032357600080fd5b8101908080359060200190929190505050610ac7565b604051808573ffffffffffffffffffffffffffffffffffffffff1673ffffffffffffffffffffffffffffffffffffffff16815260200184815260200183815260200182600281111561038757fe5b60ff16815260200194505050505060405180910390f35b3480156103aa57600080fd5b506103b3610b85565b604051808273ffffffffffffffffffffffffffffffffffffffff1673ffffffffffffffffffffffffffffffffffffffff16815260200191505060405180910390f35b34801561040157600080fd5b5061040a610baa565b6040518082815260200191505060405180910390f35b34801561042c57600080fd5b506104596004803603602081101561044357600080fd5b8101908080359060200190929190505050610bb7565b604051808381526020018281526020019250505060405180910390f35b6105396004803603604081101561048c57600080fd5b8101908080359060200190929190803590602001906401000000008111156104b357600080fd5b8201836020820111156104c557600080fd5b803590602001918460018302840111640100000000831117156104e757600080fd5b91908080601f016020809104026020016040519081016040528093929190818152602001838380828437600081840152601f19601f820116905080830192505050505050509192919290505050610bcc565b6040518082815260200191505060405180910390f35b34801561055b57600080fd5b5061061f6004803603604081101561057257600080fd5b81019080803590602001909291908035906020019064010000000081111561059957600080fd5b8201836020820111156105ab57600080fd5b803590602001918460018302840111640100000000831117156105cd57600080fd5b91908080601f016020809104026020016040519081016040528093929190818152602001838380828437600081840152601f19601f820116905080830192505050505050509192919290505050610d97565b6040518082815260200191505060405180910390f35b34801561064157600080fd5b506106fb6004803603602081101561065857600080fd5b810190808035906020019064010000000081111561067557600080fd5b82018360208201111561068757600080fd5b803590602001918460018302840111640100000000831117156106a957600080fd5b91908080601f016020809104026020016040519081016040528093929190818152602001838380828437600081840152601f19601f820116905080830192505050505050509192919290505050610dc2565b6040518082815260200191505060405180910390f35b60006001828154811061072057fe5b906000526020600020906004020160030160009054906101000a900460ff169050919050565b60006001828154811061075557fe5b9060005260206000209060040201600201549050919050565b6000809054906101000a900473ffffffffffffffffffffffffffffffffffffffff1673ffffffffffffffffffffffffffffffffffffffff163373ffffffffffffffffffffffffffffffffffffffff1614610813576040517f08c379a000000000000000000000000000000000000000000000000000000000815260040180806020018281038252603a815260200180610dd4603a913960400191505060405180910390fd5b60006001838154811061082257fe5b9060005260206000209060040201905080600101548211156108ac576040517f08c379a00000000000000000000000000000000000000000000000000000000081526004018080602001828103825260158152602001807f52756c696e67206f7574206f6620626f756e647321000000000000000000000081525060200191505060405180910390fd5b600060028111156108b957fe5b8160030160009054906101000a900460ff1660028111156108d657fe5b1461092c576040517f08c379a0000000000000000000000000000000000000000000000000000000008152600401808060200182810382526024815260200180610e0e6024913960400191505060405180910390fd5b81816002018190555060028160030160006101000a81548160ff0219169083600281111561095657fe5b02179055508060000160009054906101000a900473ffffffffffffffffffffffffffffffffffffffff1673ffffffffffffffffffffffffffffffffffffffff1663311a6c5684846040518363ffffffff1660e01b81526004018083815260200182815260200192505050600060405180830381600087803b1580156109da57600080fd5b505af11580156109ee573d6000803e3d6000fd5b50505050505050565b610a018282610d97565b341015610a59576040517f08c379a000000000000000000000000000000000000000000000000000000000815260040180806020018281038252602a815260200180610e32602a913960400191505060405180910390fd5b5050565b60018181548110610a6a57fe5b90600052602060002090600402016000915090508060000160009054906101000a900473ffffffffffffffffffffffffffffffffffffffff16908060010154908060020154908060030160009054906101000a900460ff16905084565b60008060008060018581548110610ada57fe5b906000526020600020906004020160000160009054906101000a900473ffffffffffffffffffffffffffffffffffffffff1660018681548110610b1957fe5b90600052602060002090600402016001015460018781548110610b3857fe5b90600052602060002090600402016002015460018881548110610b5757fe5b906000526020600020906004020160030160009054906101000a900460ff1693509350935093509193509193565b6000809054906101000a900473ffffffffffffffffffffffffffffffffffffffff1681565b6000600180549050905090565b60008060008081915080905091509150915091565b6000610bd782610dc2565b341015610c2f576040517f08c379a000000000000000000000000000000000000000000000000000000000815260040180806020018281038252602a815260200180610e32602a913960400191505060405180910390fd5b600160405180608001604052803373ffffffffffffffffffffffffffffffffffffffff1681526020018581526020017fffffffffffffffffffffffffffffffffffffffffffffffffffffffffffffffff815260200160006002811115610c9157fe5b815250908060018154018082558091505060019003906000526020600020906004020160009091909190915060008201518160000160006101000a81548173ffffffffffffffffffffffffffffffffffffffff021916908373ffffffffffffffffffffffffffffffffffffffff160217905550602082015181600101556040820151816002015560608201518160030160006101000a81548160ff02191690836002811115610d3c57fe5b02179055505050600180805490500390503373ffffffffffffffffffffffffffffffffffffffff16817f141dfc18aa6a56fc816f44f0e9e2f1ebc92b15ab167770e17db5b084c10ed99560405160405180910390a392915050565b60007f0400000000000000000000000000000000000000000000000000000000000000905092915050565b600066038d7ea4c68000905091905056fe4f6e6c7920746865206f776e6572206f66207468697320636f6e74726163742063616e20657865637574652072756c652066756e6374696f6e2e44697370757465206973206e6f74206177616974696e67206172626974726174696f6e2e4e6f7420656e6f7567682045544820746f20636f766572206172626974726174696f6e20636f7374732ea2646970667358221220ef784ace953f698067dd13bbf54e44830f684c2a5fbf57878e2d97b1b4015ce964736f6c63430006080033",
  "immutableReferences": {},
  "source": "/**\r\n * @authors: [@ferittuncer, @hbarcelos]\r\n * @reviewers: []\r\n * @auditors: []\r\n * @bounties: []\r\n * @deployments: []\r\n * SPDX-License-Identifier: MIT\r\n */\r\npragma solidity >=0.6;\r\n\r\nimport \"./interfaces/IArbitrator.sol\";\r\n\r\ncontract SimpleCentralizedArbitrator is IArbitrator {\r\n    address public owner = msg.sender;\r\n\r\n    struct Dispute {\r\n        IArbitrable arbitrated;\r\n        uint256 choices;\r\n        uint256 ruling;\r\n        DisputeStatus status;\r\n    }\r\n\r\n    Dispute[] public disputes;\r\n\r\n    function arbitrationCost(bytes memory _extraData) public override view returns (uint256) {\r\n        return 0.001 ether;\r\n    }\r\n\r\n    function appealCost(uint256 _disputeID, bytes memory _extraData) public override view returns (uint256) {\r\n        return 2**250; // An unaffordable amount which practically avoids appeals.\r\n    }\r\n\r\n    function createDispute(uint256 _choices, bytes memory _extraData)\r\n        public\r\n        override\r\n        payable\r\n        returns (uint256 disputeID)\r\n    {\r\n        require(msg.value >= arbitrationCost(_extraData), \"Not enough ETH to cover arbitration costs.\");\r\n\r\n        disputes.push(\r\n            Dispute({\r\n                arbitrated: IArbitrable(msg.sender),\r\n                choices: _choices,\r\n                ruling: uint256(-1),\r\n                status: DisputeStatus.Waiting\r\n            })\r\n        );\r\n\r\n        disputeID = disputes.length - 1;\r\n        emit DisputeCreation(disputeID, IArbitrable(msg.sender));\r\n    }\r\n\r\n    function getNumberOfDisputes() public view returns (uint256) {\r\n        return disputes.length;\r\n    }\r\n\r\n    function disputeStatus(uint256 _disputeID) public override view returns (DisputeStatus status) {\r\n        status = disputes[_disputeID].status;\r\n    }\r\n\r\n    function currentRuling(uint256 _disputeID) public override view returns (uint256 ruling) {\r\n        ruling = disputes[_disputeID].ruling;\r\n    }\r\n\r\n    function getDisputeData(uint256 _disputeID) public view returns (IArbitrable, uint256, uint256, DisputeStatus) {\r\n        return (disputes[_disputeID].arbitrated,disputes[_disputeID].choices,disputes[_disputeID].ruling,disputes[_disputeID].status);\r\n    }\r\n\r\n    function rule(uint256 _disputeID, uint256 _ruling) public {\r\n        require(msg.sender == owner, \"Only the owner of this contract can execute rule function.\");\r\n\r\n        Dispute storage dispute = disputes[_disputeID];\r\n\r\n        require(_ruling <= dispute.choices, \"Ruling out of bounds!\");\r\n        require(dispute.status == DisputeStatus.Waiting, \"Dispute is not awaiting arbitration.\");\r\n\r\n        dispute.ruling = _ruling;\r\n        dispute.status = DisputeStatus.Solved;\r\n\r\n        dispute.arbitrated.rule(_disputeID, _ruling);\r\n    }\r\n\r\n    function appeal(uint256 _disputeID, bytes memory _extraData) public override payable {\r\n        require(msg.value >= appealCost(_disputeID, _extraData), \"Not enough ETH to cover arbitration costs.\");\r\n    }\r\n\r\n    function appealPeriod(uint256 _disputeID) public override view returns (uint256 start, uint256 end) {\r\n        return (0, 0);\r\n    }\r\n}\r\n",
  "sourcePath": "C:/Users/Abdulla/apps/CTF/contracts/FakeArbitrator.sol",
  "compiler": {
    "name": "solc",
    "version": "0.6.8+commit.0bbfe453.Emscripten.clang"
  },
  "schemaVersion": "3.3.0",
  "updatedAt": "2020-12-15T14:31:01.653Z",
  "networkType": "ethereum",
  "devdoc": {
    "methods": {}
  },
  "userdoc": {
    "methods": {}
  }
}