{
  "contractName": "SCMMaker",
  "abi": [
    {
      "inputs": [
        {
          "internalType": "address",
          "name": "_owner",
          "type": "address"
        },
        {
          "internalType": "uint8",
          "name": "_numOptions",
          "type": "uint8"
        },
        {
          "internalType": "uint256",
          "name": "endTime",
          "type": "uint256"
        },
        {
          "internalType": "uint256",
          "name": "resultTime",
          "type": "uint256"
        },
        {
          "internalType": "string",
          "name": "hash",
          "type": "string"
        }
      ],
      "stateMutability": "nonpayable",
      "type": "constructor"
    },
    {
      "anonymous": false,
      "inputs": [
        {
          "indexed": true,
          "internalType": "contract IArbitrator",
          "name": "_arbitrator",
          "type": "address"
        },
        {
          "indexed": true,
          "internalType": "uint256",
          "name": "_disputeID",
          "type": "uint256"
        },
        {
          "indexed": false,
          "internalType": "uint256",
          "name": "_metaEvidenceID",
          "type": "uint256"
        },
        {
          "indexed": false,
          "internalType": "uint256",
          "name": "_evidenceGroupID",
          "type": "uint256"
        }
      ],
      "name": "Dispute",
      "type": "event"
    },
    {
      "anonymous": false,
      "inputs": [
        {
          "indexed": true,
          "internalType": "contract IArbitrator",
          "name": "_arbitrator",
          "type": "address"
        },
        {
          "indexed": true,
          "internalType": "uint256",
          "name": "_evidenceGroupID",
          "type": "uint256"
        },
        {
          "indexed": true,
          "internalType": "address",
          "name": "_party",
          "type": "address"
        },
        {
          "indexed": false,
          "internalType": "string",
          "name": "_evidence",
          "type": "string"
        }
      ],
      "name": "Evidence",
      "type": "event"
    },
    {
      "anonymous": false,
      "inputs": [
        {
          "indexed": true,
          "internalType": "uint256",
          "name": "_metaEvidenceID",
          "type": "uint256"
        },
        {
          "indexed": false,
          "internalType": "string",
          "name": "_evidence",
          "type": "string"
        }
      ],
      "name": "MetaEvidence",
      "type": "event"
    },
    {
      "anonymous": false,
      "inputs": [
        {
          "indexed": true,
          "internalType": "contract IArbitrator",
          "name": "_arbitrator",
          "type": "address"
        },
        {
          "indexed": true,
          "internalType": "uint256",
          "name": "_disputeID",
          "type": "uint256"
        },
        {
          "indexed": false,
          "internalType": "uint256",
          "name": "_ruling",
          "type": "uint256"
        }
      ],
      "name": "Ruling",
      "type": "event"
    },
    {
      "inputs": [],
      "name": "appealTimestamp",
      "outputs": [
        {
          "internalType": "uint256",
          "name": "",
          "type": "uint256"
        }
      ],
      "stateMutability": "view",
      "type": "function"
    },
    {
      "inputs": [],
      "name": "endTimestamp",
      "outputs": [
        {
          "internalType": "uint256",
          "name": "",
          "type": "uint256"
        }
      ],
      "stateMutability": "view",
      "type": "function"
    },
    {
      "inputs": [],
      "name": "kleros",
      "outputs": [
        {
          "internalType": "contract IArbitrator",
          "name": "",
          "type": "address"
        }
      ],
      "stateMutability": "view",
      "type": "function"
    },
    {
      "inputs": [],
      "name": "numOfOutcomes",
      "outputs": [
        {
          "internalType": "uint8",
          "name": "",
          "type": "uint8"
        }
      ],
      "stateMutability": "view",
      "type": "function"
    },
    {
      "inputs": [],
      "name": "resultTimestamp",
      "outputs": [
        {
          "internalType": "uint256",
          "name": "",
          "type": "uint256"
        }
      ],
      "stateMutability": "view",
      "type": "function"
    },
    {
      "inputs": [],
      "name": "status",
      "outputs": [
        {
          "internalType": "enum SCMMaker.Status",
          "name": "",
          "type": "uint8"
        }
      ],
      "stateMutability": "view",
      "type": "function"
    },
    {
      "inputs": [],
      "name": "cost",
      "outputs": [
        {
          "internalType": "int128",
          "name": "",
          "type": "int128"
        }
      ],
      "stateMutability": "view",
      "type": "function"
    },
    {
      "inputs": [
        {
          "internalType": "uint8",
          "name": "_outcome",
          "type": "uint8"
        },
        {
          "internalType": "int128",
          "name": "amount",
          "type": "int128"
        }
      ],
      "name": "costafterbuy",
      "outputs": [
        {
          "internalType": "int128",
          "name": "",
          "type": "int128"
        }
      ],
      "stateMutability": "view",
      "type": "function"
    },
    {
      "inputs": [
        {
          "internalType": "uint8",
          "name": "_outcome",
          "type": "uint8"
        },
        {
          "internalType": "int128",
          "name": "amount",
          "type": "int128"
        }
      ],
      "name": "price",
      "outputs": [
        {
          "internalType": "uint256",
          "name": "",
          "type": "uint256"
        }
      ],
      "stateMutability": "view",
      "type": "function"
    },
    {
      "inputs": [
        {
          "internalType": "uint8",
          "name": "_outcome",
          "type": "uint8"
        },
        {
          "internalType": "int128",
          "name": "amount",
          "type": "int128"
        }
      ],
      "name": "buyshares",
      "outputs": [
        {
          "internalType": "int128",
          "name": "spot_price",
          "type": "int128"
        }
      ],
      "stateMutability": "nonpayable",
      "type": "function"
    },
    {
      "inputs": [],
      "name": "claimReward",
      "outputs": [
        {
          "internalType": "uint256",
          "name": "",
          "type": "uint256"
        }
      ],
      "stateMutability": "nonpayable",
      "type": "function"
    },
    {
      "inputs": [
        {
          "internalType": "uint256",
          "name": "x",
          "type": "uint256"
        }
      ],
      "name": "fu",
      "outputs": [
        {
          "internalType": "int128",
          "name": "",
          "type": "int128"
        }
      ],
      "stateMutability": "pure",
      "type": "function"
    },
    {
      "inputs": [
        {
          "internalType": "int128",
          "name": "x",
          "type": "int128"
        }
      ],
      "name": "tu",
      "outputs": [
        {
          "internalType": "uint256",
          "name": "",
          "type": "uint256"
        }
      ],
      "stateMutability": "pure",
      "type": "function"
    },
    {
      "inputs": [
        {
          "internalType": "uint8",
          "name": "_outcome",
          "type": "uint8"
        },
        {
          "internalType": "address",
          "name": "_acc",
          "type": "address"
        }
      ],
      "name": "getBalanceOf",
      "outputs": [
        {
          "internalType": "int128",
          "name": "",
          "type": "int128"
        }
      ],
      "stateMutability": "view",
      "type": "function"
    },
    {
      "inputs": [
        {
          "internalType": "uint8",
          "name": "_outcome",
          "type": "uint8"
        }
      ],
      "name": "outstandingShares",
      "outputs": [
        {
          "internalType": "int128",
          "name": "",
          "type": "int128"
        }
      ],
      "stateMutability": "view",
      "type": "function"
    },
    {
      "inputs": [],
      "name": "totalShares",
      "outputs": [
        {
          "internalType": "int128",
          "name": "",
          "type": "int128"
        }
      ],
      "stateMutability": "view",
      "type": "function"
    },
    {
      "inputs": [
        {
          "internalType": "uint8",
          "name": "_outcome",
          "type": "uint8"
        }
      ],
      "name": "setOutcome",
      "outputs": [],
      "stateMutability": "nonpayable",
      "type": "function"
    },
    {
      "inputs": [],
      "name": "disputeOutcome",
      "outputs": [],
      "stateMutability": "payable",
      "type": "function"
    },
    {
      "inputs": [
        {
          "internalType": "uint256",
          "name": "_disputeID",
          "type": "uint256"
        },
        {
          "internalType": "uint256",
          "name": "_ruling",
          "type": "uint256"
        }
      ],
      "name": "rule",
      "outputs": [],
      "stateMutability": "nonpayable",
      "type": "function"
    },
    {
      "inputs": [],
      "name": "getOutcome",
      "outputs": [
        {
          "internalType": "uint8",
          "name": "",
          "type": "uint8"
        }
      ],
      "stateMutability": "view",
      "type": "function"
    }
  ],
  "bytecode": "0x608060405273aededc9a349b19508cdaed4c6f8cf244413260e7600c60006101000a81548173ffffffffffffffffffffffffffffffffffffffff021916908373ffffffffffffffffffffffffffffffffffffffff16021790555060405180602001604052806000815250600d9080519060200190620000809291906200156d565b503480156200008e57600080fd5b506040516200431138038062004311833981810160405260a0811015620000b457600080fd5b810190808051906020019092919080519060200190929190805190602001909291908051906020019092919080516040519392919084640100000000821115620000fd57600080fd5b838201915060208201858111156200011457600080fd5b82518660018202830111640100000000821117156200013257600080fd5b8083526020830192505050908051906020019080838360005b83811015620001685780820151818401526020810190506200014b565b50505050905090810190601f168015620001965780820380516001836020036101000a031916815260200191505b50604052505050836000806101000a81548160ff021916908360ff1602179055506000620001d06064620005af60201b62001c3a1760201c565b90506000620001ed8660ff16620005af60201b62001c3a1760201c565b905062000249600162000238600a62000227856200021687620005d360201b62001c5d1760201c565b6200061660201b62001c971760201c565b6200061660201b62001c971760201c565b6200068360201b62001d021760201c565b600360106101000a8154816fffffffffffffffffffffffffffffffff0219169083600f0b6fffffffffffffffffffffffffffffffff160217905550620002c06200029f83836200061660201b62001c971760201c565b600360109054906101000a9004600f0b6200061660201b62001c971760201c565b600360006101000a8154816fffffffffffffffffffffffffffffffff0219169083600f0b6fffffffffffffffffffffffffffffffff160217905550600080620003396200032885600360009054906101000a9004600f0b6200068360201b62001d021760201c565b6200070a60201b62001d851760201c565b905088600960006101000a81548173ffffffffffffffffffffffffffffffffffffffff021916908373ffffffffffffffffffffffffffffffffffffffff16021790555060008090505b6000809054906101000a900460ff1660ff168160ff1610156200047a5784600160008360ff1660ff16815260200190815260200160002060006101000a8154816fffffffffffffffffffffffffffffffff0219169083600f0b6fffffffffffffffffffffffffffffffff1602179055506200040983836200078e60201b62001dfe1760201c565b925062000431600460109054906101000a9004600f0b866200078e60201b62001dfe1760201c565b600460106101000a8154816fffffffffffffffffffffffffffffffff0219169083600f0b6fffffffffffffffffffffffffffffffff160217905550808060010191505062000382565b50620004b6600360009054906101000a9004600f0b620004a584620005d360201b62001c5d1760201c565b6200061660201b62001c971760201c565b600460006101000a8154816fffffffffffffffffffffffffffffffff0219169083600f0b6fffffffffffffffffffffffffffffffff160217905550866006819055508560078190555060007f61606860eb6c87306811e2695215385101daab53bd6ab4e9f9049aead9363c7d866040518080602001828103825283818151815260200191508051906020019080838360005b838110156200056557808201518184015260208101905062000548565b50505050905090810190601f168015620005935780820380516001836020036101000a031916815260200191505b509250505060405180910390a25050505050505050506200161c565b6000677fffffffffffffff821115620005c757600080fd5b604082901b9050919050565b60008082600f0b13620005e557600080fd5b60806fb17217f7d1cf79abc9e3b39803f2f6af6200060984620007f760201b60201c565b600f0b02901c9050919050565b600080604083600f0b85600f0b02901d90507fffffffffffffffffffffffffffffffff80000000000000000000000000000000600f0b81121580156200066f57506f7fffffffffffffffffffffffffffffff600f0b8113155b6200067957600080fd5b8091505092915050565b60008082600f0b14156200069657600080fd5b600082600f0b604085600f0b901b81620006ac57fe5b0590507fffffffffffffffffffffffffffffffff80000000000000000000000000000000600f0b8112158015620006f657506f7fffffffffffffffffffffffffffffff600f0b8113155b6200070057600080fd5b8091505092915050565b60006840000000000000000082600f0b126200072557600080fd5b7fffffffffffffffffffffffffffffffffffffffffffffffc0000000000000000082600f0b12156200075b576000905062000789565b620007866080700171547652b82fe1777d0ffda0d23a7d1284600f0b02901d6200092960201b60201c565b90505b919050565b60008082600f0b84600f0b0190507fffffffffffffffffffffffffffffffff80000000000000000000000000000000600f0b8112158015620007e357506f7fffffffffffffffffffffffffffffff600f0b8113155b620007ed57600080fd5b8091505092915050565b60008082600f0b136200080957600080fd5b6000809050600083600f0b90506801000000000000000081126200083557604081901d90506040820191505b64010000000081126200085057602081901d90506020820191505b6201000081126200086957601081901d90506010820191505b61010081126200088157600881901d90506008820191505b601081126200089857600481901d90506004820191505b60048112620008af57600281901d90506002820191505b60028112620008bf576001820191505b60006040808403901b9050600083607f0386600f0b901b9050600067800000000000000090505b60008113156200091c578182029150600060ff83901c905080607f0183901c92508082028401935050600181901d9050620008e6565b5081945050505050919050565b60006840000000000000000082600f0b126200094457600080fd5b7fffffffffffffffffffffffffffffffffffffffffffffffc0000000000000000082600f0b12156200097a576000905062001568565b60006f80000000000000000000000000000000905060006780000000000000008416600f0b1315620009c157608070016a09e667f3bcc908b2fb1366ea957d3e8202901c90505b60006740000000000000008416600f0b1315620009f35760807001306fe0a31b7152de8d5a46305c85edec8202901c90505b60006720000000000000008416600f0b131562000a255760807001172b83c7d517adcdf7c8c50eb14a791f8202901c90505b60006710000000000000008416600f0b131562000a5757608070010b5586cf9890f6298b92b71842a983638202901c90505b60006708000000000000008416600f0b131562000a895760807001059b0d31585743ae7c548eb68ca417fd8202901c90505b60006704000000000000008416600f0b131562000abb576080700102c9a3e778060ee6f7caca4f7a29bde88202901c90505b60006702000000000000008416600f0b131562000aed57608070010163da9fb33356d84a66ae336dcdfa3f8202901c90505b60006701000000000000008416600f0b131562000b1f576080700100b1afa5abcbed6129ab13ec11dc95438202901c90505b600066800000000000008416600f0b131562000b5057608070010058c86da1c09ea1ff19d294cf2f679b8202901c90505b600066400000000000008416600f0b131562000b815760807001002c605e2e8cec506d21bfc89a23a00f8202901c90505b600066200000000000008416600f0b131562000bb2576080700100162f3904051fa128bca9c55c31e5df8202901c90505b600066100000000000008416600f0b131562000be35760807001000b175effdc76ba38e31671ca9397258202901c90505b600066080000000000008416600f0b131562000c14576080700100058ba01fb9f96d6cacd4b180917c3d8202901c90505b600066040000000000008416600f0b131562000c4557608070010002c5cc37da9491d0985c348c68e7b38202901c90505b600066020000000000008416600f0b131562000c765760807001000162e525ee054754457d59952920268202901c90505b600066010000000000008416600f0b131562000ca757608070010000b17255775c040618bf4a4ade83fc8202901c90505b6000658000000000008416600f0b131562000cd75760807001000058b91b5bc9ae2eed81e9b7d4cfab8202901c90505b6000654000000000008416600f0b131562000d07576080700100002c5c89d5ec6ca4d7c8acc017b7c98202901c90505b6000652000000000008416600f0b131562000d3757608070010000162e43f4f831060e02d839a9d16d8202901c90505b6000651000000000008416600f0b131562000d67576080700100000b1721bcfc99d9f890ea069117638202901c90505b6000650800000000008416600f0b131562000d9757608070010000058b90cf1e6d97f9ca14dbcc16288202901c90505b6000650400000000008416600f0b131562000dc75760807001000002c5c863b73f016468f6bac5ca2b8202901c90505b6000650200000000008416600f0b131562000df7576080700100000162e430e5a18f6119e3c02282a58202901c90505b6000650100000000008416600f0b131562000e275760807001000000b1721835514b86e6d96efd1bfe8202901c90505b60006480000000008416600f0b131562000e56576080700100000058b90c0b48c6be5df846c5b2ef8202901c90505b60006440000000008416600f0b131562000e8557608070010000002c5c8601cc6b9e94213c72737a8202901c90505b60006420000000008416600f0b131562000eb45760807001000000162e42fff037df38aa2b219f068202901c90505b60006410000000008416600f0b131562000ee357608070010000000b17217fba9c739aa5819f44f98202901c90505b60006408000000008416600f0b131562000f125760807001000000058b90bfcdee5acd3c1cedc8238202901c90505b60006404000000008416600f0b131562000f41576080700100000002c5c85fe31f35a6a30da1be508202901c90505b60006402000000008416600f0b131562000f7057608070010000000162e42ff0999ce3541b9fffcf8202901c90505b60006401000000008416600f0b131562000f9f576080700100000000b17217f80f4ef5aadda455548202901c90505b600063800000008416600f0b131562000fcd57608070010000000058b90bfbf8479bd5a81b51ad8202901c90505b600063400000008416600f0b131562000ffb5760807001000000002c5c85fdf84bd62ae30a74cc8202901c90505b600063200000008416600f0b131562001029576080700100000000162e42fefb2fed257559bdaa8202901c90505b600063100000008416600f0b1315620010575760807001000000000b17217f7d5a7716bba4a9ae8202901c90505b600063080000008416600f0b131562001085576080700100000000058b90bfbe9ddbac5e109cce8202901c90505b600063040000008416600f0b1315620010b357608070010000000002c5c85fdf4b15de6f17eb0d8202901c90505b600063020000008416600f0b1315620010e15760807001000000000162e42fefa494f1478fde058202901c90505b600063010000008416600f0b13156200110f57608070010000000000b17217f7d20cf927c8e94c8202901c90505b6000628000008416600f0b13156200113c5760807001000000000058b90bfbe8f71cb4e4b33d8202901c90505b6000624000008416600f0b131562001169576080700100000000002c5c85fdf477b662b269458202901c90505b6000622000008416600f0b13156200119657608070010000000000162e42fefa3ae53369388c8202901c90505b6000621000008416600f0b1315620011c3576080700100000000000b17217f7d1d351a389d408202901c90505b6000620800008416600f0b1315620011f057608070010000000000058b90bfbe8e8b2d3d4ede8202901c90505b6000620400008416600f0b13156200121d5760807001000000000002c5c85fdf4741bea6e77e8202901c90505b6000620200008416600f0b13156200124a576080700100000000000162e42fefa39fe95583c28202901c90505b6000620100008416600f0b1315620012775760807001000000000000b17217f7d1cfb72b45e18202901c90505b60006180008416600f0b1315620012a3576080700100000000000058b90bfbe8e7cc35c3f08202901c90505b60006140008416600f0b1315620012cf57608070010000000000002c5c85fdf473e242ea388202901c90505b60006120008416600f0b1315620012fb5760807001000000000000162e42fefa39f02b772c8202901c90505b60006110008416600f0b13156200132757608070010000000000000b17217f7d1cf7d83c1a8202901c90505b60006108008416600f0b1315620013535760807001000000000000058b90bfbe8e7bdcbe2e8202901c90505b60006104008416600f0b13156200137f576080700100000000000002c5c85fdf473dea871f8202901c90505b60006102008416600f0b1315620013ab57608070010000000000000162e42fefa39ef44d918202901c90505b60006101008416600f0b1315620013d7576080700100000000000000b17217f7d1cf79e9498202901c90505b600060808416600f0b13156200140257608070010000000000000058b90bfbe8e7bce5448202901c90505b600060408416600f0b13156200142d5760807001000000000000002c5c85fdf473de6eca8202901c90505b600060208416600f0b131562001458576080700100000000000000162e42fefa39ef366f8202901c90505b600060108416600f0b1315620014835760807001000000000000000b17217f7d1cf79afa8202901c90505b600060088416600f0b1315620014ae576080700100000000000000058b90bfbe8e7bcd6d8202901c90505b600060048416600f0b1315620014d957608070010000000000000002c5c85fdf473de6b28202901c90505b600060028416600f0b1315620015045760807001000000000000000162e42fefa39ef3588202901c90505b600060018416600f0b13156200152f57608070010000000000000000b17217f7d1cf79ab8202901c90505b604083600f0b901d603f03600f0b81901c90506f7fffffffffffffffffffffffffffffff600f0b8111156200156357600080fd5b809150505b919050565b828054600181600116156101000203166002900490600052602060002090601f016020900481019282601f10620015b057805160ff1916838001178555620015e1565b82800160010185558215620015e1579182015b82811115620015e0578251825591602001919060010190620015c3565b5b509050620015f09190620015f4565b5090565b6200161991905b8082111562001615576000816000905550600101620015fb565b5090565b90565b612ce5806200162c6000396000f3fe60806040526004361061011f5760003560e01c8063653b599b116100a0578063b2d0571111610064578063b2d0571114610527578063b77641ad14610552578063b88a802f1461055c578063d23890e914610587578063fd8c8219146105d95761011f565b8063653b599b146103a25780637e7e4b47146104075780638bb9e44814610438578063a85adeab14610497578063adfa9009146104c25761011f565b806336ea431e116100e757806336ea431e1461025c5780633a98ef391461029a5780634ea12b62146102cb5780634f09d6b5146103205780635a9203201461034b5761011f565b806313faede6146101245780631444477214610155578063200d2ed214610186578063288b212f146101bf578063311a6c5614610217575b600080fd5b34801561013057600080fd5b50610139610651565b6040518082600f0b600f0b815260200191505060405180910390f35b34801561016157600080fd5b5061016a6106fd565b604051808260ff1660ff16815260200191505060405180910390f35b34801561019257600080fd5b5061019b61070f565b604051808260048111156101ab57fe5b60ff16815260200191505060405180910390f35b3480156101cb57600080fd5b506101fb600480360360208110156101e257600080fd5b81019080803560ff169060200190929190505050610722565b6040518082600f0b600f0b815260200191505060405180910390f35b34801561022357600080fd5b5061025a6004803603604081101561023a57600080fd5b810190808035906020019092919080359060200190929190505050610752565b005b34801561026857600080fd5b506102986004803603602081101561027f57600080fd5b81019080803560ff1690602001909291905050506109c6565b005b3480156102a657600080fd5b506102af610d41565b6040518082600f0b600f0b815260200191505060405180910390f35b3480156102d757600080fd5b50610304600480360360208110156102ee57600080fd5b8101908080359060200190929190505050610d58565b6040518082600f0b600f0b815260200191505060405180910390f35b34801561032c57600080fd5b50610335610d6a565b6040518082815260200191505060405180910390f35b34801561035757600080fd5b50610360610d70565b604051808273ffffffffffffffffffffffffffffffffffffffff1673ffffffffffffffffffffffffffffffffffffffff16815260200191505060405180910390f35b3480156103ae57600080fd5b506103eb600480360360408110156103c557600080fd5b81019080803560ff1690602001909291908035600f0b9060200190929190505050610d96565b6040518082600f0b600f0b815260200191505060405180910390f35b34801561041357600080fd5b5061041c6112a5565b604051808260ff1660ff16815260200191505060405180910390f35b34801561044457600080fd5b506104816004803603604081101561045b57600080fd5b81019080803560ff1690602001909291908035600f0b90602001909291905050506112bb565b6040518082815260200191505060405180910390f35b3480156104a357600080fd5b506104ac6112eb565b6040518082815260200191505060405180910390f35b3480156104ce57600080fd5b5061050b600480360360408110156104e557600080fd5b81019080803560ff1690602001909291908035600f0b90602001909291905050506112f1565b6040518082600f0b600f0b815260200191505060405180910390f35b34801561053357600080fd5b5061053c611417565b6040518082815260200191505060405180910390f35b61055a61141d565b005b34801561056857600080fd5b5061057161187d565b6040518082815260200191505060405180910390f35b34801561059357600080fd5b506105c3600480360360208110156105aa57600080fd5b810190808035600f0b9060200190929190505050611bb6565b6040518082815260200191505060405180910390f35b3480156105e557600080fd5b50610635600480360360408110156105fc57600080fd5b81019080803560ff169060200190929190803573ffffffffffffffffffffffffffffffffffffffff169060200190929190505050611bcc565b6040518082600f0b600f0b815260200191505060405180910390f35b60008060008090505b6000809054906101000a900460ff1660ff168160ff1610156106d5576106c6826106c16106bc600160008660ff1660ff16815260200190815260200160002060009054906101000a9004600f0b600360009054906101000a9004600f0b611d02565b611d85565b611dfe565b9150808060010191505061065a565b506106f7600360009054906101000a9004600f0b6106f283611c5d565b611c97565b91505090565b6000809054906101000a900460ff1681565b600c60149054906101000a900460ff1681565b6000600160008360ff1660ff16815260200190815260200160002060009054906101000a9004600f0b9050919050565b600c60009054906101000a900473ffffffffffffffffffffffffffffffffffffffff1673ffffffffffffffffffffffffffffffffffffffff163373ffffffffffffffffffffffffffffffffffffffff1614610815576040517f08c379a000000000000000000000000000000000000000000000000000000000815260040180806020018281038252600f8152602001807f4a55534520555345204b4c45524f53000000000000000000000000000000000081525060200191505060405180910390fd5b600854821461088c576040517f08c379a000000000000000000000000000000000000000000000000000000000815260040180806020018281038252600d8152602001807f57524f4e4720444953505554450000000000000000000000000000000000000081525060200191505060405180910390fd5b600060019054906101000a900460ff1660ff168160ff1614156108ae5761092d565b80600060016101000a81548160ff021916908360ff160217905550600a60009054906101000a900473ffffffffffffffffffffffffffffffffffffffff16600960006101000a81548173ffffffffffffffffffffffffffffffffffffffff021916908373ffffffffffffffffffffffffffffffffffffffff1602179055505b6004600c60146101000a81548160ff0219169083600481111561094c57fe5b021790555081600c60009054906101000a900473ffffffffffffffffffffffffffffffffffffffff1673ffffffffffffffffffffffffffffffffffffffff167f394027a5fa6e098a1191094d1719d6929b9abc535fcc0c8f448d6a4e75622276836040518082815260200191505060405180910390a35050565b600360048111156109d357fe5b600c60149054906101000a900460ff1660048111156109ee57fe5b1415610a62576040517f08c379a00000000000000000000000000000000000000000000000000000000081526004018080602001828103825260178152602001807f4445434953494f4e20474f4e4520544f204b4c45524f5300000000000000000081525060200191505060405180910390fd5b600960009054906101000a900473ffffffffffffffffffffffffffffffffffffffff1673ffffffffffffffffffffffffffffffffffffffff163373ffffffffffffffffffffffffffffffffffffffff1614610b25576040517f08c379a00000000000000000000000000000000000000000000000000000000081526004018080602001828103825260148152602001807f4f4e4c59204d41535445522043414e2043414c4c00000000000000000000000081525060200191505060405180910390fd5b6007544211610b9c576040517f08c379a000000000000000000000000000000000000000000000000000000000815260040180806020018281038252601b8152602001807f544f4f204541524c5920544f20444543494445204f5554434f4d45000000000081525060200191505060405180910390fd5b60006004811115610ba957fe5b600c60149054906101000a900460ff166004811115610bc457fe5b1480610bf5575060016004811115610bd857fe5b600c60149054906101000a900460ff166004811115610bf357fe5b145b610c67576040517f08c379a000000000000000000000000000000000000000000000000000000000815260040180806020018281038252600d8152602001807f494e56414c49442053544154450000000000000000000000000000000000000081525060200191505060405180910390fd5b60016000809054906101000a900460ff160160ff168160ff1610610cf3576040517f08c379a00000000000000000000000000000000000000000000000000000000081526004018080602001828103825260118152602001807f494e56414c4944204f5554434f4d45212100000000000000000000000000000081525060200191505060405180910390fd5b80600060016101000a81548160ff021916908360ff1602179055506002600c60146101000a81548160ff02191690836004811115610d2d57fe5b021790555062015180420160058190555050565b6000600460109054906101000a9004600f0b905090565b6000610d6382611c3a565b9050919050565b60055481565b600c60009054906101000a900473ffffffffffffffffffffffffffffffffffffffff1681565b6000806004811115610da457fe5b600c60149054906101000a900460ff166004811115610dbf57fe5b14610e32576040517f08c379a000000000000000000000000000000000000000000000000000000000815260040180806020018281038252600c8152602001807f4e6f206d6f72652062657473000000000000000000000000000000000000000081525060200191505060405180910390fd5b60008360ff1611610eab576040517f08c379a00000000000000000000000000000000000000000000000000000000081526004018080602001828103825260158152602001807f43616e277420626574206f6e206f7074696f6e2030000000000000000000000081525060200191505060405180910390fd5b600460109054906101000a9004600f0b600f0b82600f0b12610f35576040517f08c379a00000000000000000000000000000000000000000000000000000000081526004018080602001828103825260178152602001807f427579696e6720746f6f206d616e79207368617265732100000000000000000081525060200191505060405180910390fd5b600654421115610f68576001600c60146101000a81548160ff02191690836004811115610f5e57fe5b021790555061129f565b600080610f84600460109054906101000a9004600f0b85611dfe565b600460106101000a8154816fffffffffffffffffffffffffffffffff0219169083600f0b6fffffffffffffffffffffffffffffffff160217905550610fe7600460109054906101000a9004600f0b600360109054906101000a9004600f0b611c97565b600360006101000a8154816fffffffffffffffffffffffffffffffff0219169083600f0b6fffffffffffffffffffffffffffffffff160217905550611052600160008760ff1660ff16815260200190815260200160002060009054906101000a9004600f0b85611dfe565b600160008760ff1660ff16815260200190815260200160002060006101000a8154816fffffffffffffffffffffffffffffffff0219169083600f0b6fffffffffffffffffffffffffffffffff160217905550611111600260008760ff1660ff16815260200190815260200160002060003373ffffffffffffffffffffffffffffffffffffffff1673ffffffffffffffffffffffffffffffffffffffff16815260200190815260200160002060009054906101000a9004600f0b85611dfe565b600260008760ff1660ff16815260200190815260200160002060003373ffffffffffffffffffffffffffffffffffffffff1673ffffffffffffffffffffffffffffffffffffffff16815260200190815260200160002060006101000a8154816fffffffffffffffffffffffffffffffff0219169083600f0b6fffffffffffffffffffffffffffffffff16021790555060008090505b6000809054906101000a900460ff1660ff168160ff161015611221576112128261120d611208600160008660ff1660ff16815260200190815260200160002060009054906101000a9004600f0b600360009054906101000a9004600f0b611d02565b611d85565b611dfe565b915080806001019150506111a6565b50611243600360009054906101000a9004600f0b61123e83611c5d565b611c97565b915061125e82600460009054906101000a9004600f0b611e65565b925081600460006101000a8154816fffffffffffffffffffffffffffffffff0219169083600f0b6fffffffffffffffffffffffffffffffff16021790555050505b92915050565b60008060019054906101000a900460ff16905090565b60006112e36112da6112cd85856112f1565b6112d5610651565b611e65565b620f4240611ecc565b905092915050565b60065481565b6000806000611327611312600460109054906101000a9004600f0b86611dfe565b600360109054906101000a9004600f0b611c97565b905060008090505b6000809054906101000a900460ff1660ff168160ff1610156113fa578560ff168160ff16146113a0576113998361139461138f600160008660ff1660ff16815260200190815260200160002060009054906101000a9004600f0b86611d02565b611d85565b611dfe565b92506113ed565b6113ea836113e56113e06113da600160008c60ff1660ff16815260200190815260200160002060009054906101000a9004600f0b8a611dfe565b86611d02565b611d85565b611dfe565b92505b808060010191505061132f565b5061140d8161140884611c5d565b611c97565b9250505092915050565b60075481565b6003600481111561142a57fe5b600c60149054906101000a900460ff16600481111561144557fe5b14156114b9576040517f08c379a00000000000000000000000000000000000000000000000000000000081526004018080602001828103825260108152602001807f416c72656164792064697370757465640000000000000000000000000000000081525060200191505060405180910390fd5b600260048111156114c657fe5b600c60149054906101000a900460ff1660048111156114e157fe5b1480156114ef575060055442105b8061153157506001600481111561150257fe5b600c60149054906101000a900460ff16600481111561151d57fe5b1480156115305750620151806007540142105b5b8061158057506000600481111561154457fe5b600c60149054906101000a900460ff16600481111561155f57fe5b14801561156d575060065442115b801561157f5750620151806007540142115b5b6115f2576040517f08c379a000000000000000000000000000000000000000000000000000000000815260040180806020018281038252600d8152602001807f43414e275420444953505554450000000000000000000000000000000000000081525060200191505060405180910390fd5b33600a60006101000a81548173ffffffffffffffffffffffffffffffffffffffff021916908373ffffffffffffffffffffffffffffffffffffffff1602179055506003600c60146101000a81548160ff0219169083600481111561165257fe5b02179055506000600c60009054906101000a900473ffffffffffffffffffffffffffffffffffffffff1673ffffffffffffffffffffffffffffffffffffffff1663f7434ea96040518163ffffffff1660e01b8152600401808060200182810382526000815260200160200191505060206040518083038186803b1580156116d857600080fd5b505afa1580156116ec573d6000803e3d6000fd5b505050506040513d602081101561170257600080fd5b810190808051906020019092919050505090508034101561172257600080fd5b600c60009054906101000a900473ffffffffffffffffffffffffffffffffffffffff1673ffffffffffffffffffffffffffffffffffffffff1663c13517e1826000809054906101000a900460ff166040518363ffffffff1660e01b8152600401808260ff16815260200180602001828103825260008152602001602001925050506020604051808303818588803b1580156117bc57600080fd5b505af11580156117d0573d6000803e3d6000fd5b50505050506040513d60208110156117e757600080fd5b8101908080519060200190929190505050600881905550600854600c60009054906101000a900473ffffffffffffffffffffffffffffffffffffffff1673ffffffffffffffffffffffffffffffffffffffff167f74baab670a4015ab2f1b467c5252a96141a2573f2908e58a92081e80d3cfde3d600080604051808381526020018281526020019250505060405180910390a350565b600060075442116118f6576040517f08c379a00000000000000000000000000000000000000000000000000000000081526004018080602001828103825260128152602001807f546f6f206561726c7920746f20636c61696d000000000000000000000000000081525060200191505060405180910390fd5b60048081111561190257fe5b600c60149054906101000a900460ff16600481111561191d57fe5b148061195b57506002600481111561193157fe5b600c60149054906101000a900460ff16600481111561194c57fe5b14801561195a575060055442115b5b6119cd576040517f08c379a00000000000000000000000000000000000000000000000000000000081526004018080602001828103825260138152602001807f57616974696e6720666f722061707065616c730000000000000000000000000081525060200191505060405180910390fd5b6000600260008060019054906101000a900460ff1660ff1660ff16815260200190815260200160002060003373ffffffffffffffffffffffffffffffffffffffff1673ffffffffffffffffffffffffffffffffffffffff16815260200190815260200160002060009054906101000a9004600f0b90506000600160008060019054906101000a900460ff1660ff1660ff16815260200190815260200160002060006101000a8154816fffffffffffffffffffffffffffffffff0219169083600f0b6fffffffffffffffffffffffffffffffff1602179055506000600260008060019054906101000a900460ff1660ff1660ff16815260200190815260200160002060003373ffffffffffffffffffffffffffffffffffffffff1673ffffffffffffffffffffffffffffffffffffffff16815260200190815260200160002060006101000a8154816fffffffffffffffffffffffffffffffff0219169083600f0b6fffffffffffffffffffffffffffffffff160217905550611b5d600460109054906101000a9004600f0b82611e65565b600460106101000a8154816fffffffffffffffffffffffffffffffff0219169083600f0b6fffffffffffffffffffffffffffffffff1602179055506000611bac82670de0b6b3a7640000611ecc565b9050809250505090565b6000611bc582620f4240611ecc565b9050919050565b6000600260008460ff1660ff16815260200190815260200160002060008373ffffffffffffffffffffffffffffffffffffffff1673ffffffffffffffffffffffffffffffffffffffff16815260200190815260200160002060009054906101000a9004600f0b905092915050565b6000677fffffffffffffff821115611c5157600080fd5b604082901b9050919050565b60008082600f0b13611c6e57600080fd5b60806fb17217f7d1cf79abc9e3b39803f2f6af611c8a84611f87565b600f0b02901c9050919050565b600080604083600f0b85600f0b02901d90507fffffffffffffffffffffffffffffffff80000000000000000000000000000000600f0b8112158015611cef57506f7fffffffffffffffffffffffffffffff600f0b8113155b611cf857600080fd5b8091505092915050565b60008082600f0b1415611d1457600080fd5b600082600f0b604085600f0b901b81611d2957fe5b0590507fffffffffffffffffffffffffffffffff80000000000000000000000000000000600f0b8112158015611d7257506f7fffffffffffffffffffffffffffffff600f0b8113155b611d7b57600080fd5b8091505092915050565b60006840000000000000000082600f0b12611d9f57600080fd5b7fffffffffffffffffffffffffffffffffffffffffffffffc0000000000000000082600f0b1215611dd35760009050611df9565b611df66080700171547652b82fe1777d0ffda0d23a7d1284600f0b02901d6120af565b90505b919050565b60008082600f0b84600f0b0190507fffffffffffffffffffffffffffffffff80000000000000000000000000000000600f0b8112158015611e5257506f7fffffffffffffffffffffffffffffff600f0b8113155b611e5b57600080fd5b8091505092915050565b60008082600f0b84600f0b0390507fffffffffffffffffffffffffffffffff80000000000000000000000000000000600f0b8112158015611eb957506f7fffffffffffffffffffffffffffffff600f0b8113155b611ec257600080fd5b8091505092915050565b600080821415611edf5760009050611f81565b600083600f0b1215611ef057600080fd5b600060406fffffffffffffffffffffffffffffffff841685600f0b02901c90506000608084901c85600f0b02905077ffffffffffffffffffffffffffffffffffffffffffffffff811115611f4357600080fd5b604081901b9050817fffffffffffffffffffffffffffffffffffffffffffffffffffffffffffffffff03811115611f7957600080fd5b818101925050505b92915050565b60008082600f0b13611f9857600080fd5b6000809050600083600f0b9050680100000000000000008112611fc357604081901d90506040820191505b6401000000008112611fdd57602081901d90506020820191505b620100008112611ff557601081901d90506010820191505b610100811261200c57600881901d90506008820191505b6010811261202257600481901d90506004820191505b6004811261203857600281901d90506002820191505b60028112612047576001820191505b60006040808403901b9050600083607f0386600f0b901b9050600067800000000000000090505b60008113156120a2578182029150600060ff83901c905080607f0183901c92508082028401935050600181901d905061206e565b5081945050505050919050565b60006840000000000000000082600f0b126120c957600080fd5b7fffffffffffffffffffffffffffffffffffffffffffffffc0000000000000000082600f0b12156120fd5760009050612caa565b60006f80000000000000000000000000000000905060006780000000000000008416600f0b131561214357608070016a09e667f3bcc908b2fb1366ea957d3e8202901c90505b60006740000000000000008416600f0b13156121745760807001306fe0a31b7152de8d5a46305c85edec8202901c90505b60006720000000000000008416600f0b13156121a55760807001172b83c7d517adcdf7c8c50eb14a791f8202901c90505b60006710000000000000008416600f0b13156121d657608070010b5586cf9890f6298b92b71842a983638202901c90505b60006708000000000000008416600f0b13156122075760807001059b0d31585743ae7c548eb68ca417fd8202901c90505b60006704000000000000008416600f0b1315612238576080700102c9a3e778060ee6f7caca4f7a29bde88202901c90505b60006702000000000000008416600f0b131561226957608070010163da9fb33356d84a66ae336dcdfa3f8202901c90505b60006701000000000000008416600f0b131561229a576080700100b1afa5abcbed6129ab13ec11dc95438202901c90505b600066800000000000008416600f0b13156122ca57608070010058c86da1c09ea1ff19d294cf2f679b8202901c90505b600066400000000000008416600f0b13156122fa5760807001002c605e2e8cec506d21bfc89a23a00f8202901c90505b600066200000000000008416600f0b131561232a576080700100162f3904051fa128bca9c55c31e5df8202901c90505b600066100000000000008416600f0b131561235a5760807001000b175effdc76ba38e31671ca9397258202901c90505b600066080000000000008416600f0b131561238a576080700100058ba01fb9f96d6cacd4b180917c3d8202901c90505b600066040000000000008416600f0b13156123ba57608070010002c5cc37da9491d0985c348c68e7b38202901c90505b600066020000000000008416600f0b13156123ea5760807001000162e525ee054754457d59952920268202901c90505b600066010000000000008416600f0b131561241a57608070010000b17255775c040618bf4a4ade83fc8202901c90505b6000658000000000008416600f0b13156124495760807001000058b91b5bc9ae2eed81e9b7d4cfab8202901c90505b6000654000000000008416600f0b1315612478576080700100002c5c89d5ec6ca4d7c8acc017b7c98202901c90505b6000652000000000008416600f0b13156124a757608070010000162e43f4f831060e02d839a9d16d8202901c90505b6000651000000000008416600f0b13156124d6576080700100000b1721bcfc99d9f890ea069117638202901c90505b6000650800000000008416600f0b131561250557608070010000058b90cf1e6d97f9ca14dbcc16288202901c90505b6000650400000000008416600f0b13156125345760807001000002c5c863b73f016468f6bac5ca2b8202901c90505b6000650200000000008416600f0b1315612563576080700100000162e430e5a18f6119e3c02282a58202901c90505b6000650100000000008416600f0b13156125925760807001000000b1721835514b86e6d96efd1bfe8202901c90505b60006480000000008416600f0b13156125c0576080700100000058b90c0b48c6be5df846c5b2ef8202901c90505b60006440000000008416600f0b13156125ee57608070010000002c5c8601cc6b9e94213c72737a8202901c90505b60006420000000008416600f0b131561261c5760807001000000162e42fff037df38aa2b219f068202901c90505b60006410000000008416600f0b131561264a57608070010000000b17217fba9c739aa5819f44f98202901c90505b60006408000000008416600f0b13156126785760807001000000058b90bfcdee5acd3c1cedc8238202901c90505b60006404000000008416600f0b13156126a6576080700100000002c5c85fe31f35a6a30da1be508202901c90505b60006402000000008416600f0b13156126d457608070010000000162e42ff0999ce3541b9fffcf8202901c90505b60006401000000008416600f0b1315612702576080700100000000b17217f80f4ef5aadda455548202901c90505b600063800000008416600f0b131561272f57608070010000000058b90bfbf8479bd5a81b51ad8202901c90505b600063400000008416600f0b131561275c5760807001000000002c5c85fdf84bd62ae30a74cc8202901c90505b600063200000008416600f0b1315612789576080700100000000162e42fefb2fed257559bdaa8202901c90505b600063100000008416600f0b13156127b65760807001000000000b17217f7d5a7716bba4a9ae8202901c90505b600063080000008416600f0b13156127e3576080700100000000058b90bfbe9ddbac5e109cce8202901c90505b600063040000008416600f0b131561281057608070010000000002c5c85fdf4b15de6f17eb0d8202901c90505b600063020000008416600f0b131561283d5760807001000000000162e42fefa494f1478fde058202901c90505b600063010000008416600f0b131561286a57608070010000000000b17217f7d20cf927c8e94c8202901c90505b6000628000008416600f0b13156128965760807001000000000058b90bfbe8f71cb4e4b33d8202901c90505b6000624000008416600f0b13156128c2576080700100000000002c5c85fdf477b662b269458202901c90505b6000622000008416600f0b13156128ee57608070010000000000162e42fefa3ae53369388c8202901c90505b6000621000008416600f0b131561291a576080700100000000000b17217f7d1d351a389d408202901c90505b6000620800008416600f0b131561294657608070010000000000058b90bfbe8e8b2d3d4ede8202901c90505b6000620400008416600f0b13156129725760807001000000000002c5c85fdf4741bea6e77e8202901c90505b6000620200008416600f0b131561299e576080700100000000000162e42fefa39fe95583c28202901c90505b6000620100008416600f0b13156129ca5760807001000000000000b17217f7d1cfb72b45e18202901c90505b60006180008416600f0b13156129f5576080700100000000000058b90bfbe8e7cc35c3f08202901c90505b60006140008416600f0b1315612a2057608070010000000000002c5c85fdf473e242ea388202901c90505b60006120008416600f0b1315612a4b5760807001000000000000162e42fefa39f02b772c8202901c90505b60006110008416600f0b1315612a7657608070010000000000000b17217f7d1cf7d83c1a8202901c90505b60006108008416600f0b1315612aa15760807001000000000000058b90bfbe8e7bdcbe2e8202901c90505b60006104008416600f0b1315612acc576080700100000000000002c5c85fdf473dea871f8202901c90505b60006102008416600f0b1315612af757608070010000000000000162e42fefa39ef44d918202901c90505b60006101008416600f0b1315612b22576080700100000000000000b17217f7d1cf79e9498202901c90505b600060808416600f0b1315612b4c57608070010000000000000058b90bfbe8e7bce5448202901c90505b600060408416600f0b1315612b765760807001000000000000002c5c85fdf473de6eca8202901c90505b600060208416600f0b1315612ba0576080700100000000000000162e42fefa39ef366f8202901c90505b600060108416600f0b1315612bca5760807001000000000000000b17217f7d1cf79afa8202901c90505b600060088416600f0b1315612bf4576080700100000000000000058b90bfbe8e7bcd6d8202901c90505b600060048416600f0b1315612c1e57608070010000000000000002c5c85fdf473de6b28202901c90505b600060028416600f0b1315612c485760807001000000000000000162e42fefa39ef3588202901c90505b600060018416600f0b1315612c7257608070010000000000000000b17217f7d1cf79ab8202901c90505b604083600f0b901d603f03600f0b81901c90506f7fffffffffffffffffffffffffffffff600f0b811115612ca557600080fd5b809150505b91905056fea2646970667358221220f5d310482171b580f715d554c83082f48474120a93cc3af693049262149c2ae964736f6c63430006080033",
  "immutableReferences": {},
  "source": "pragma solidity ^0.6.0;\r\n\r\nimport \"./interfaces/IArbitrable.sol\";\r\nimport \"./interfaces/IArbitrator.sol\";\r\nimport \"./interfaces/IEvidence.sol\";\r\nimport { ABDKMath } from \"./ABDKMath64x64.sol\";\r\n\r\ncontract SCFactory {\r\n\r\n    mapping(uint256 => SCMMaker) public market;\r\n    uint256 public markets;\r\n\r\n    event MarketCreated(SCMMaker _market);\r\n\r\n    function createMarket(uint8 _numOptions, uint256 endTime, uint256 resultTime, string memory hash) public {\r\n        market[markets] = new SCMMaker(msg.sender, _numOptions,endTime, resultTime, hash);\r\n        emit MarketCreated(market[markets]);\r\n        markets++;\r\n    }\r\n\r\n    function getNumberOfMarkets() public view returns (uint256) {\r\n        return markets;\r\n    }\r\n\r\n    function getMarket(uint256 _id) public view returns (SCMMaker) {\r\n        return market[_id];\r\n    }\r\n\r\n}\r\n\r\ncontract SCMMaker is IArbitrable, IEvidence{\r\n\r\n    uint8 public numOfOutcomes; //How many different options can you bet on? - note that you cannot bet on option 0, the #INVALID option\r\n    uint8 private outcome;\r\n\r\n    mapping(uint8 => int128) private q; //How many outstanding shares for each option?\r\n    mapping(uint8 => mapping(address => int128)) private balances; // How many shares does a user own?\r\n\r\n    int128 private b; //The total outstanding balance (equivalent to sum of all q) multiplied by ALPHA\r\n    int128 private alpha; //This is a constant, decided at runtime that determines the sensitivity to liquidity\r\n    int128 private current_cost; //Running total of the cost function, to prevent you from calculating multiple exp\r\n    int128 private total_balance; //sum of all q ()\r\n\r\n    uint256 private constant initialLiq = 100; //Need to decide what the minimum liquidity is for a market.. Start with 100 USD\r\n\r\n    uint256 public appealTimestamp;\r\n    uint256 public endTimestamp;\r\n    uint256 public resultTimestamp;\r\n    uint256 private dispute_id;\r\n\r\n    uint256 private constant DISPUTE_TIME = 1 days;\r\n\r\n    address private game_master;\r\n    address private disputer;\r\n    address private currency;\r\n    IArbitrator public kleros = IArbitrator(0xaededC9A349B19508cdAeD4C6F8CF244413260E7);\r\n\r\n\r\n    enum Status { BettingOpen, NoMoreBets, Appealable, Disputed, Resolved }\r\n    Status public status;\r\n    string private ipfsHash = '';\r\n\r\n    /**\r\n     * constructor function\r\n     * param _numOptions: How many different outcomes can you bet on? (please ignore option zero here)\r\n     * alpha is calculated as a constant that is used later on\r\n     * need to add endtime, result time, and ipfs hash\r\n     **/\r\n    constructor(address _owner, uint8 _numOptions, uint256 endTime, uint256 resultTime, string memory hash) public {\r\n        numOfOutcomes = _numOptions;\r\n        int128 IL = ABDKMath.fromUInt(initialLiq);\r\n        int128 n = ABDKMath.fromUInt(_numOptions);\r\n        alpha = ABDKMath.div(1,ABDKMath.mul(10,ABDKMath.mul(n,ABDKMath.ln(n))));\r\n        b = ABDKMath.mul(ABDKMath.mul(IL,n),alpha);\r\n        int128 sumtotal;\r\n        int128 eqb = ABDKMath.exp(ABDKMath.div(IL,b));\r\n        game_master = _owner;\r\n        for(uint8 i=0;i<numOfOutcomes;i++) {\r\n            q[i] = IL;\r\n            //balances[i][msg.sender] = IL;\r\n            sumtotal = ABDKMath.add(sumtotal,eqb);\r\n            total_balance = ABDKMath.add(total_balance,IL);\r\n        }\r\n        current_cost = ABDKMath.mul(b,ABDKMath.ln(sumtotal));\r\n        endTimestamp = endTime;\r\n        resultTimestamp = resultTime;\r\n        emit MetaEvidence(0,hash);\r\n    }//\"/ipfs/QmWcHMmZfMWkVHYSNNe6qrAhM5FiWQcjSad3hUseXEjCxA/metaEvidence.json\"\r\n\r\n    /*\r\n      AMM functions\r\n    */\r\n\r\n    function cost() public view returns (int128) {  //Getter function, designed for the frontend\r\n        int128 sumtotal;\r\n        for(uint8 i=0; i<numOfOutcomes;i++) {\r\n            sumtotal = ABDKMath.add(sumtotal,ABDKMath.exp(ABDKMath.div(q[i],b)));\r\n        }\r\n        return ABDKMath.mul(b,ABDKMath.ln(sumtotal));\r\n    }\r\n\r\n    function costafterbuy(uint8 _outcome, int128 amount) public view returns (int128) { //Getter function, designed for front end\r\n        int128 sumtotal;\r\n        int128 _b = ABDKMath.mul(ABDKMath.add(total_balance,amount),alpha);\r\n        for(uint8 i=0; i<numOfOutcomes;i++) {\r\n            if(i!=_outcome) {\r\n                sumtotal = ABDKMath.add(sumtotal,\r\n                ABDKMath.exp(\r\n                    ABDKMath.div(q[i],\r\n                _b)\r\n                ));\r\n            } else {\r\n                sumtotal = ABDKMath.add(sumtotal,\r\n                ABDKMath.exp(\r\n                    ABDKMath.div(\r\n                        ABDKMath.add(q[_outcome],amount),\r\n                    _b))\r\n\r\n                );\r\n            }\r\n        }\r\n        return ABDKMath.mul(_b,ABDKMath.ln(sumtotal));\r\n    }\r\n\r\n    function price(uint8 _outcome, int128 amount) public view returns (uint256) { // Getter function, designed for the frontend\r\n       return ABDKMath.mulu(ABDKMath.sub(costafterbuy(_outcome,amount),cost()),1000000);\r\n    }\r\n\r\n    function buyshares(uint8 _outcome, int128 amount) public returns (int128 spot_price) {\r\n        require(status == Status.BettingOpen,'No more bets'); // There should be a check in the front-end to make sure that betting is open (also check endTimestamp), otherwise that would suck for you to spend gas\r\n        require(_outcome > 0, \"Can't bet on option 0\"); //disable option 0 for now\r\n        require(amount < total_balance,\"Buying too many shares!\"); //user will never get a good price for this bet, so save on some gas\r\n        if(block.timestamp > endTimestamp) { //If the user tries to place a bet but it's too late, then they can pay the gas to switch state\r\n            status = Status.NoMoreBets;\r\n        } else {\r\n            int128 new_cost;\r\n            int128 sumtotal;\r\n            total_balance = ABDKMath.add(total_balance,amount);\r\n            b = ABDKMath.mul(total_balance,alpha);\r\n            q[_outcome] = ABDKMath.add(q[_outcome],amount);\r\n            balances[_outcome][msg.sender] = ABDKMath.add(balances[_outcome][msg.sender],amount);\r\n            for(uint8 i=0; i<numOfOutcomes;i++) {\r\n                sumtotal = ABDKMath.add(sumtotal,\r\n                ABDKMath.exp(\r\n                    ABDKMath.div(q[i],\r\n                    b)\r\n                ));\r\n            }\r\n            new_cost = ABDKMath.mul(b,ABDKMath.ln(sumtotal));\r\n            spot_price = ABDKMath.sub(new_cost,current_cost);\r\n            //require(currency.transfer(this.address,ABDKMath.toUInt(spot_price*1000000000000000000)));\r\n            current_cost = new_cost;\r\n        }\r\n    }\r\n\r\n    function claimReward() public returns (uint256) {\r\n        require(block.timestamp > resultTimestamp,'Too early to claim');\r\n        require(status == Status.Resolved || (\r\n            status == Status.Appealable && block.timestamp > appealTimestamp),'Waiting for appeals');\r\n        int128 reward = balances[outcome][msg.sender];\r\n        q[outcome] = 0;   //TODO: this should be --\r\n        balances[outcome][msg.sender] = 0;\r\n        total_balance = ABDKMath.sub(total_balance,reward);\r\n        uint256 winnings = ABDKMath.mulu(reward,10**18);\r\n        //require(currency.transferFrom(this.address,msg.sender,winnings));\r\n        return(winnings);\r\n    }\r\n\r\n    function fu(uint256 x) public pure returns (int128) { //DEBUGGING FUNCTION - for convenience only\r\n        return ABDKMath.fromUInt(x);\r\n    }\r\n\r\n    function tu(int128 x) public pure returns (uint256) { //DEBUGGING FUNCTION - for convenience only\r\n        return ABDKMath.mulu(x,1000000);\r\n    }\r\n\r\n    function getBalanceOf(uint8 _outcome, address _acc) public view returns (int128) {\r\n        return balances[_outcome][_acc];\r\n    }\r\n\r\n    function outstandingShares(uint8 _outcome) public view returns (int128) {\r\n        return q[_outcome];\r\n    }\r\n\r\n    function totalShares() public view returns (int128) {\r\n        return total_balance;\r\n    }\r\n\r\n    /*\r\n      ORACLE FUNCTIONS\r\n    */\r\n\r\n    function setOutcome(uint8 _outcome) public {\r\n        require(status != Status.Disputed,\"DECISION GONE TO KLEROS\");\r\n        require(msg.sender == game_master,\"ONLY MASTER CAN CALL\");\r\n        require(block.timestamp > resultTimestamp,'TOO EARLY TO DECIDE OUTCOME');\r\n        require(status == Status.BettingOpen || status == Status.NoMoreBets,\"INVALID STATE\");\r\n        //With this implementation, the user can still set the outcome after 24h but only if nobody else has disputed\r\n        require(_outcome < numOfOutcomes+1,\"INVALID OUTCOME!!\");\r\n        outcome = _outcome;\r\n        status = Status.Appealable;\r\n        appealTimestamp = block.timestamp + DISPUTE_TIME;\r\n    }\r\n\r\n    function disputeOutcome() public payable {\r\n        require(status != Status.Disputed,\"Already disputed\");\r\n        require ( (status == Status.Appealable && block.timestamp < appealTimestamp) ||\r\n        (status == Status.NoMoreBets && block.timestamp < (resultTimestamp+DISPUTE_TIME)) ||\r\n        (status == Status.BettingOpen && block.timestamp > endTimestamp && block.timestamp>(resultTimestamp+DISPUTE_TIME)),\r\n        \"CAN'T DISPUTE\");\r\n        disputer = msg.sender;\r\n        status = Status.Disputed;\r\n        //GO TO KLEROS, DO NOT PASS GO\r\n        uint arb_cost = kleros.arbitrationCost('');\r\n        require(msg.value >= arb_cost);\r\n        dispute_id = kleros.createDispute{value: arb_cost}(numOfOutcomes,'');\r\n        emit Dispute(kleros, dispute_id, 0, 0);\r\n    }\r\n\r\n    function rule(uint _disputeID, uint _ruling) external override {\r\n        require (msg.sender == address(kleros),\"JUSE USE KLEROS\");\r\n        require (_disputeID == dispute_id,\"WRONG DISPUTE\");\r\n\r\n        if(uint8(_ruling) == outcome) { //KLEROS VOTED IN FAVOUR OF THE ILP\r\n            //technically do nothing here\r\n        } else { //KLEROS CHANGED THE INITIAL OUTCOME\r\n            outcome = uint8(_ruling);\r\n            game_master = disputer; //change the game master to the disputer\r\n        }\r\n        status = Status.Resolved;\r\n        emit Ruling(kleros, _disputeID, _ruling);\r\n    }\r\n\r\n    function getOutcome() public view returns (uint8) {\r\n        return outcome;\r\n    }\r\n}\r\n",
  "sourcePath": "C:/Users/Abdulla/apps/CTF/contracts/SCMMaker.sol",
  "compiler": {
    "name": "solc",
    "version": "0.6.8+commit.0bbfe453.Emscripten.clang"
  },
  "schemaVersion": "3.3.0",
  "updatedAt": "2020-12-14T09:35:12.069Z",
  "devdoc": {
    "methods": {}
  },
  "userdoc": {
    "methods": {
      "constructor": "constructor function param _numOptions: How many different outcomes can you bet on? (please ignore option zero here) alpha is calculated as a constant that is used later on need to add endtime, result time, and ipfs hash*"
    }
  }
}